:020000040000FA
:2B000000FFFF62FF3100FFFFFFFFFFFFFFFFFFFFFFFFFFFFFFFFFFFFFFFFFFFFFFFFFFFFFFFFFFFFFFFFFFFFFFFFFF6A
:2B002B00000CC0000CC0000CC0000CC0000CC0000CC00000000000800118800118800118800118800118800118C0E3A9
:2B0056000012200112200112200112200112200112200100000000400224400224400224400224400224400224C0E346
:2B0081000000000000000000000000000000000000000000000000000000000000000000000000000000000000C0E3B1
:2B00AC000000000000000000000000000000000000000000000000000000000000000000000000000000000000C0E386
:2B00D7000000000000000000000000000000000000000000000000000000000000000000000000000000000000C0E35B
:2B0102000000000000000000000000000000000000000000000000000000000000000000000000000000000000C0E32F
:2B012D000000000000000000000000000000000000000000000000000000000000000000000000000000000000C0E304
:2B0158000000000000000000000000000000000000000000000000000000000000000000000000000000000000C0E3D9
:2B0183000000000000000000000000000000000000000000000000000000000000000000000000000000000000C0E3AE
:2B01AE000000000000000000000000000000000000000000000000000000000000000000000000000000000000C0E383
:2B01D9000000000000000000000000000000000000000000000000000000000000000000000000000000000000C0E358
:2B0204000000000000000000000000000000000000000000000000000000000000000000000000000000000000C0E32C
:2B022F000000000000000000000000000000000000000000000000000000000000000000000000000000000000C0E301
:2B025A000000000000000000000000000000000000000000000000000000000000000000000000000000000000C0E3D6
:2B0285000000000000000000000000000000000000000000000000000000000000000000000000000000000000C0E3AB
:2B02B0000000000000000000000000000000000000000000000000000000000000000000000000000000000000C0E380
:2B02DB000000000000000000000000000000000000000000000000000000000000000000000000000000000000C0E355
:2B0306000800000000000000000000000000000000000000000000000000000000000000000000000000000000D0FAFA
:2B0331000000000000000000000000000000000000000000000000000000000000000000000000000000000000C0E3FE
:2B035C000000000000000000000000000000000000000000000000000000000000000000000000000000000000C0E3D3
:2B038700040000000000000000000000000000000000000000000000000000000000000000000000000000000048EF10
:2B03B2000000000000000000000000000000000000000000000000000000000000000000000000000000000000C0E37D
:2B03DD000000000000000000000000000000000000000000000000000000000000000000000000000000000000C0E352
:2B0408000000000000000000000000000000000000000000000000000000000000000000000000000000000000C0E326
:2B0433000000000000000000000000000000000000000000000000000000000000000000000000000000000000C0E3FB
:2B045E000800000000000000000000000000000000000000000000000000000000000000000000000000000000D0FAA1
:2B0489000000000000000000000000000000000000000000000000000000000000000000000000000000000000C0E3A5
:2B04B4000000000000000000000000000000000000000000000000000000000000000000000000000000000000C0E37A
:2B04DF00040000000000000000000000000000000000000000000000000000000000000000000000000000000048EFB7
:2B050A000000000000000000000000000000000000000000000000000000000000000000000000000000000000C0E323
:2B0535000000000000000000000000000000000000000000000000000000000000000000000000000000000000C0E3F8
:2B0560000000000000000000000000000000000000000000000000000000000000000000000000000000000000C0E3CD
:2B058B000000000000000000000000000000000000000000000000000000000000000000000000000000000000C0E3A2
:2B05B6000800000000000000000000000000000000000000000000000000000000000000000000000000000000D0FA48
:2B05E1000000000000000000000000000000000000000000000000000000000000000000000000000000000000C0E34C
:2B060C000000000000000000000000000000000000000000000000000000000000000000000000000000000000C0E320
:2B063700040000000000000000000000000000000000000000000000000000000000000000000000000000000048EF5D
:2B0662000000000000000000000000000000000000000000000000000000000000000000000000000000000000C0E3CA
:2B068D000000000000000000000000000000000000000000000000000000000000000000000000000000000000C0E39F
:2B06B8000000000000000000000000000000000000000000000000000000000000000000000000000000000000C0E374
:2B06E3000000000000000000000000000000000000000000000000000000000000000000000000000000000000C0E349
:2B070E000800000000000000000000000000000000000000000000000000000000000000000000000000000000D0FAEE
:2B0739000000000000000000000000000000000000000000000000000000000000000000000000000000000000C0E3F2
:2B0764000000000000000000000000000000000000000000000000000000000000000000000000000000000000C0E3C7
:2B078F00040000000000000000000000000000000000000000000000000000000000000000000000000000000048EF04
:2B07BA000000000000000000000000000000000000000000000000000000000000000000000000000000000000C0E371
:2B07E5000000000000000000000000000000000000000000000000000000000000000000000000000000000000C0E346
:2B0810000000000000000000000000000000000000000000000000000000000000000000000000000000000000C0E31A
:2B083B000000000000000000000000000000000000000000000000000000000000000000000000000000000000C0E3EF
:2B0866000800000000000000000000000000000000000000000000000000000000000000000000000000000000D0FA95
:2B0891000000000000000000000000000000000000000000000000000000000000000000000000000000000000C0E399
:2B08BC000000000000000000000000000000000000000000000000000000000000000000000000000000000000C0E36E
:2B08E700040000000000000000000000000000000000000000000000000000000000000000000000000000000048EFAB
:2B0912000000000000000000000000000000000000000000000000000000000000000000000000000000000000C0E317
:2B093D000000000000000000000000000000000000000000000000000000000000000000000000000000000000C0E3EC
:2B0968000000000000000000000000000000000000000000000000000000000000000000000000000000000000C0E3C1
:2B0993000000000000000000000000000000000000000000000000000000000000000000000000000000000000C0E396
:2B09BE000800000000000000000000000000000000000000000000000000000000000000000000000000000000D0FA3C
:2B09E9000000000000000000000000000000000000000000000000000000000000000000000000000000000000C0E340
:2B0A14000000000000000000000000000000000000000000000000000000000000000000000000000000000000C0E314
:2B0A3F00040000000000000000000000000000000000000000000000000000000000000000000000000000000048EF51
:2B0A6A000000000000000000000000000000000000000000000000000000000000000000000000000000000000C0E3BE
:2B0A95000000000000000000000000000000000000000000000000000000000000000000000000000000000000C0E393
:2B0AC0000000000000000000000000000000000000000000000000000000000000000000000000000000000000C0E368
:2B0AEB000000000000000000000000000000000000000000000000000000000000000000000000000000000000C0E33D
:2B0B16000800000000000000000000000000000000000000000000000000000000000000000000000000000000D0FAE2
:2B0B41000000000000000000000000000000000000000000000000000000000000000000000000000000000000C0E3E6
:2B0B6C000000000000000000000000000000000000000000000000000000000000000000000000000000000000C0E3BB
:2B0B9700040000000000000000000000000000000000000000000000000000000000000000000000000000000048EFF8
:2B0BC2000000000000000000000000000000000000000000000000000000000000000000000000000000000000C0E365
:2B0BED000000000000000000000000000000000000000000000000000000000000000000000000000000000000C0E33A
:2B0C18002000022000022000022000022000022000020000000000044000044000044000044000044000044000C0E3AA
:2B0C43000000000000000000000000000000000000000000000000000000000000000000000000000000000000C0E3E3
:2B0C6E002800022000022000022000022000022000020000000000044000044000044000044000044000044000D0FA25
:2B0C99000000000000000000000000000000000000000000000000000000000000000000000000000000000000C0E38D
:2B0CC4002000022000022000022000022000022000020000000000044000044000044000044000044000044000C0E3FE
:2B0CEF00040000000000000000000000000000000000000000000000000000000000000000000000000000000048EF9F
:2B0D1A002000022000022000022000022000022000020000000000044000044000044000044000044000044000C0E3A7
:2B0D45000000000000000000000000000000000000000000000000000000000000000000000000000000000000C0E3E0
:2B0D70000000000000000000000000000000000000000000000000000000000000000000000000000000000000C0E3B5
:2B0D9B000000000000000000000000000000000000000000000000000000000000000000000000000000000000C0E38A
:2B0DC6000000000000000000000000000000000000000000000000000000000000000000000000000000000000C0E35F
:2B0DF1000000000000000000000000000000000000000000000000000000000000000000000000000000000000C0E334
:2B0E1C000000000000000000000000000000000000000000000000000000000000000000000000000000000000C0E308
:2B0E47000000000000000000000000000000000000000000000000000000000000000000000000000000000000C0E3DD
:2B0E72000000000000000000000000000000000000000000000000000000000000000000000000000000000000C0E3B2
:2B0E9D000000000000000000000000000000000000000000000000000000000000000000000000000000000000C0E387
:2B0EC8000000000000000000000000000000000000000000000000000000000000000000000000000000000000C0E35C
:2B0EF3000000000000000000000000000000000000000000000000000000000000000000000000000000000000C0E331
:2B0F1E000000000000000000000000000000000000000000000000000000000000000000000000000000000000C0E305
:2B0F49000000000000000000000000000000000000000000000000000000000000000000000000000000000000C0E3DA
:2B0F74000000000000000000000000000000000000000000000000000000000000000000000000000000000000C0E3AF
:2B0F9F000000000000000000000000000000000000000000000000000000000000000000000000000000000000C0E384
:2B0FCA000000000000000000000000000000000000000000000000000000000000000000000000000000000000C0E359
:2B0FF5000000000000000000000000000000000000000000000000000000000000000000000000000000000000C0E32E
:2B1020000000000000000000000000000000000000000000000000000000000000000000000000000000000000C0E302
:2B104B000000000000000000000000000000000000000000000000000000000000000000000000000000000000C0E3D7
:2B1076000000000000000000000000000000000000000000000000000000000000000000000000000000000000C0E3AC
:2B10A1000000000000000000000000000000000000000000000000000000000000000000000000000000000000C0E381
:2B10CC000000000000000000000000000000000000000000000000000000000000000000000000000000000000C0E356
:2B10F7000000000000000000000000000000000000000000000000000000000000000000000000000000000000C0E32B
:2B1122000000000000000000000000000000000000000000000000000000000000000000000000000000000000C0E3FF
:2B114D000000000000000000000000000000000000000000000000000000000000000000000000000000000000C0E3D4
:2B1178000000000000000000000000000000000000000000000000000000000000000000000000000000000000C0E3A9
:2B11A3000000000000000000000000000000000000000000000000000000000000000000000000000000000000C0E37E
:2B11CE000000000000000000000000000000000000000000000000000000000000000000000000000000000000C0E353
:2B11F9000000000000000000000000000000000000000000000000000000000000000000000000000000000000C0E328
:2B1224000000000000000000000000000000000000000000000000000000000000000000000000000000000000C0E3FC
:2B124F000000000000000000000000000000000000000000000000000000000000000000000000000000000000C0E3D1
:2B127A000000000000000000000000000000000000000000000000000000000000000000000000000000000000C0E3A6
:2B12A5000000000000000000000000000000000000000000000000000000000000000000000000000000000000C0E37B
:2B12D0000000000000000000000000000000000000000000000000000000000000000000000000000000000000C0E350
:2B12FB000000000000000000000000000000000000000000000000000000000000000000000000000000000000C0E325
:2B1326000000000000000000000000000000000000000000000000000000000000000000000000000000000000C0E3F9
:2B1351000000000000000000000000000000000000000000000000000000000000000000000000000000000000C0E3CE
:2B137C000000000000000000000000000000000000000000000000000000000000000000000000000000000000C0E3A3
:2B13A7000000000000000000000000000000000000000000000000000000000000000000000000000000000000C0E378
:2B13D2000000000000000000000000000000000000000000000000000000000000000000000000000000000000C0E34D
:2B13FD000000000000000000000000000000000000000000000000000000000000000000000000000000000000C0E322
:2B1428000000000000000000000000000000000000000000000000000000000000000000000000000000000000C0E3F6
:2B1453000000000000000000000000000000000000000000000000000000000000000000000000000000000000C0E3CB
:2B147E000000000000000000000000000000000000000000000000000000000000000000000000000000000000C0E3A0
:2B14A9000000000000000000000000000000000000000000000000000000000000000000000000000000000000C0E375
:2B14D4000000000000000000000000000000000000000000000000000000000000000000000000000000000000C0E34A
:2B14FF000000000000000000000000000000000000000000000000000000000000000000000000000000000000C0E31F
:2B152A000000000000000000000000000000000000000000000000000000000000000000000000000000000000C0E3F3
:2B1555000000000000000000000000000000000000000000000000000000000000000000000000000000000000C0E3C8
:2B1580000000000000000000000000000000000000000000000000000000000000000000000000000000000000C0E39D
:2B15AB000000000000000000000000000000000000000000000000000000000000000000000000000000000000C0E372
:2B15D6000800000000000000000000000000000000000000000000000000000000000000000000000000000000D0FA18
:2B1601000000000000000000000000000000000000000000000000000000000000000000000000000000000000C0E31B
:2B162C000000000000000000000000000000000000000000000000000000000000000000000000000000000000C0E3F0
:2B165700040000000000000000000000000000000000000000000000000000000000000000000000000000000048EF2D
:2B1682000000000000000000000000000000000000000000000000000000000000000000000000000000000000C0E39A
:2B16AD001000000000002000000000000000000000000000000000000000000000000000000000000000000000C0D34F
:2B16D8000000000000000000000000000000000000000000000000000000000000000000000000000000000000C0E344
:2B1703000000000000000000000000000000000000000000000000000000000000000000000000000000000000C0E318
:2B172E000400000000000000000000000000000000000000000000000000000000000000000000000000000000D0F6C6
:2B175900040000000000800500000000000000000000000000000000000000000000000000000000000000000000FEDE
:2B178400000000000000E04100000000000000000000000000000000000000000000000000000000000000000000DA3F
:2B17AF000C00000000008001000000000000000000000000000000000000000000000000000000000000000000C8FEBC
:2B17DA00000000000000800100000000000000000000000000000000000000000000000000000000000000000040FA29
:2B1805000000000000002000000000000000000000000000000000000000000000000000000000000000000000C0C315
:2B1830000000000000000000000000000000000000000000000000000000000000000000000000000000000000C0E3EA
:2B185B000000000000000000000000000000000000000000000000000000000000000000000000000000000000C0E3BF
:2B1886000800000000000000000000000000000000000000000000000000000000000000000000000000000000D0FA65
:2B18B100000000000000800500000000000000000000000000000000000000000000000000000000000000000000FA8D
:2B18DC00000000000000E04100000000000000000000000000000000000000000000000000000000000000000000DAE6
:2B1907000400000000008001000000000000000000000000000000000000000000000000000000000000000000C8F672
:2B193200000000000000800100000000000000000000000000000000000000000000000000000000000000000040FACF
:2B195D001000000000000000000000000000000000000000000000000000000000000000000000000000000000C0F39C
:2B1988000000000000000000000000000000000000000000000000000000000000000000000000000000000000C0E391
:2B19B3000000000000000000000000000000000000000000000000000000000000000000000000000000000000C0E366
:2B19DE000400000000000000000000000000000000000000000000000000000000000000000000000000000000D0F614
:2B1A09000400000000000000000000000000000000000000000000000000000000000000000000000000000000C0E707
:2B1A34000000000000000000000000000000000000000000000000000000000000000000000000000000000000C0E3E4
:2B1A5F000C0000000000000000000000000000000000000000000000000000000000000000000000000000000048E721
:2B1A8A000000000000000000000000000000000000000000000000000000000000000000000000000000000000C0E38E
:2B1AB5000000000000000000000000000000000000000000000000000000000000000000000000000000000000C0E363
:2B1AE0000000000000000000000000000000000000000000000000000000000000000000000000000000000000C0E338
:2B1B0B000000000000000000000000000000000000000000000000000000000000000000000000000000000000C0E30C
:2B1B36000800000000000000000000000000000000000000000000000000000000000000000000000000000000D0FAB2
:2B1B61000000000000000000000000000000000000000000000000000000000000000000000000000000000000C0E3B6
:2B1B8C000000000000000000000000000000000000000000000000000000000000000000000000000000000000C0E38B
:2B1BB700040000000000000000000000000000000000000000000000000000000000000000000000000000000048EFC8
:2B1BE2000000000000000000000000000000000000000000000000000000000000000000000000000000000000C0E335
:2B1C0D001000000000002000000000000000000000000000000000000000000000000000000000000000000000C0D3E9
:2B1C38000000000000000000000000000000000000000000000000000000000000000000000000000000000000C0E3DE
:2B1C63000000000000000000000000000000000000000000000000000000000000000000000000000000000000C0E3B3
:2B1C8E000400000000000000000000000000000000000000000000000000000000000000000000000000000000D0F661
:2B1CB900040000000000800500000000000000000000000000000000000000000000000000000000000000000000FE79
:2B1CE400000000000000E04100000000000000000000000000000000000000000000000000000000000000000000DADA
:2B1D0F000C00000000008001000000000000000000000000000000000000000000000000000000000000000000C8FE56
:2B1D3A00000000000000800100000000000000000000000000000000000000000000000000000000000000000040FAC3
:2B1D65000000000000002000000000000000000000000000000000000000000000000000000000000000000000C0C3B0
:2B1D90000000000000000000000000000000000000000000000000000000000000000000000000000000000000C0E385
:2B1DBB000000000000000000000000000000000000000000000000000000000000000000000000000000000000C0E35A
:2B1DE6000800000000000000000000000000000000000000000000000000000000000000000000000000000000D0FA00
:2B1E1100000000000000800500000000000000000000000000000000000000000000000000000000000000000000FA27
:2B1E3C00000000000000E04100000000000000000000000000000000000000000000000000000000000000000000DA80
:2B1E67000400000000008001000000000000000000000000000000000000000000000000000000000000000000C8F60D
:2B1E9200000000000000800100000000000000000000000000000000000000000000000000000000000000000040FA6A
:2B1EBD001000000000000000000000000000000000000000000000000000000000000000000000000000000000C0F337
:2B1EE8002000022000022000022000022000022000020000000000044000044000044000044000044000044000C0E3C8
:2B1F13000000000000000000000000000000000000000000000000000000000000000000000000000000000000C0E300
:2B1F3E002400022000022000022000022000022000020000000000044000044000044000044000044000044000D0F64A
:2B1F69000400000000000000000000000000000000000000000000000000000000000000000000000000000000C0E7A2
:2B1F94002000022000022000022000022000022000020000000000044000044000044000044000044000044000C0E31B
:2B1FBF000C0000000000000000000000000000000000000000000000000000000000000000000000000000000048E7BC
:2B1FEA002000022000022000022000022000022000020000000000044000044000044000044000044000044000C0E3C5
:2B2015000000000000000000000000000000000000000000000000000000000000000000000000000000000000C0E3FD
:2B2040000000000000000000000000000000000000000000000000000000000000000000000000000000000000C0E3D2
:2B206B000000000000000000000000000000000000000000000000000000000000000000000000000000000000C0E3A7
:2B2096000800000000000000000000000000000000000000000000000000000000000000000000000000000000C0EB6C
:2B20C1000000000000000000000000000000000000000000000000000000000000000000000000000000000000C0E351
:2B20EC000000000000000000000000000000000000000000000000000000000000000000000000000000000000C0E326
:2B2117000000000000000000000000000000000000000000000000000000000000000000000000000000000000C0E3FA
:2B2142000000000000000000000000000000000000000000000000000000000000000000000000000000000000C0E3CF
:2B216D000000000000000000000000000000000000000000000000000000000000000000000000000000000000C0E3A4
:2B2198000200000000000000000000000000000000000000000000000000000000000000000000000000000000C0E179
:2B21C3000000000000000000000000000000000000000000000000000000000000000000000000000000000000C0E34E
:2B21EE000800000000000000000000000000000000000000000000000000000000000000000000000000000000C0EB13
:2B2219000000000000000000000000000000000000000000000000000000000000000000000000000000000000C0E3F7
:2B2244000000000000000000000000000000000000000000000000000000000000000000000000000000000000C0E3CC
:2B226F000000000000000000000000000000000000000000000000000000000000000000000000000000000000C0E3A1
:2B229A00000000000000800000030000000000000000000000000000000000000000000000000000000000000040E86E
:2B22C500000000000000800000000000000000000000000000000000000000000000000000000000000000000040EB43
:2B22F0000000000000000000000400000000000000000000000000000000000000000000000000000000000000C0E718
:2B231B000000000000000001000000000000000000000000000000000000000000000000000000000000000000C0F2E4
:2B2346000000000000000000000000000000000000000000000000000000000000000000000000000000000000C0E3C9
:2B2371000000000000000000000000000000000000000000000000000000000000000000000000000000000000C0E39E
:2B239C000000000000000000000000000000000000000000000000000000000000000000000000000000000000C0E373
:2B23C7000200000000000000000000000000000000000000000000000000000000000000000000000000000000C0E148
:2B23F2000000000000000000000000000000000000000000000000000000000000000000000000000000000000C0E31D
:2B241D000000000000000000000000000000000000000000000000000000000000000000000000000000000000C0E3F1
:2B244800080000000000800000050000000000000000000000000000000000000000000000000000000000000040E6B6
:2B247300000000000000800000040000000000000000000000000000000000000000000000000000000000000040EF8B
:2B249E000000000000000000000000000000000000000000000000000000000000000000000000000000000000C0E370
:2B24C9000000000000000000000000000000000000000000000000000000000000000000000000000000000000C0E345
:2B24F4000000000000000000000000000000000000000000000000000000000000000000000000000000000000C0E31A
:2B251F000000000000000000000000000000000000000000000000000000000000000000000000000000000000C0E3EE
:2B254A000000000000000000000000000000000000000000000000000000000000000000000000000000000000C0E3C3
:2B2575000000000000000000000000000000000000000000000000000000000000000000000000000000000000C0E398
:2B25A0000000000000000000000000000000000000000000000000000000000000000000000000000000000000C0E36D
:2B25CB000000000000000000000000000000000000000000000000000000000000000000000000000000000000C0E342
:2B25F6000800000000000000000000000000000000000000000000000000000000000000000000000000000000C0EB07
:2B2621000000000000000000000000000000000000000000000000000000000000000000000000000000000000C0E3EB
:2B264C000000000000000000000000000000000000000000000000000000000000000000000000000000000000C0E3C0
:2B2677000000000000000000000000000000000000000000000000000000000000000000000000000000000000C0E395
:2B26A2000000000000000000000000000000000000000000000000000000000000000000000000000000000000C0E36A
:2B26CD000000000000000000000000000000000000000000000000000000000000000000000000000000000000C0E33F
:2B26F8000000000000000000000000000000000000000000000000000000000000000000000000000000000000C0E314
:2B2723000000000000000000000000000000000000000000000000000000000000000000000000000000000000C0E3E8
:2B274E000000000000000000000000000000000000000000000000000000000000000000000000000000000000C0E3BD
:2B2779000000000000000000000000000000000000000000000000000000000000000000000000000000000000C0E392
:2B27A4000000000000000000000000000000000000000000000000000000000000000000000000000000000000C0E367
:2B27CF000000000000000000000000000000000000000000000000000000000000000000000000000000000000C0E33C
:2B27FA000000000000000000000000000000000000000000000000000000000000000000000000000000000000C0E311
:2B2825000000000000000000000000000000000000000000000000000000000000000000000000000000000000C0E3E5
:2B2850000000000000000000000000000000000000000000000000000000000000000000000000000000000000C0E3BA
:2B287B000000000000000000000000000000000000000000000000000000000000000000000000000000000000C0E38F
:2B28A6000800000000000000000000000000000000000000000000000000000000000000000000000000000000D0FA35
:2B28D1000000000000000000000000000000000000000000000000000000000000000000000000000000000000C0E339
:2B28FC000000000000000000000000000000000000000000000000000000000000000000000000000000000000C0E30E
:2B292700040000000000000000000000000000000000000000000000000000000000000000000000000000000048EF4A
:2B2952000000000000000000000000000000000000000000000000000000000000000000000000000000000000C0E3B7
:2B297D000000000000000000000000000000000000000000000000000000000000000000000000000000000000C0E38C
:2B29A8000000000000000000000000000000000000000000000000000000000000000000000000000000000000C0E361
:2B29D3000000000000000000000000000000000000000000000000000000000000000000000000000000000000C0E336
:2B29FE000800000000000000000000000000000000000000000000000000000000000000000000000000000000D0FADC
:2B2A29000000000000000000000000000000000000000000000000000000000000000000000000000000000000C0E3DF
:2B2A54000000000000000000000000000000000000000000000000000000000000000000000000000000000000C0E3B4
:2B2A7F00040000000000000000000000000000000000000000000000000000000000000000000000000000000048EFF1
:2B2AAA000000000000000000000000000000000000000000000000000000000000000000000000000000000000C0E35E
:2B2AD5000000000000000000000000000000000000000000000000000000000000000000000000000000000000C0E333
:2B2B00000000000000000000000000000000000000000000000000000000000000000000000000000000000000C0E307
:2B2B2B000000000000000000000000000000000000000000000000000000000000000000000000000000000000C0E3DC
:2B2B56000800000000000000000000000000000000000000000000000000000000000000000000000000000000D0FA82
:2B2B81000000000000000000000000000000000000000000000000000000000000000000000000000000000000C0E386
:2B2BAC000000000000000000000000000000000000000000000000000000000000000000000000000000000000C0E35B
:2B2BD700040000000000000000000000000000000000000000000000000000000000000000000000000000000048EF98
:2B2C02000000000000000000000000000000000000000000000000000000000000000000000000000000000000C0E304
:2B2C2D000000000000000000000000000000000000000000000000000000000000000000000000000000000000C0E3D9
:2B2C58000000000000000000000000000000000000000000000000000000000000000000000000000000000000C0E3AE
:2B2C83000000000000000000000000000000000000000000000000000000000000000000000000000000000000C0E383
:2B2CAE000800000000000000000000000000000000000000000000000000000000000000000000000000000000D0FA29
:2B2CD9000000000000000000000000000000000000000000000000000000000000000000000000000000000000C0E32D
:2B2D04000000000000000000000000000000000000000000000000000000000000000000000000000000000000C0E301
:2B2D2F00040000000000000000000000000000000000000000000000000000000000000000000000000000000048EF3E
:2B2D5A000000000000000000000000000000000000000000000000000000000000000000000000000000000000C0E3AB
:2B2D85000000000000000000000000000000000000000000000000000000000000000000000000000000000000C0E380
:2B2DB0000000000000000000000000000000000000000000000000000000000000000000000000000000000000C0E355
:2B2DDB000000000000000000000000000000000000000000000000000000000000000000000000000000000000C0E32A
:2B2E06000800000000000000000000000000000000000000000000000000000000000000000000000000000000D0FACF
:2B2E31000000000000000000000000000000000000000000000000000000000000000000000000000000000000C0E3D3
:2B2E5C000000000000000000000000000000000000000000000000000000000000000000000000000000000000C0E3A8
:2B2E8700040000000000000000000000000000000000000000000000000000000000000000000000000000000048EFE5
:2B2EB2000000000000000000000000000000000000000000000000000000000000000000000000000000000000C0E352
:2B2EDD000000000000000000000000000000000000000000000000000000000000000000000000000000000000C0E327
:2B2F08000000000000000000000000000000000000000000000000000000000000000000000000000000000000C0E3FB
:2B2F33000000000000000000000000000000000000000000000000000000000000000000000000000000000000C0E3D0
:2B2F5E000800000000000000000000000000000000000000000000000000000000000000000000000000000000D0FA76
:2B2F89000000000000000000000000000000000000000000000000000000000000000000000000000000000000C0E37A
:2B2FB4000000000000000000000000000000000000000000000000000000000000000000000000000000000000C0E34F
:2B2FDF00040000000000000000000000000000000000000000000000000000000000000000000000000000000048EF8C
:2B300A000000000000000000000000000000000000000000000000000000000000000000000000000000000000C0E3F8
:2B3035000000000000000000000000000000000000000000000000000000000000000000000000000000000000C0E3CD
:2B3060000000000000000000000000000000000000000000000000000000000000000000000000000000000000C0E3A2
:2B308B000000000000000000000000000000000000000000000000000000000000000000000000000000000000C0E377
:2B30B6000800000000000000000000000000000000000000000000000000000000000000000000000000000000D0FA1D
:2B30E1000000000000000000000000000000000000000000000000000000000000000000000000000000000000C0E321
:2B310C000000000000000000000000000000000000000000000000000000000000000000000000000000000000C0E3F5
:2B313700040000000000000000000000000000000000000000000000000000000000000000000000000000000048EF32
:2B3162000000000000000000000000000000000000000000000000000000000000000000000000000000000000C0E39F
:2B318D000000000000000000000000000000000000000000000000000000000000000000000000000000000000C0E374
:2B31B8002000022000022000022000022000022000020000000000044000044000044000044000044000044000C0E3E5
:2B31E3000000000000000000000000000000000000000000000000000000000000000000000000000000000000C0E31E
:2B320E002800022000022000022000022000022000020000000000044000044000044000044000044000044000D0FA5F
:2B3239000000000000000000000000000000000000000000000000000000000000000000000000000000000000C0E3C7
:2B3264002000022000022000022000022000022000020000000000044000044000044000044000044000044000C0E338
:2B328F00040000000000000000000000000000000000000000000000000000000000000000000000000000000048EFD9
:2B32BA002000022000022000022000022000022000020000000000044000044000044000044000044000044000C0E3E2
:2B32E5000000000000000000000000000000000000000000000000000000000000000000000000000000000000C0E31B
:2B3310000000000000000000000000000000000000000000000000000000000000000000000000000000000000C0E3EF
:2B333B000000000000000000000000000000000000000000000000000000000000000000000000000000000000C0E3C4
:2B3366000000000000000000000000000000000000000000000000000000000000000000000000000000000000C0E399
:2B3391000000000000000000000000000000000000000000000000000000000000000000000000000000000000C0E36E
:2B33BC000000000000000000000000000000000000000000000000000000000000000000000000000000000000C0E343
:2B33E7000000000000000000000000000000000000000000000000000000000000000000000000000000000000C0E318
:2B3412000000000000000000000000000000000000000000000000000000000000000000000000000000000000C0E3EC
:2B343D000000000000000000000000000000000000000000000000000000000000000000000000000000000000C0E3C1
:2B3468000000000000000000000000000000000000000000000000000000000000000000000000000000000000C0E396
:2B3493000000000000000000000000000000000000000000000000000000000000000000000000000000000000C0E36B
:2B34BE000000000000000000000000000000000000000000000000000000000000000000000000000000000000C0E340
:2B34E9000000000000000000000000000000000000000000000000000000000000000000000000000000000000C0E315
:2B3514000000000000000000000000000000000000000000000000000000000000000000000000000000000000C0E3E9
:2B353F000000000000000000000000000000000000000000000000000000000000000000000000000000000000C0E3BE
:2B356A000000000000000000000000000000000000000000000000000000000000000000000000000000000000C0E393
:2B3595000000000000000000000000000000000000000000000000000000000000000000000000000000000000C0E368
:2B35C0000000000000000000000000000000000000000000000000000000000000000000000000000000000000C0E33D
:2B35EB000000000000000000000000000000000000000000000000000000000000000000000000000000000000C0E312
:2B3616000000000000000000000000000000000000000000000000000000000000000000000000000000000000C0E3E6
:2B3641000000000000000000000000000000000000000000000000000000000000000000000000000000000000C0E3BB
:2B366C000000000000000000000000000000000000000000000000000000000000000000000000000000000000C0E390
:2B3697000000000000000000000000000000000000000000000000000000000000000000000000000000000000C0E365
:2B36C2000000000000000000000000000000000000000000000000000000000000000000000000000000000000C0E33A
:2B36ED000000000000000000000000000000000000000000000000000000000000000000000000000000000000C0E30F
:2B3718000000000000000000000000000000000000000000000000000000000000000000000000000000000000C0E3E3
:2B3743000000000000000000000000000000000000000000000000000000000000000000000000000000000000C0E3B8
:2B376E000000000000000000000000000000000000000000000000000000000000000000000000000000000000C0E38D
:2B3799000000000000000000000000000000000000000000000000000000000000000000000000000000000000C0E362
:2B37C4000000000000000000000000000000000000000000000000000000000000000000000000000000000000C0E337
:2B37EF000000000000000000000000000000000000000000000000000000000000000000000000000000000000C0E30C
:2B381A000000000000000000000000000000000000000000000000000000000000000000000000000000000000C0E3E0
:2B3845000000000000000000000000000000000000000000000000000000000000000000000000000000000000C0E3B5
:2B3870000000000000000000000000000000000000000000000000000000000000000000000000000000000000C0E38A
:2B389B000000000000000000000000000000000000000000000000000000000000000000000000000000000000C0E35F
:2B38C6000000000000000000000000000000000000000000000000000000000000000000000000000000000000C0E334
:2B38F1000000000000000000000000000000000000000000000000000000000000000000000000000000000000C0E309
:2B391C000000000000000000000000000000000000000000000000000000000000000000000000000000000000C0E3DD
:2B3947000000000000000000000000000000000000000000000000000000000000000000000000000000000000C0E3B2
:2B3972000000000000000000000000000000000000000000000000000000000000000000000000000000000000C0E387
:2B399D000000000000000000000000000000000000000000000000000000000000000000000000000000000000C0E35C
:2B39C8000000000000000000000000000000000000000000000000000000000000000000000000000000000000C0E331
:2B39F3000000000000000000000000000000000000000000000000000000000000000000000000000000000000C0E306
:2B3A1E000000000000000000000000000000000000000000000000000000000000000000000000000000000000C0E3DA
:2B3A49000012200112200112200112200112200112200100000000E0022440022440022440022440022440022440C11B
:2B3A7400000CC0000CC0000CC0000CC0000CC0000CC00000000000900118800118800118800118800118800118C0F207
:023A9F00FFFF27
:00000001FF
