:020000040000FA
:2B000000FFFF62FF3100FFFFFFFFFFFFFFFFFFFFFFFFFFFFFFFFFFFFFFFFFFFFFFFFFFFFFFFFFFFFFFFFFFFFFFFFFF6A
:2B002B00000CC0000CC0000CC0000CC0000CC0000CC00000000000800118802CC8820118800118800118800118C0E3CC
:2B0056000012200112200112200112200112200112200100000000400224400554400224400224400224400224C0E313
:2B0081000000000000000000000000000000000000000000000000000000000000000000000000000000000000C0E3B1
:2B00AC000000000000000000000000000000000000000000000000000000000000000000000000000000000000C0E386
:2B00D7000000000000000000000000000000000000000000000000000000000000000000000000000000000000C0E35B
:2B0102000000000000000000000000000000000000000000000000000000000000000000000000000000000000C0E32F
:2B012D000000000000000000000000000000000000000000000000000000000000000000000000000000000000C0E304
:2B0158000000000000000000000000000000000000000000000000000000000000000000000000000000000000C0E3D9
:2B0183000000000000000000000000000000000000000000000000000000000000000000000000000000000000C0E3AE
:2B01AE000000000000000000000000000000000000000000000000000000000000000000000000000000000000C0E383
:2B01D9000000000000000000000000000000000000000000000000000000000000000000000000000000000000C0E358
:2B0204000000000000000000000000000000000000000000000000000000000000000000000000000000000000C0E32C
:2B022F000000000000000000000000000000000000000000000000000000000000000000000000000000000000C0E301
:2B025A000000000000000000000000000000000000000000000000000000000000000000000000000000000000C0E3D6
:2B0285000000000000000000000000000000000000000000000000000000000000000000000000000000000000C0E3AB
:2B02B0000000000000000000000000000000000000000000000000000000000000000000000000000000000000C0E380
:2B02DB000000000000000000000000000000000000000000000000000000000000000000000000000000000000C0E355
:2B0306000800000000000000000000000000000000000000000000000000000000000000000000000000000000D0FAFA
:2B0331000000000000000000000000000000000000000000000000000000000000000000000000000000000000C0E3FE
:2B035C000000000000000000000000000000000000000000000000000000000000000000000000000000000000C0E3D3
:2B038700040000000000000000000000000000000000000000000000000000000000000000000000000000000048EF10
:2B03B2000000000000000000000000000000000000000000000000000000000000000000000000000000000000C0E37D
:2B03DD000000000000000000000000000000000000000000000000000000000000000000000000000000000000C0E352
:2B0408000000000000000000000000000000000000000000000000000000000000000000000000000000000000C0E326
:2B0433000000000000000000000000000000000000000000000000000000000000000000000000000000000000C0E3FB
:2B045E000800000000000000000000000000000000000000000000000000000000000000000000000000000000D0FAA1
:2B0489000000000000000000000000000000000000000000000000000000000000000000000000000000000000C0E3A5
:2B04B4000000000000000000000000000000000000000000000000000000000000000000000000000000000000C0E37A
:2B04DF00040000000000000000000000000000000000000000000000000000000000000000000000000000000048EFB7
:2B050A000000000000000000000000000000000000000000000000000000000000000000000000000000000000C0E323
:2B0535000000000000000000000000000000000000000000000000000000000000000000000000000000000000C0E3F8
:2B0560000000000000000000000000000000000000000000000000000000000000000000000000000000000000C0E3CD
:2B058B000000000000000000000000000000000000000000000000000000000000000000000000000000000000C0E3A2
:2B05B6000800000000000000000000000000000000000000000000000000000000000000000000000000000000D0FA48
:2B05E1000000000000000000000000000000000000000000000000000000000000000000000000000000000000C0E34C
:2B060C000000000000000000000000000000000000000000000000000000000000000000000000000000000000C0E320
:2B063700040000000000000000000000000000000000000000000000000000000000000000000000000000000048EF5D
:2B0662000000000000000000000000000000000000000000000000000000000000000000000000000000000000C0E3CA
:2B068D000000000000000000000000000000000000000000000000000000000000000000000000000000000000C0E39F
:2B06B8000000000000000000000000000000000000000000000000000000000000000000000000000000000000C0E374
:2B06E3000000000000000000000000000000000000000000000000000000000000000000000000000000000000C0E349
:2B070E000800000000000000000000000000000000000000000000000000000000000000000000000000000000D0FAEE
:2B0739000000000000000000000000000000000000000000000000000000000000000000000000000000000000C0E3F2
:2B0764000000000000000000000000000000000000000000000000000000000000000000000000000000000000C0E3C7
:2B078F00040000000000000000000000000000000000000000000000000000000000000000000000000000000048EF04
:2B07BA000000000000000000000000000000000000000000000000000000000000000000000000000000000000C0E371
:2B07E5000000000000000000000000000000000000000000000000000000000000000000000000000000000000C0E346
:2B0810000000000000000000000000000000000000000000000000000000000000000000000000000000000000C0E31A
:2B083B000000000000000000000000000000000000000000000000000000000000000000000000000000000000C0E3EF
:2B0866000800000000000000000000000000000000000000000000000000000000000000000000000000000000D0FA95
:2B0891000000000000000000000000000000000000000000000000000000000000000000000000000000000000C0E399
:2B08BC000000000000000000000000000000000000000000000000000000000000000000000000000000000000C0E36E
:2B08E700040000000000000000000000000000000000000000000000000000000000000000000000000000000048EFAB
:2B0912000000000000000000000000000000000000000000000000000000000000000000000000000000000000C0E317
:2B093D000000000000000000000000000000000000000000000000000000000000000000000000000000000000C0E3EC
:2B0968000000000000000000000000000000000000000000000000000000000000000000000000000000000000C0E3C1
:2B0993000000000000000000000000000000000000000000000000000000000000000000000000000000000000C0E396
:2B09BE000800000000000000000000000000000000000000000000000000000000000000000000000000000000D0FA3C
:2B09E9000000000000000000000000000000000000000000000000000000000000000000000000000000000000C0E340
:2B0A14000000000000000000000000000000000000000000000000000000000000000000000000000000000000C0E314
:2B0A3F00040000000000000000000000000000000000000000000000000000000000000000000000000000000048EF51
:2B0A6A000000000000000000000000000000000000000000000000000000000000000000000000000000000000C0E3BE
:2B0A95000000000000000000000000000000000000000000000000000000000000000000000000000000000000C0E393
:2B0AC0000000000000000000000000000000000000000000000000000000000000000000000000000000000000C0E368
:2B0AEB000000000000000000000000000000000000000000000000000000000000000000000000000000000000C0E33D
:2B0B16000800000000000000000000000000000000000000000000000000000000000000000000000000000000D0FAE2
:2B0B41000000000000000000000000000000000000000000000000000000000000000000000000000000000000C0E3E6
:2B0B6C000000000000000000000000000000000000000000000000000000000000000000000000000000000000C0E3BB
:2B0B9700040000000000000000000000000000000000000000000000000000000000000000000000000000000048EFF8
:2B0BC2000000000000000000000000000000000000000000000000000000000000000000000000000000000000C0E365
:2B0BED000000000000000000000000000000000000000000000000000000000000000000000000000000000000C0E33A
:2B0C18002000022000022000022000022000022000020000000000044000044000044000044000044000044000C0E3AA
:2B0C43000000000000000000000000000000000000000000000000000000000000000000000000000000000000C0E3E3
:2B0C6E002800022000022000022000022000022000020000000000044000044000044000044000044000044000D0FA25
:2B0C99000000000000000000000000000000000000000000000000000000000000000000000000000000000000C0E38D
:2B0CC4002000022000022000022000022000022000020000000000044000044000044000044000044000044000C0E3FE
:2B0CEF00040000000000000000000000000000000000000000000000000000000000000000000000000000000048EF9F
:2B0D1A002000022000022000022000022000022000020000000000044000044000044000044000044000044000C0E3A7
:2B0D45000000000000000000000000000000000000000000000000000000000000000000000000000000000000C0E3E0
:2B0D70000000000000000000000000000000000000000000000000000000000000000000000000000000000000C0E3B5
:2B0D9B000000000000000000000000000000000000000000000000000000000000000000000000000000000000C0E38A
:2B0DC6000000000000000000000000000000000000000000000000000000000000000000000000000000000000C0E35F
:2B0DF1000000000000000000000000000000000000000000000000000000000000000000000000000000000000C0E334
:2B0E1C000000000000000000000000000000000000000000000000000000000000000000000000000000000000C0E308
:2B0E47000000000000000000000000000000000000000000000000000000000000000000000000000000000000C0E3DD
:2B0E72000000000000000000000000000000000000000000000000000000000000000000000000000000000000C0E3B2
:2B0E9D000000000000000000000000000000000000000000000000000000000000000000000000000000000000C0E387
:2B0EC8000000000000000000000000000000000000000000000000000000000000000000000000000000000000C0E35C
:2B0EF3000000000000000000000000000000000000000000000000000000000000000000000000000000000000C0E331
:2B0F1E000000000000000000000000000000000000000000000000000000000000000000000000000000000000C0E305
:2B0F49000000000000000000000000000000000000000000000000000000000000000000000000000000000000C0E3DA
:2B0F74000000000000000000000000000000000000000000000000000000000000000000000000000000000000C0E3AF
:2B0F9F000000000000000000000000000000000000000000000000000000000000000000000000000000000000C0E384
:2B0FCA000000000000000000000000000000000000000000000000000000000000000000000000000000000000C0E359
:2B0FF5000000000000000000000000000000000000000000000000000000000000000000000000000000000000C0E32E
:2B1020000000000000000000000000000000000000000000000000000000000000000000000000000000000000C0E302
:2B104B000000000000000000000000000000000000000000000000000000000000000000000000000000000000C0E3D7
:2B1076000000000000000000000000000000000000000000000000000000000000000000000000000000000000C0E3AC
:2B10A1000000000000000000000000000000000000000000000000000000000000000000000000000000000000C0E381
:2B10CC000000000000000000000000000000000000000000000000000000000000000000000000000000000000C0E356
:2B10F7000000000000000000000000000000000000000000000000000000000000000000000000000000000000C0E32B
:2B1122000000000000000000000000000000000000000000000000000000000000000000000000000000000000C0E3FF
:2B114D000000000000000000000000000000000000000000000000000000000000000000000000000000000000C0E3D4
:2B1178000000000000000000000000000000000000000000000000000000000000000000000000000000000000C0E3A9
:2B11A3000000000000000000000000000000000000000000000000000000000000000000000000000000000000C0E37E
:2B11CE000000000000000000000000000000000000000000000000000000000000000000000000000000000000C0E353
:2B11F9000000000000000000000000000000000000000000000000000000000000000000000000000000000000C0E328
:2B1224000000000000000000000000000000000000000000000000000000000000000000000000000000000000C0E3FC
:2B124F000000000000000000000000000000000000000000000000000000000000000000000000000000000000C0E3D1
:2B127A000000000000000000000000000000000000000000000000000000000000000000000000000000000000C0E3A6
:2B12A5000000000000000000000000000000000000000000000000000000000000000000000000000000000000C0E37B
:2B12D0000000000000000000000000000000000000000000000000000000000000000000000000000000000000C0E350
:2B12FB000000000000000000000000000000000000000000000000000000000000000000000000000000000000C0E325
:2B1326000000000000000000000000000000000000000000000000000000000000000000000000000000000000C0E3F9
:2B1351000000000000000000000000000000000000000000000000000000000000000000000000000000000000C0E3CE
:2B137C000000000000000000000000000000000000000000000000000000000000000000000000000000000000C0E3A3
:2B13A7000000000000000000000000000000000000000000000000000000000000000000000000000000000000C0E378
:2B13D2000000000000000000000000000000000000000000000000000000000000000000000000000000000000C0E34D
:2B13FD00000000000000000000000000000000000000000000000000000000000000400801000000000000000000F785
:2B1428000000000000000000000000000000000000000000000000000000000000000000000000000000000000C0E3F6
:2B1453000000000000000000000000000000000000000000000000000000000000000082000000000000000000C0C963
:2B147E000000000000000000000000000000000000000000000000000000000000000010000000000000000000C0E291
:2B14A9000000000000000000000000000000000000000000000000000000000000000012000000000000000000C0C086
:2B14D400000000000000000000000000000000000000000000000000000000000000C04000000000000000000000EB02
:2B14FF000000000000000000000000000000000000000000000000000000000000000002000000000000000000C0C13F
:2B152A000000000000000000000000000000000000000000000000000000000000000051000000000000000000C0F78E
:2B1555000000000000000000000000000000000000000000000000000000000000004000000000000000000000A0C5C6
:2B1580000000000000000000000000000000000000000000000000000000000000000000000000000000000000C0E39D
:2B15AB000000000000000000000000000000000000000000000000000000000000000083000000000000000000C0D8FA
:2B15D600080000000000000000000000000000000000000000000000000000000000000B000000000000000000D8C13E
:2B1601000000000000000000000000000000000000000000000000000000000000000008000000000000000000C8EB03
:2B162C00000000000000000000000000000000000000000000000000000000000000C08300000000000000000000D47C
:2B165700040000000000000000000000000000000000000000000000000000000000000000000000000000000058FE0E
:2B168200000000000000000000000000000000000000000000000000000000000000000B01000000000000000040C031
:2B16AD00000000000000000000000000000000000000000000000000000000000000400801000000000000000000F7D2
:2B16D8000000000000000000000000000000000000000000000000000000000000000000000000000000000000C0E344
:2B1703000000000000000000000000000000000000000000000000000000000000000080000000000000000000C0EB90
:2B172E000400000000000000000000000000000000000000000000000000000000000011000000000000000000D0E6C5
:2B1759000C0000000000000000000000000000000000000000000000000000000000000402000000000000000080CF04
:2B178400000000000000000000000000000000000000000000000000000000000000C00100000000000000000000FE7B
:2B17AF00080000000000000000000000000000000000000000000000000000000000004200000000000000000048C5B8
:2B17DA00000000000000000000000000000000000000000000000000000000000000000900000000000000000040F2A9
:2B1805000000000000000000000000000000000000000000000000000000000000004000000000000000000000A0C513
:2B1830000000000000000000000000000000000000000000000000000000000000000000000000000000000000C0E3EA
:2B185B000000000000000000000000000000000000000000000000000000000000000003010000000000000000C0C0DE
:2B188600080000000000000000000000000000000000000000000000000000000000000300000000000000000058C113
:2B18B1000000000000000000000000000000000000000000000000000000000000000008000000000000000000C8EB51
:2B18DC00000000000000000000000000000000000000000000000000000000000000C08300000000000000000000D4CA
:2B190700040000000000000000000000000000000000000000000000000000000000000000000000000000000058FE5B
:2B193200000000000000000000000000000000000000000000000000000000000000008B00000000000000000040D8E7
:2B195D00000000000000000000000000000000000000000000000000000000000000400000000000000000000080E7B8
:2B1988000000000000000000000000000000000000000000000000000000000000000000000000000000000000C0E391
:2B19B3000000000000000000000000000000000000000000000000000000000000000003000000000000000000C0D076
:2B19DE000400000000000000000000000000000000000000000000000000000000000023000000000000000000D0C720
:2B1A09000C0000000000000000000000000000000000000000000000000000000000000800000000000000000040EF6F
:2B1A3400000000000000000000000000000000000000000000000000000000000000C08300000000000000000000D470
:2B1A5F00080000000000000000000000000000000000000000000000000000000000000000000000000000000048E329
:2B1A8A00000000000000000000000000000000000000000000000000000000000000008700000000000000000080D852
:2B1AB500000000000000000000000000000000000000000000000000000000000000400000000000000000000080E75F
:2B1AE0000000000000000000000000000000000000000000000000000000000000000000000000000000000000C0E338
:2B1B0B000000000000000000000000000000000000000000000000000000000000000003000000000000000000C0D01C
:2B1B3600080000000000000000000000000000000000000000000000000000000000000701000000000000000008C0AC
:2B1B61000000000000000000000000000000000000000000000000000000000000000008000000000000000000D8FA7F
:2B1B8C00000000000000000000000000000000000000000000000000000000000000C08300000000000000000000D417
:2B1BB7000400000000000000000000000000000000000000000000000000000000000080000000000000000000D0FEB1
:2B1BE200000000000000000000000000000000000000000000000000000000000000000700000000000000000080D081
:2B1C0D00000000000000000000000000000000000000000000000000000000000000400801000000000000000000F76C
:2B1C38000000000000000000000000000000000000000000000000000000000000000000000000000000000000C0E3DE
:2B1C63000000000000000000000000000000000000000000000000000000000000000082000000000000000000C0C94B
:2B1C8E000400000000000000000000000000000000000000000000000000000000000010000000000000000000D0F750
:2B1CB9000C0000000000000000000000000000000000000000000000000000000000004A00000000000000000040C9A1
:2B1CE400000000000000000000000000000000000000000000000000000000000000C00000000000000000000000EF26
:2B1D0F00080000000000000000000000000000000000000000000000000000000000004200000000000000000048C552
:2B1D3A00000000000000000000000000000000000000000000000000000000000000000500000000000000000080F207
:2B1D65000000000000000000000000000000000000000000000000000000000000004000000000000000000000A0C5AE
:2B1D90000000000000000000000000000000000000000000000000000000000000000000000000000000000000C0E385
:2B1DBB000000000000000000000000000000000000000000000000000000000000000083000000000000000000C0D8E2
:2B1DE600080000000000000000000000000000000000000000000000000000000000000300000000000000000058C1AE
:2B1E11000000000000000000000000000000000000000000000000000000000000000008000000000000000000C8EBEB
:2B1E3C00000000000000000000000000000000000000000000000000000000000000C08300000000000000000000D464
:2B1E6700040000000000000000000000000000000000000000000000000000000000000000000000000000000058FEF6
:2B1E92000000000000000000000000000000000000000000000000000000000000000003020000000000000000C0F070
:2B1EBD000000000000000000000000000000000000000000000000000000000000000000000000000000000000C0E357
:2B1EE8002000022000022000022000022000022000020000000000044000044000044000044000044000044000C0E3C8
:2B1F13000000000000000000000000000000000000000000000000000000000000000000000000000000000000C0E300
:2B1F3E00240002200002200002200002200002200002000000000004400004400004400004400004400004400048EFD9
:2B1F69000C0000000000000000000000000000000000000000000000000000000000000000000000000000000058F6F3
:2B1F94002000022000022000022000022000022000020000000000044000044000044000044000044000044000C0E31B
:2B1FBF000800000000000000000000000000000000000000000000000000000000000000000000000000000000D0FA25
:2B1FEA002000022000022000022000022000022000020000000000044000044000044000044000044000044000C0E3C5
:2B2015000000000000000000000000000000000000000000000000000000000000000000000000000000000000C0E3FD
:2B2040000000000000000000000000000000000000000000000000000000000000000000000000000000000000C0E3D2
:2B206B000000000000000000000000000000000000000000000000000000000000000000000000000000000000C0E3A7
:2B2096000000000000000000000000000000000000000000000000000000000000000040000000000000000000C0E738
:2B20C1000000000000000000000000000000000000000000000000000000000000000000000000000000000000E0C153
:2B20EC000000000000000000000000000000000000000000000000000000000000000000000000000000000000C0E326
:2B2117000000000000000000000000000000000000000000000000000000000000000000000000000000000000C0E3FA
:2B214200000000000000000000000000000000000000000000000000000000000000000000000000000000000048EB3F
:2B216D000000000000000000000000000000000000000000000000000000000000000000000000000000000000C0E3A4
:2B219800000000000000000000000000000000000000000000000000000000000000000400000000000000000080E3B5
:2B21C3000000000000000000000000000000000000000000000000000000000000000000000000000000000000C0E34E
:2B21EE00000000000000000000000000000000000000000000000000000000000000000000000000000000000068C995
:2B2219000000000000000000000000000000000000000000000000000000000000000081000000000000000000C0FA5F
:2B2244000000000000000000000000000000000000000000000000000000000000000000000000000000000000C0E3CC
:2B226F00000000000000000000000000000000000000000000000000000000000000800001000000000000000040FB88
:2B229A000000000000000000000000000000000000000000000000000000000880000000000000000000000000C0E3EE
:2B22C5000000000000000000000000000000000000000000000000000000002000020000000000000000000000C0E329
:2B22F0000000000000000000000000000000000000000000000000000000000000000000000000000000000000C0E320
:2B231B000000000000000000000000000000000000000000000000000000000000000002000000000000000000C0C114
:2B2346000000000000000000000000000000000000000000000000000000000000000001000000000000000000C0F2B9
:2B2371000000000000000000000000000000000000000000000000000000000000000001000000000000000000C0F28E
:2B239C00000000000000000000000000000000000000000000000000000000000000802201000000000000000040DB58
:2B23C700000000000000000000000000000000000000000000000000000000800000000100000000000000000040FA30
:2B23F2000000000000000000000000000000000000000000000000000000000000000000000000000000000000C0E31D
:2B241D000A00000000000000000000000000000000000000000000000000008000008000000000000000000000C0E9E1
:2B244800000000000000000000000000000000000000000000000000000000008000000000000000000000000048E3BE
:2B2473000000000000000000000000000000000000000000000000000000000040000000000000000000000000C0E757
:2B249E000000000000000000000000000000000000000000000000000000000000000000000000000000000000C0E370
:2B24C9000000000000000000000000000000000000000000000000000000000000000000000000000000000000C0E345
:2B24F4000000000000000000000000000000000000000000000000000000000000000080000000000000000000C0EB92
:2B251F000000000000000000000000000000000000000000000000000000000000000000000000000000000000C0E3EE
:2B254A000000000000000000000000000000000000000000000000000000000000000000000000000000000000C0E3C3
:2B2575000A00000000000000000000000000000000000000000000000000000000000000000000000000000000A4CFBE
:2B25A0000000000000000000000000000000000000000000000000000000000000000000000000000000000000C0E36D
:2B25CB00000000000000000000000000000000000000000000000000000000000000400000000000000000000080E73E
:2B25F600000000000000000000000000000000000000000000000000000000000000000000000000000000000048EB87
:2B262100000000000000000000000000000000000000000000000000000000000000800002000000000000000040CB01
:2B264C000000000000000000000000000000000000000000000000000000000000000000000000000000000000C0E3C0
:2B2677000000000000000000000000000000000000000000000000000000000000000000000000000000000000C0E395
:2B26A200000000000000000000000000000000000000000000000000000000000000000800000000000000000040E3E2
:2B26CD000000000000000000000000000000000000000000000000000000000000000000000000000000000000C0E33F
:2B26F8000000000000000000000000000000000000000000000000000000000000000000000000000000000000C0E314
:2B2723000000000000000000000000000000000000000000000000000000000000000000000000000000000000C0E3E8
:2B274E000000000000000000000000000000000000000000000000000000000000000000000000000000000000C0E3BD
:2B2779000000000000000000000000000000000000000000000000000000000000000000000000000000000000C0E392
:2B27A4000000000000000000000000000000000000000000000000000000000000000000000000000000000000C0E367
:2B27CF000000000000000000000000000000000000000000000000000000000000000000000000000000000000C0E33C
:2B27FA000000000000000000000000000000000000000000000000000000000000000000000000000000000000C0E311
:2B2825000000000000000000000000000000000000000000000000000000000000000000000000000000000000C0E3E5
:2B2850000000000000000000000000000000000000000000000000000000000000000000000000000000000000C0E3BA
:2B287B000000000000000000000000000000000000000000000000000000000000000000000000000000000000C0E38F
:2B28A6000800000000000000000000000000000000000000000000000000000000000000000000000000000000D0FA35
:2B28D1000000000000000000000000000000000000000000000000000000000000000000000000000000000000C0E339
:2B28FC000000000000000000000000000000000000000000000000000000000000000000000000000000000000C0E30E
:2B292700040000000000000000000000000000000000000000000000000000000000000000000000000000000048EF4A
:2B2952000000000000000000000000000000000000000000000000000000000000000000000000000000000000C0E3B7
:2B297D000000000000000000000000000000000000000000000000000000442000000000000000000000000000E0E506
:2B29A8000000000000000000000000000000000000000000000000000000000000000000000000000000000000C0E361
:2B29D3000000000000000000000000000000000000000000000000000000200000000000000000000000000000C0C138
:2B29FE000400000000000000000000000000000000000000000000000000800800000000000000000000000000D8F654
:2B2A29000C0000000000000000000000000000000000000000000000000060040000000000000000000000000008C149
:2B2A540000000000000000000000000000000000000000000000000000000C000000000000000000000000000000EF5C
:2B2A7F00080000000000000000000000000000000000000000000000000020040000000000000000000000000058D4D4
:2B2AAA000000000000000000000000000000000000000000000000000000100000000000000000000000000000C0F23F
:2B2AD5000000000000000000000000000000000000000000000000000000000000000000000000000000000000C0E333
:2B2B00000000000000000000000000000000000000000000000000000000000000000000000000000000000000C0E307
:2B2B2B000000000000000000000000000000000000000000000000000000000000000000000000000000000000C0E3DC
:2B2B56000800000000000000000000000000000000000000000000000000000000000000000000000000000000D0FA82
:2B2B81000000000000000000000000000000000000000000000000000000000000000000000000000000000000C0E386
:2B2BAC000000000000000000000000000000000000000000000000000000000000000000000000000000000000C0E35B
:2B2BD700040000000000000000000000000000000000000000000000000000000000000000000000000000000048EF98
:2B2C02000000000000000000000000000000000000000000000000000000000000000000000000000000000000C0E304
:2B2C2D000000000000000000000000000000000000000000000000000000000000000000000000000000000000C0E3D9
:2B2C58000000000000000000000000000000000000000000000000000000000000000000000000000000000000C0E3AE
:2B2C83000000000000000000000000000000000000000000000000000000000000000000000000000000000000C0E383
:2B2CAE000800000000000000000000000000000000000000000000000000000000000000000000000000000000D0FA29
:2B2CD9000000000000000000000000000000000000000000000000000000000000000000000000000000000000C0E32D
:2B2D04000000000000000000000000000000000000000000000000000000000000000000000000000000000000C0E301
:2B2D2F00040000000000000000000000000000000000000000000000000000000000000000000000000000000048EF3E
:2B2D5A000000000000000000000000000000000000000000000000000000000000000000000000000000000000C0E3AB
:2B2D8500000000000000000000000000000000000000000000000000000004000000000000000000000000000080E7B8
:2B2DB0000000000000000000000000000000000000000000000000000000000000000000000000000000000000C0E355
:2B2DDB000000000000000000000000000000000000000000000000000000300800000000000000000000000000C0D8FD
:2B2E06000800000000000000000000000000000000000000000000000000B0000000000000000000000000000050C9D0
:2B2E3100000000000000000000000000000000000000000000000000000080000000000000000000000000000040E3D3
:2B2E5C0000000000000000000000000000000000000000000000000000003C080000000000000000000000000000D433
:2B2E8700040000000000000000000000000000000000000000000000000000100000000000000000000000000048FFC5
:2B2EB2000000000000000000000000000000000000000000000000000000300000000000000000000000000000C0D035
:2B2EDD00000000000000000000000000000000000000000000000000000004000000000000000000000000000080E75F
:2B2F08000000000000000000000000000000000000000000000000000000000000000000000000000000000000C0E3FB
:2B2F33000000000000000000000000000000000000000000000000000000300800000000000000000000000000C0D8A3
:2B2F5E00040000000000000000000000000000000000000000000000000070000000000000000000000000000090C57F
:2B2F89000C0000000000000000000000000000000000000000000000000080000000000000000000000000000040EF62
:2B2FB40000000000000000000000000000000000000000000000000000003C080000000000000000000000000000D4DA
:2B2FDF00080000000000000000000000000000000000000000000000000000080000000000000000000000000048EB84
:2B300A000000000000000000000000000000000000000000000000000000300100000000000000000000000000C0D1D9
:2B303500000000000000000000000000000000000000000000000000000004000000000000000000000000000080E705
:2B3060000000000000000000000000000000000000000000000000000000000000000000000000000000000000C0E3A2
:2B308B000000000000000000000000000000000000000000000000000000300000000000000000000000000000C0D05A
:2B30B600040000000000000000000000000000000000000000000000000070080000000000000000000000000090CD16
:2B30E1000C0000000000000000000000000000000000000000000000000080000000000000000000000000000040EF09
:2B310C0000000000000000000000000000000000000000000000000000003C080000000000000000000000000000D480
:2B313700080000000000000000000000000000000000000000000000000000000000000000000000000000000048E33A
:2B3162000000000000000000000000000000000000000000000000000000300200000000000000000000000000C0D27E
:2B318D000000000000000000000000000000000000000000000000000000000000000000000000000000000000C0E374
:2B31B8002000022000022000022000022000022000020000000000044000044000044000044000044000044000C0E3E5
:2B31E3000000000000000000000000000000000000000000000000000000000000000000000000000000000000C0E31E
:2B320E002400022000022000022000022000022000020000000000044000044000044000044000044000044000D0F667
:2B3239000C00000000000000000000000000000000000000000000000000000000000000000000000000000000C0EFAF
:2B3264002000022000022000022000022000022000020000000000044000044000044000044000044000044000C0E338
:2B328F00080000000000000000000000000000000000000000000000000000000000000000000000000000000048E3E1
:2B32BA002000022000022000022000022000022000020000000000044000044000044000044000044000044000C0E3E2
:2B32E5000000000000000000000000000000000000000000000000000000000000000000000000000000000000C0E31B
:2B3310000000000000000000000000000000000000000000000000000000000000000000000000000000000000C0E3EF
:2B333B000000000000000000000000000000000000000000000000000000000000000000000000000000000000C0E3C4
:2B3366000000000000000000000000000000000000000000000000000000000000000000000000000000000000D0F27A
:2B3391000000000000000000000000000000000000000000000000000000000000000000000000000000000000C0E36E
:2B33BC000000000000000000000000000000000000000000000000000000000000000000000000000000000000C0E343
:2B33E7000000000000000000000000000000000000000000000000000000000000000000000000000000000000C0E318
:2B3412000000000000000000000000000000000000000000000000000000000000000000000000000000000000C0E3EC
:2B343D000000000000000000000000000000000000000000000000000000000000000000000000000000000000C0E3C1
:2B3468000000000000000000000000000000000000000000000000000000000000000000000000000000000000C0E396
:2B3493000000000000000000000000000000000000000000000000000000000000000000000000000000000000C0E36B
:2B34BE000000000000000000000000000000000000000000000000000000000000000000000000000000000000C0E340
:2B34E9000000000000000000000000000000000000000000000000000000000000000000000000000000000000C0E315
:2B3514000000000000000000000000000000000000000000000000000000000000000000000000000000000000C0E3E9
:2B353F000000000000000000000000000000000000000000000000000000000000000000000000000000000000C0E3BE
:2B356A0000000000000000000000000000000000000000000000000000000000A0000000000000000000000000C0E9ED
:2B3595000000000000000000000000000000000000000000000000000000000080000000000000000000000000C0EBE0
:2B35C0000000000000000000000000000000000000000000000000000000000000000000000000000000000000C0E33D
:2B35EB000000000000000000000000000000000000000000000000000000200000000000000000000000000000C0C114
:2B361600000000000000000000000000000000000000000000000000000060000000000000000000000000000080C1E8
:2B364100000000000000000000000000000000000000000000000000000014200000000000000000000000000080D6D4
:2B366C000000000000000000000000000000000000000000000000000000100000000000000000000000000000C0F271
:2B3697000000000000000000000000000000000000000000000000000000000000000000000000000000000000C0E365
:2B36C2000000000000000000000000000000000000000000000000000000000000000000000000000000000000C0E33A
:2B36ED000800000000000000000000000000000000000000000000000000000001000000000000000000000000C0FAEF
:2B371800000000000000000000000000000000000000000000000000000000000800000000000000000000000040E35B
:2B3743000000000000000000000000000000000000000000000000000000000000000000000000000000000000C0E3B8
:2B376E000000000000000000000000000000000000000000000000000000000000000000000000000000000000C0E38D
:2B379900000000000000000000000000000000000000000000000000000008000000000000000000000000000040EBD2
:2B37C4000000000000000000000000000000000000000000000000000000000000000000000000000000000000C0E337
:2B37EF000000000000000000000000000000000000000000000000000000000000000000000000000000000000C0E30C
:2B381A000000000000000000000000000000000000000000000000000000000000000000000000000000000000C0E3E0
:2B3845000E00000000000000000000000000000000000000000000000000000000000000000000000000000000C0ED9D
:2B3870000000000000000000000000000000000000000000000000000000000000000000000000000000000000C0E38A
:2B389B000000000000000000000000000000000000000000000000000000000000000000000000000000000000C0E35F
:2B38C6000000000000000000000000000000000000000000000000000000000000000000000000000000000000C0E334
:2B38F1000000000000000000000000000000000000000000000000000000000000000000000000000000000000C0E309
:2B391C000000000000000000000000000000000000000000000000000000000000000000000000000000000000C0E3DD
:2B3947000000000000000000000000000000000000000000000000000000000000000000000000000000000000C0E3B2
:2B397200000000000000000000000000000000000000000000000000000080000000000000000000000000000040E387
:2B399D000000000000000000000000000000000000000000000000000000000000000000000000000000000000C0E35C
:2B39C8000000000000000000000000000000000000000000000000000000000000000000000000000000000000C0E331
:2B39F3000000000000000000000000000000000000000000000000000000000000000000000000000000000000C0E306
:2B3A1E000000000000000000000000000000000000000000000000000000000000000000000000000000000000C0E3DA
:2B3A49000012200112200112200112200112200112200100000000400224400254400224400224400224400224C0E4E8
:2B3A7400000CC0000CC0000CC0000CC0000CC0000CC000000000008001188001C8820118800118800118800118C0CE89
:023A9F00FFFF27
:00000001FF
