:020000040000FA
:2B000000FFFF62FF3100FFFFFFFFFFFFFFFFFFFFFFFFFFFFFFFFFFFFFFFFFFFFFFFFFFFFFFFFFFFFFFFFFFFFFFFFFF6A
:2B002B00000CC0000CC0000CC0000CC0040CC0000CC00000000000800118800118800118800118800118800118C0E7A1
:2B0056000012200112200112200112A0031220011220010000000040022440022440022440022440022440022440E146
:2B0081000000000000000000000000000000000000000000000000000000000000000000000000000000000000C0E3B1
:2B00AC000000000000000000000000000000000000000000000000000000000000000000000000000000000000C0E386
:2B00D7000000000000000000000000000200000000000000000000000000000000000000000000000000000000C0E15B
:2B010200000000000000000000000080040000000000000000000000000000000000000000000000000000000040E727
:2B012D000000000000000000000000000000000000000000000000000000000000000000000000000000000000C0E304
:2B0158000000000000000000000000000000000000000000000000000000000000000000000000000000000000C0E3D9
:2B0183000000000000000000000000000000000000000000000000000000000000000000000000000000000000C0E3AE
:2B01AE000000000000000000000000000000000000000000000000000000000000000000000000000000000000C0E383
:2B01D9000000000000000000000000000000000000000000000000000000000000000000000000000000000000C0E358
:2B0204000000000000000000000000000000000000000000000000000000000000000000000000000000000000C0E32C
:2B022F000000000000000000000000000000000000000000000000000000000000000000000000000000000000C0E301
:2B025A000000000000000000000000000000000000000000000000000000000000000000000000000000000000C0E3D6
:2B0285000000000000000000000000000000000000000000000000000000000000000000000000000000000000C0E3AB
:2B02B0000000000000000000000000000000000000000000000000000000000000000000000000000000000000C0E380
:2B02DB000000000000000000000000000000000000000000000000000000000000000000000000000000000000C0E355
:2B0306000800000000000000000000000000000000000000000000000000000000000000000000000000000000D0FAFA
:2B0331000000000000000000000000000000000000000000000000000000000000000000000000000000000000C0E3FE
:2B035C000000000000000000000000000000000000000000000000000000000000000000000000000000000000C0E3D3
:2B038700040000000000000000000000000000000000000000000000000000000000000000000000000000000048EF10
:2B03B2000000000000000000000000000000000000000000000000000000000000000000000000000000000000C0E37D
:2B03DD000000000000000000000000000000000000000000000000000000000000000000000000000000000000C0E352
:2B0408000000000000000000000000000000000000000000000000000000000000000000000000000000000000C0E326
:2B0433000000000000000000000000000000000000000000000000000000000000000000000000000000000000C0E3FB
:2B045E000800000000000000000000000000000000000000000000000000000000000000000000000000000000D0FAA1
:2B0489000000000000000000000000000000000000000000000000000000000000000000000000000000000000C0E3A5
:2B04B4000000000000000000000000000000000000000000000000000000000000000000000000000000000000C0E37A
:2B04DF00040000000000000000000000000000000000000000000000000000000000000000000000000000000048EFB7
:2B050A000000000000000000000000000000000000000000000000000000000000000000000000000000000000C0E323
:2B0535000000000000000000000000000000000000000000000000000000000000000000000000000000000000C0E3F8
:2B0560000000000000000000000000000000000000000000000000000000000000000000000000000000000000C0E3CD
:2B058B000000000000000000000000000000000000000000000000000000000000000000000000000000000000C0E3A2
:2B05B6000800000000000000000000000000000000000000000000000000000000000000000000000000000000D0FA48
:2B05E1000000000000000000000000000000000000000000000000000000000000000000000000000000000000C0E34C
:2B060C000000000000000000000000000000000000000000000000000000000000000000000000000000000000C0E320
:2B063700040000000000000000000000000000000000000000000000000000000000000000000000000000000048EF5D
:2B0662000000000000000000000000000000000000000000000000000000000000000000000000000000000000C0E3CA
:2B068D000000000000000000000000000000000000000000000000000000000000000000000000000000000000C0E39F
:2B06B8000000000000000000000000000000000000000000000000000000000000000000000000000000000000C0E374
:2B06E3000000000000000000000000000000000000000000000000000000000000000000000000000000000000C0E349
:2B070E000800000000000000000000000000000000000000000000000000000000000000000000000000000000D0FAEE
:2B0739000000000000000000000000000000000000000000000000000000000000000000000000000000000000C0E3F2
:2B0764000000000000000000000000000000000000000000000000000000000000000000000000000000000000C0E3C7
:2B078F00040000000000000000000000000000000000000000000000000000000000000000000000000000000048EF04
:2B07BA000000000000000000000000000000000000000000000000000000000000000000000000000000000000C0E371
:2B07E5000000000000000000000000000000000000000000000000000000000000000000000000000000000000C0E346
:2B0810000000000000000000000000000000000000000000000000000000000000000000000000000000000000C0E31A
:2B083B000000000000000000000000000000000000000000000000000000000000000000000000000000000000C0E3EF
:2B0866000800000000000000000000000000000000000000000000000000000000000000000000000000000000D0FA95
:2B0891000000000000000000000000000000000000000000000000000000000000000000000000000000000000C0E399
:2B08BC000000000000000000000000000000000000000000000000000000000000000000000000000000000000C0E36E
:2B08E700040000000000000000000000000000000000000000000000000000000000000000000000000000000048EFAB
:2B0912000000000000000000000000000000000000000000000000000000000000000000000000000000000000C0E317
:2B093D000000000000000000000000000000000000000000000000000000000000000000000000000000000000C0E3EC
:2B0968000000000000000000000000000000000000000000000000000000000000000000000000000000000000C0E3C1
:2B0993000000000000000000000000000000000000000000000000000000000000000000000000000000000000C0E396
:2B09BE000800000000000000000000000000000000000000000000000000000000000000000000000000000000D0FA3C
:2B09E9000000000000000000000000000000000000000000000000000000000000000000000000000000000000C0E340
:2B0A14000000000000000000000000000000000000000000000000000000000000000000000000000000000000C0E314
:2B0A3F00040000000000000000000000000000000000000000000000000000000000000000000000000000000048EF51
:2B0A6A000000000000000000000000000000000000000000000000000000000000000000000000000000000000C0E3BE
:2B0A95000000000000000000000000000000000000000000000000000000000000000000000000000000000000C0E393
:2B0AC0000000000000000000000000000000000000000000000000000000000000000000000000000000000000C0E368
:2B0AEB000000000000000000000000000000000000000000000000000000000000000000000000000000000000C0E33D
:2B0B16000800000000000000000000000000000000000000000000000000000000000000000000000000000000D0FAE2
:2B0B41000000000000000000000000000000000000000000000000000000000000000000000000000000000000C0E3E6
:2B0B6C000000000000000000000000000000000000000000000000000000000000000000000000000000000000C0E3BB
:2B0B9700040000000000000000000000000000000000000000000000000000000000000000000000000000000048EFF8
:2B0BC2000000000000000000000000000000000000000000000000000000000000000000000000000000000000C0E365
:2B0BED000000000000000000000000000000000000000000000000000000000000000000000000000000000000C0E33A
:2B0C18002000022000022000022000022000022000020000000000044000044000044000044000044000044000C0E3AA
:2B0C43000000000000000000000000000000000000000000000000000000000000000000000000000000000000C0E3E3
:2B0C6E002800022000022000022000022000022000020000000000044000044000044000044000044000044000D0FA25
:2B0C99000000000000000000000000000000000000000000000000000000000000000000000000000000000000C0E38D
:2B0CC4002000022000022000022000022000022000020000000000044000044000044000044000044000044000C0E3FE
:2B0CEF00040000000000000000000000000000000000000000000000000000000000000000000000000000000048EF9F
:2B0D1A002000022000022000022000022000022000020000000000044000044000044000044000044000044000C0E3A7
:2B0D45000000000000000000000000000000000000000000000000000000000000000000000000000000000000C0E3E0
:2B0D70000000000000000000000000000000000000000000000000000000000000000000000000000000000000C0E3B5
:2B0D9B000000000000000000000000000000000000000000000000000000000000000000000000000000000000C0E38A
:2B0DC6000000000000000000000000000000000000000000000000000000000000000000000000000000000000C0E35F
:2B0DF1000000000000000000000000000000000000000000000000000000000000000000000000000000000000C0E334
:2B0E1C000000000000000000000000000000000000000000000000000000000000000000000000000000000000C0E308
:2B0E47000000000000000000000000000000000000000000000000000000000000000000000000000000000000C0E3DD
:2B0E72000000000000000000000000000000000000000000000000000000000000000000000000000000000000C0E3B2
:2B0E9D000000000000000000000000000000000000000000000000000000000000000000000000000000000000C0E387
:2B0EC8000000000000000000000000000000000000000000000000000000000000000000000000000000000000C0E35C
:2B0EF3000000000000000000000000000000000000000000000000000000000000000000000000000000000000C0E331
:2B0F1E000000000000000000000000000000000000000000000000000000000000000000000000000000000000C0E305
:2B0F49000000000000000000000000000000000000000000000000000000000000000000000000000000000000C0E3DA
:2B0F74000000000000000000000000000000000000000000000000000000000000000000000000000000000000C0E3AF
:2B0F9F000000000000000000000000000000000000000000000000000000000000000000000000000000000000C0E384
:2B0FCA000000000000000000000000000000000000000000000000000000000000000000000000000000000000C0E359
:2B0FF5000000000000000000000000000000000000000000000000000000000000000000000000000000000000C0E32E
:2B1020000000000000000000000000000000000000000000000000000000000000000000000000000000000000C0E302
:2B104B000000000000000000000000000000000000000000000000000000000000000000000000000000000000C0E3D7
:2B1076000000000000000000000000000000000000000000000000000000000000000000000000000000000000C0E3AC
:2B10A1000000000000000000000000000000000000000000000000000000000000000000000000000000000000C0E381
:2B10CC000000000000000000000000000000000000000000000000000000000000000000000000000000000000C0E356
:2B10F7000000000000000000000000000000000000000000000000000000000000000000000000000000000000C0E32B
:2B1122000000000000000000000000000000000000000000000000000000000000000000000000000000000000C0E3FF
:2B114D000000000000000000000000000000000000000000000000000000000000000000000000000000000000C0E3D4
:2B1178000000000000000000000000000000000000000000000000000000000000000000000000000000000000C0E3A9
:2B11A3000000000000000000000000000000000000000000000000000000000000000000000000000000000000C0E37E
:2B11CE000000000000000000000000000000000000000000000000000000000000000000000000000000000000C0E353
:2B11F9000000000000000000000000000000000000000000000000000000000000000000000000000000000000C0E328
:2B1224000000000000000000000000000000000000000000000000000000000000000000000000000000000000C0E3FC
:2B124F000000000000000000000000000000000000000000000000000000000000000000000000000000000000C0E3D1
:2B127A000000000000000000000000000000000000000000000000000000000000000000000000000000000000C0E3A6
:2B12A5000000000000000000000000000000000000000000000000000000000000000000000000000000000000C0E37B
:2B12D0000000000000000000000000000000000000000000000000000000000000000000000000000000000000C0E350
:2B12FB000000000000000000000000000000000000000000000000000000000000000000000000000000000000C0E325
:2B1326000000000000000000000000000000000000000000000000000000000000000000000000000000000000C0E3F9
:2B1351000000000000000000000000000000000000000000000000000000000000000000000000000000000000C0E3CE
:2B137C000000000000000000000000000000000000000000000000000000000000000000000000000000000000C0E3A3
:2B13A7000000000000000000000000000000000000000000000000000000000000000000000000000000000000C0E378
:2B13D2000000000000000000000000000000000000000000000000000000000000000000000000000000000000C0E34D
:2B13FD000000000000000000002000000000000000000000000000044000246003044000344023004006064000C0F6BD
:2B1428000000000000000000000000000000000000000000000000000000000000000082000000000000300000C0FA2D
:2B145300000000000000000000800100000000000000000000000030000300000031000100080001008100100340EAC1
:2B147E000000000000000000008001000000000000000000000000300003202007300028B0000B00000A00000300EB3D
:2B14A900000000000000000000800500000000000000000000000030038B200453300213701005020092402093C0C18C
:2B14D400000000000000000000E0410000000000000000000000003CC0033CC0033CC0410CC00100C0010CC003C0C3B1
:2B14FF000000000000000000000000000000000000000000000000000403010803300082000802010003010080C0F7B7
:2B152A00000000000000000000008400000000000000000000000080000710014730110330010600000600021000DFC1
:2B155500000000000000000000000000000000000000000000000034480000402344480856480000000034400980FE5F
:2B1580000000000000000000000000000000000000000000000000000000000001000002200082000000000000C1C812
:2B15AB000000000000000000000000000000000000000000000000200003000002110001100801000000001040C0DCD9
:2B15D600080000000000000000000000000000000000000000000020020300000780022890002800000000000208F258
:2B160100000000000000000000000000000000000000000000000090008B00005360000B601004020000402082D8EFC6
:2B162C0000000000000000000000000000000000000000000000001CD00300C0031CC4412CC0000000000CC00300FF06
:2B1657000400000000000000000000000000000000000000000000300800010003200082100801000000000003D0DDBD
:2B168200000000000000000000000000000000000000000000000000010400004730110320010A020000000249C0F283
:2B16AD00100000000000000000000000000000000000000000000014430802400004610994400000000004400980F55D
:2B16D8000000000000000000000000000000000000000000000000200000000000000000010880000000000000C1C1BC
:2B1703000000000000000000000000000000000000000000000000100802010003000000000002000000301040C0FE5D
:2B172E000C00000000000000000000000000000000000000000000100100000003A0022A60109000000000000290C44E
:2B175900040000000000000000000000000000000000000000000060000A00003060200210114A00000040208280E890
:2B17840000000000000000000000000000000000000000000000002CD04000C0001CC0430CC0000000000CC00300CCB8
:2B17AF000C0000000000000000000000000000000000000000000020000200000030008300000200000000000348FEE3
:2B17DA00000000000000000000000000000000000000000000000010114900008410110120105100000000024980DEAA
:2B180500000000000000000000000000000000000000000000000004408400400384401175482100000004405120C283
:2B1830000000000000000000000000000000000000000000000000000000000000000800200001000000000000C0D8CC
:2B185B000000000000000000000000000000000000000000000000000881000003210001300802010000001083C0C066
:2B1886000800000000000000000000000000000000000000000000300110000004400886B00006000000000012D8D1AB
:2B18B100000000000000000000000000000000000000000000000070004A00003320014A2001040200004020110AD83A
:2B18DC0000000000000000000000000000000000000000000000000CD00100C0000CC4030CC8030000000CC00300D1FA
:2B190700040000000000000000000000000000000000000000000030000201000020000300080300000030000358D5F0
:2B193200000000000000000000000000000000000000000000000030110700008790042300010401000000028540E750
:2B195D00100000000000000000000000000000000000000000000004401002400004400094400500000004400040D642
:2B1988000000000000000000000000000000000000000000000000000000000000000000000880000000000000C0E309
:2B19B3000000000000000000000000000000000000000000000000300080000003300083000001010000001003C0C10D
:2B19DE000C00000000000000000000000000000000000000000000300012000003800804A0101200000000001091D5C9
:2B1A09000400000000000000000000000000000000000000000000B0004600001300024710114600000040203340C35F
:2B1A340000000000000000000000000000000000000000000000003CD00100C0433CC0000CC0030000000CC00000EAF6
:2B1A5F000C0000000000000000000000000000000000000000000000080301000331004310008300000000000348F2FD
:2B1A8A00000000000000000000000000000000000000000000000000010500000B30110B401013000000300253C0F438
:2B1AB5000000000000000000000000000000000000000000000000044006024009344000244084000000044009A0DE4A
:2B1AE0000000000000000000000000000000000000000000000000000000000080000000000800000000000000C1F39F
:2B1B0B000000000000000000000000000000000000000000000000300881000000000003300401010000001080C0DC91
:2B1B3600080000000000000000000000000000000000000000000080000A00004A00100022011000000000000698C601
:2B1B6100000000000000000000000000000000000000000000000080000A00001130025320094200000040201208D084
:2B1B8C0000000000000000000000000000000000000000000000003CD08100C0403CC0001CC0010000003CC00301F2D6
:2B1BB700040000000000000000000000000000000000000000000030080300000001000330008200000000004358FB78
:2B1BE200000000000000000000000000000000000000000000000030014200000A30110731051300000000020980C37C
:2B1C0D00100000000000000000204800000082080000000000000064600605400034400616400904000004400040FA40
:2B1C3800000000000000000000800000000000000000000000000000000000000000000000080001000000000040F3C5
:2B1C6300000000000000000000000000000008000000000000000010008330000300000130000330000000100040F3E1
:2B1C8E000C0000000000000000008400000000010000000000000020091130000300119210044930000000000010C528
:2B1CB9000400000000000000000000000000580800000000000000200009310933B0100660200670200070204040FA20
:2B1CE40000000000000000000060400000000600000000000000001CD0003CC0033CC0413CC0433C00000CC00000FBC5
:2B1D0F000C0000000000000000000000000000000000000000000030000000000000008320000230000000008348E7E6
:2B1D3A000000000000000000000048000000301000000000000000200285802084B0020270044330090000020740CD71
:2B1D6500000000000000000000000000000000000000000000000084480004400305400024401106000004402020FEFE
:2B1D90000000000000000000000000000000000000000000000000200000000002000000000800300000000000C0D836
:2B1DBB000000000000000000000000000000000000000000000000100003300001310000300000310000001000C1D086
:2B1DE6000800000000000000000000000000000000000000000000301103300007300000200210B0020030000818F3F8
:2B1E1100000000000000000000000000000000000000000000000010020B31005330023020020A7220004020040ADD9A
:2B1E3C0000000000000000000000000000000000000000000000000CC0033CD0033CC0001CC0033C00000CC00200CCEC
:2B1E6700040000000000000000000000000000000000000000000010000030080300000330008230000000000159FFC3
:2B1E92000000000000000000000000000000000000000000000000802040B00047001187B0041130090000020400F6BC
:2B1EBD000000000000000000000000000000000000000000000000000000000000000000000000000000000000C0E357
:2B1EE8002000022000022000022000022000022000020000000000044000044000044000044000044000044000C0E3C8
:2B1F13000000000000000000000000000000000000000000000000000000000000000000000000000000000000C0E300
:2B1F3E00240002200002200002200002200002200002000000000004400004400004400004400004400004400048EFD9
:2B1F69000C0000000000000000000000000000000000000000000000000000000000000000000000000000000058F6F3
:2B1F94002000022000022000022000022000022000020000000000044000044000044000044000044000044000C0E31B
:2B1FBF000800000000000000000000000000000000000000000000000000000000000000000000000000000000D0FA25
:2B1FEA002000022000022000022000022000022000020000000000044000044000044000044000044000044000C0E3C5
:2B2015000000000000000000000000000000000000000000000000000000000000000000000000000000000000C0E3FD
:2B2040000000000000000000000000000000000000000000000000000000000000000000000000000000000000C0E3D2
:2B206B00000000000000000000000000000000000000000000000000000008000800000008000021000000000040D100
:2B2096000000000000000000000000000000000000000000000000000000000000000000000000020000000000C0C39A
:2B20C1000000000000000000000001000000000000000000000000000002000000000000000000000000000000C0D061
:2B20EC000000000000000000000000000000000000000000000000000000080000000000000000000000008000C0E39E
:2B2117000800000000000000000000000000000000000000000000000000000000000000002000000000000000C0CBEA
:2B214200000000000000000000000200000000000000000000000000000000000000020000000000000000000048CB5B
:2B216D00020000000000000000000000000000000000000000000000300002400000440042000000000002000080F5D6
:2B2198000000000000000000000000000000000000000000000000100008000000200008000003000000000000C0E336
:2B21C3000000000000000000000000000000000000000000000000000000000000000040000040000000000040C0E78A
:2B21EE00080000000000000000000000000000000000000000000000000000000000000444000400000000000048E743
:2B2219000000000000000000000000000000000000000000000000100800000800001001000000000080100000C0EA2F
:2B2244000000000000000000000000000000000000000000000000000001000001000001000000000000000800C0FAAA
:2B226F00000000000000000000000000000000000000000000000008500000500000D00000000000000009200100DEC4
:2B229A000000000000000000000000300000000000000000000000300840000001200000000080000000100440C0C5F7
:2B22C500000000000000000000000000000000000000000000000004080000000100000000000001000010000080FF51
:2B22F000000000000000000000000008000000000000000000000010008000000010000000000000000000088040E370
:2B231B000000000000000000000000000000000000000000000000000000000000000000000000000000000001C0F2E4
:2B2346000000000000000000000000000000000000000000000000000400000000000040000040000000000000C0E741
:2B237100000000000000000000000000000000000000000000000008000000000220000020000A00000000000840EBBA
:2B239C00000000000000000000000000000000000000000000000000000112000004000002000000000000000280C5B6
:2B23C7000000000000000000000000000000000000000000000000100801000081000000000000100000100880C0F2F7
:2B23F200000000000000000000000000800000000000000000000000000010000010080010000100000000008040EB5C
:2B241D00000000000000000000000000200000000000000000000008900004800005200004400008000008100063E983
:2B2448000800000000000000000000000904000000000000000000100401000481200803200880100802300440A0EACF
:2B247300000000000000000000000000000000000000000000000010000100008100080100084010100008000040E60D
:2B249E000000000000000000000000000000000000000000000000000800001000108000100000008000100880C0EA99
:2B24C900000000000000000000000000000000100000000000000004002000000000000010000000000000208080CCB8
:2B24F400000000000000000000000000000000000000000000000000000000100000000008000000000000000041EB79
:2B251F00000000000000000000000000000000000000000000000020800100000010280300020100800000400080CDA5
:2B254A00000000000000000000000000000000000000000000000004000000080200000290040000000000000000FAC8
:2B257500020000000000000000000000000000000000000000000000040000000000000000000000000000000084E1D0
:2B25A000080000000000000000400000000000000000000000000000000000000000000000002000800000000000E543
:2B25CB00000000000000000000000000000002000000000000000000000000000000000000000000000004800000CF90
:2B25F600000000000000000000004000000000010000000000000000080000000040000000000000000000000028C445
:2B262100000000000000000000000000000000000000000000000000000000102000000004082002202000002082DF6F
:2B264C00000000000000000000000000000000000000000000000000000200400000C00000480004000000400000C510
:2B2677000000000000000000000000000000000000000000000000000000000000000000000000000000000000C0E395
:2B26A200000000000000000000000000000040000000000000000000002001000000100001000001000080000100F029
:2B26CD0000008A01000000000000000000000020001A000000000044409004511106410500408404400445403140E570
:2B26F800000010000000000000000000000000000018000000000000100000000200088200000000000000100240C9D8
:2B27230000000E000000000000000000000000000018000000000000048030C00100C80100000300080300C40140F024
:2B274E00000012000000000000000000000000004898040000000000001040440200410200005040004400400240E853
:2B277900000008000000000000000000000000000239040000000000010402210180040100001002011002010100F326
:2B27A40000001600000000000000000000000060001E00000000000CC4000CC0020CC00200C0000CC8000CC402C0E9FB
:2B27CF000000080000000000000000000000000040180000000000100001000001100001000000000000100001C0E7A4
:2B27FA00000010000000000000000000000000800900010000000070049020040230440200004630204270440280C3A9
:2B2825000000000000000000000000000000000000000000000000344331144391045004004030044491344300C0F030
:2B2850000000000000000000000000000000000000000000000000100002300000000000010000000003100000C0D176
:2B287B00000000000000000000000000000000000000000000000030C00130088000000000000000088330000000FED0
:2B28A600080000000000000000000000000000000000000000000030490230011080084800004880001330090090D5FA
:2B28D100000000000000000000000000000000000000000000000030080170200442000400004840000732108040C672
:2B28FC0000000000000000000000000000000000000000000000003CC0023CC0000CC44000C0030CC4033CC00000FA1B
:2B292700040000000000000000000000000000000000000000000030080130000010000100000030040330088348F2DB
:2B295200000000000000000000000000000000000000000000000070400230099030055300000A22019370000300DE46
:2B297D00000000A002000000000000000000002000000000000000244390744809364333004001554013244305C0FDF3
:2B29A800000000004100000000000000000000800100000000000030000030000210000100000330108330008240FF18
:2B29D300000000E00000000000000000000000000000000000000030008110C80130000300000330088130C00100DEB1
:2B29FE00040000200100000000000000000000004800000000000030091030410230091302008B30011330490248FAAB
:2B2A29000C0000800000000000000000000000000201000000000030210472200170000702000772200732080198E53A
:2B2A540000000060010000000000000000000060000000000000003CC0003CC0023CD00300C0033CC0033CC00200EEDF
:2B2A7F00080000800000000000000000000000004000000000000030080030000130088300000330000330080150F68B
:2B2AAA00000000000100000000000000000000000800000000000070009030090270000700009330099370000240FB3A
:2B2AD5000000000000000000000000000000000000000000000000044100044211264332044083044000166131C0E943
:2B2B00000000000000000000000000000000000000000000000000000800000002300003000003000000200002C0FA8E
:2B2B2B00000000000000000000000000000000000000000000000000040000C4013000030000010008431CC00100D08A
:2B2B5600080000000000000000000000000000000000000000000080000000410230091302008B80000424400250CEA8
:2B2B8100000000000000000000000000000000000000000000000080049000050130205300000702010410000140CD40
:2B2BAC0000000000000000000000000000000000000000000000000CC0003CC0023CC0030CD0030CC8002DC002C0C90A
:2B2BD700040000000000000000000000000000000000000000000010004300000130088330080300004010000148D418
:2B2C02000000000000000000000000000000000000000000000000B0041360500270000730009330200224000200CEAE
:2B2C2D0000002A00000000000000000000000000001A000000000044600034410544601015430434608144601182EAD4
:2B2C5800000010040000000000000000000000000018000000000000000030108200000020008030000000000240DD74
:2B2C830000000E000000000000000000000000000018000000000000000030C8010008001C004310080301C00140F58E
:2B2CAE00080012000000000000000000000000000098040000000080029030410200000826000430011000510248D2E0
:2B2CD900000008000000000000000000000000000038040000000000000772200100058010000470200100200158F35C
:2B2D040000001600000000000000000000000000001E00000000000CD0003CC0020CC0002CC0003DC0820CC00240E36E
:2B2D2F00040008000000000000000000000000000000000000000010048010000110044110004030000310040150F299
:2B2D5A00000010000000000000000000000000000018010000000070001030090270000720000230092B700002C0DA61
:2B2D8500000000000000000000000000000000A0011A000000000034433144400534433394480B06401334438940C14C
:2B2DB0000000000000000000000000000000000000000000000000300002000882300003200003001003310002C0E3FD
:2B2DDB00000000000000000000000000000000000018000000000010C00100C0011000011C000300088310C00140FA5D
:2B2E0600080000000000000000000000000000004898040000000030490280600230091326008B40001330490210E29B
:2B2E3100000000000000000000000000000000000239040000000030010180000130021310000702110772100180ED1E
:2B2E5C0000000000000000000000000000000060001E00000000003CD0020CC4023CC0032DC0030CC0033CC00240FEF3
:2B2E87000400000000000000000000000000000040180000000000300801300001300883100001300001300801C8F26A
:2B2EB2000000000000000000000000000000000008180100000000700002A0440270000720009320049370400240FBAE
:2B2EDD00000000A00801000000000000000000200002000000000094484734400916480554400705402314618940D5E6
:2B2F0800000000000100000000000000000000000018000000000020000330080200008220080300000320000240E333
:2B2F3300000000E0000000000000000000000000001800000000001C008310C00130D0011C00010000011CC00180DFB0
:2B2F5E00040000200100000000000000000000004898040000000024001320480200410224000201008A244002D0DF95
:2B2F89000C00008000000000000000000000000002390400000000100007020001501001100000000100100001C0F9FC
:2B2FB40000000060010000000000000000000060001E00000000002CC0033CD0022CC0022CC0030DC8032DC00200F57D
:2B2FDF000800008000000000000000000000008041180000000000100001000001300001100000300000100001C8FE0C
:2B300A00000000000100000000000000000000000818010000000020009320510230100220001231201221000280D702
:2B303500000000A0440000000000000000000000001A000000000094481014493134411014619114433004401102DEB1
:2B306000000000000100000000000000000000000018000000000020004000000230108020000020000000100240F682
:2B308B00000000E0000000000000000000000000001800000000001C004030D0011010001C00031D000000C00140CE9A
:2B30B600040000200100000000000000000000000098040000000024001000410260009024001024004800450250D7B9
:2B30E1000C00008000000000000000000000000000200400000000100020100101000048100011100008800401C0D23A
:2B310C0000000060010000000000000000000000001E00000000002CC0002CC8023CD0002CC0022DC0430CC00240C53A
:2B313700080000800000000000000000000000000018000000000010004330000100000110000311008010000148CC7F
:2B3162000000000001000000000000000000000000180100000000240002B04802201143200007200006B0440200F75A
:2B318D000000000000000000000000000000000000000000000000000000000000000000000000000000000000C0E374
:2B31B8002000022000022000022000022000022000020000000000000000040000040000044000044000000000C0E3ED
:2B31E3000000000000000000000000000000000000000000000000001000000000000000010000000000000000C0E30D
:2B320E00280002200002200002200002200002200002000000000084405004404004401004400004400004480849FBB5
:2B323900000000000000000000000000000000000000000000000000000000000000000000000000000000000058FA18
:2B3264002000000000022000022000022000022000020000000000000000040000040000004000004000000000C0E36A
:2B328F000400000880000000000000000000000000000000000000001000000000010000000000000000001000D0E6B1
:2B32BA00200042200802200002200002200002200002000000000004404804400004400805450004450004404000F3AF
:2B32E500000000000000000000000000000000000000000000000000000000000008000000400000802000000080E571
:2B3310000000000010000000000000000000000000000000000000000000080000000000008000000000000000C0E258
:2B333B000000000000000000000000000000000000000000000000000000000000000800000000000000000200C0E9B4
:2B33660000000000000000000000000000000000000000000000008000000000000000A0000000020000800080C0C199
:2B3391000000000000000000000000000000000000000000000000000000001000000000000000110001000000C0E34C
:2B33BC00000000000000000000000000000000000000000000000000000000000018000000000000080000000040F294
:2B33E700000040000000000000000000000000000000000000000080000000000000000001000000000001000000E316
:2B3412000000000000000000000000000000000000000000000000000000000000000000000000000000000000C0E3EC
:2B343D00000000000000000000000000000000000000000000000000000000000000108000000000108040000080E3A1
:2B346800000000000000000000000000000000000000000000000000000000000000000000000000400000000080E792
:2B349300000000000000000000000000000000000000000000000000000000040000040000004800004080800040EB53
:2B34BE000000000000000000000000000000000000000000000000000000000000000000000000000000000000C0E340
:2B34E9000000000000000000000000000000000000000000000000000081100080000000000000000800000801C0F2E4
:2B351400000000040000000000000000000000804000040000000000000000000000008000000000080000000040EF0D
:2B353F00000000100000000000000000000000200001100000000000800009000001080002000000300000900040D3B9
:2B356A000000000000000300000000000000000000000000000000040042E0000000000000000011000020010140D3C7
:2B3595000000000000000000000000000000000000000000000000000000000000000000000000100000000001C0E357
:2B35C0000000000000000400000000000000000000000000000000000081100000000000000000000000100000C0FE7D
:2B35EB000000000000000000000000000000000001000000000000000002200002000000000002200002000000C0F2BA
:2B361600000010000100000000000000000000800000000000000000000110000902000220000410000100000280F82B
:2B36410000000200000000000000000000000000001900000000003040000260003200010480000620003A400000EC2E
:2B366C00000000808000000000000000000000000000000000000010400000000201000012100000000000100101F4B8
:2B3697000000000000000000000000000000000000000000000000000080000081000000100800100000100001C0FA14
:2B36C2000040000000000000000000000000008000080400000000100001000000000001000000000081000800C0E3D3
:2B36ED0008000100000000000000000000000020000210000000000440000180000140000810000840000AA00014E66D
:2B3718000008000001000300000000000000000020100200000000000089101081108000100802009008080181C0CBC7
:2B3743000000000000000000000000000000000000000000000000000081100081100000100800000000000081C0E3FD
:2B376E000000008000000400000000000000000040080400000000000000000000000000000001000000000000C0F6A9
:2B379900000000000000000000000000000000000000000000000000200000000000200000000040000000300080D302
:2B37C400000000000000000000000000000000000000000000000004000004000000000800000000100000000040F387
:2B37EF00000000000000000000000000000000000000000000000000000040000000000000008100000000000080FA74
:2B381A00000000000000000000000000000000000000000000000000880000800000040008000080040400800000EB7C
:2B3845000C0000000000000000000000000000000000000000000000000000000000800200000000400400000004C5BD
:2B387000000000000000000000000000000000000000000000000000000000080040080000088000008000000080EB6A
:2B389B000000000000000000000000000000000000020000000000440000000000C4400400000000000004000000C3ED
:2B38C6000000000000000000000000000000000000000000000000000400A00200000240000020000020000C0040CD96
:2B38F100000000000000000000000000000000000000000000000008080014080000020002000000000000000000DCA0
:2B391C00000000000000000000000000000000000000000000000000100040040004000000004000804000000040FBED
:2B394700000000000000000000000000000000000000000000000000000000000000000000002008000000040040EDFC
:2B3972000000000000000000000000000000000000000000000000000000001000000000000002010000010000C0D185
:2B399D000000000000000000000000000000000000000000000000000000000000000000000000000000000000C0E35C
:2B39C800000000000000000000000000000000000000000000000000000000000000000000000000000000400280C54D
:2B39F3000000000000000000000000000000000000000000000000000000000000000000000000000000000000C0E306
:2B3A1E000000000000000000000000000000000000000000000000000000000000000000000000000000000000C0E3DA
:2B3A4900001220011220011220011220011220011220010000000040022440022440022440025440022440022E40C67C
:2B3A7400000CC0000CC0000CC0000CC0000CC0000CC000000000008001188001188001188001C8820118800119C0DF77
:023A9F00FFFF27
:00000001FF
