:020000040000FA
:2B000000FFFF62FF2500FFFFFFFFFFFFFFFFFFFFFFFFFFFFFFFFFFFFFFFFFFFFFFFFFFFFFFFFFFFFFFFFFFFFFFFFFF76
:2B002B00601886611886611886611886611886651886010000000018866118866119866118866118866118866180F33E
:2B00560040100441100441100441100441108442100401000000001004411004A110044110044110044110044100EAB8
:2B008100000000000000000000000000000000010000000000000000000000004000000000000000000000000080E2B1
:2B00AC00000000000000000000000000000000000000000000000000000000000000000000000000000000000080E7C2
:2B00D700000000000000000000000000000080020000000000000000000000008000000000000000000000000000ED0F
:2B010200000000000000000000000000000090000000000000000000000000002400000000000000000000000000B06E
:2B012D00000000000000000000000000400000000000000000000010000000000000000000000000000002000080963F
:2B015800000000000000000000000000000600000000000000000080000000000000000000000000000000000020A333
:2B0183000000000000000000000000000000000000000000000000000000000000000000020000040000000000808744
:2B01AE00000000000000000000000000000000000000000000000000000000000000000000200000000000000082E79D
:2B01D900000000000000000000000000800000000000000000000000000000000020000020000000400000000000AF4C
:2B0204000000000000000000000000008048000000000000000000000A00000000003000400000001000000000088DE8
:2B022F00000000000000000000000000000401000000000000000000400000000000010000010000040000000080F7E2
:2B025A00000000000000000000000000000000000000000000000000000000000000000000000000000000000080E712
:2B028500000000000000000000000000000000000000000000000000000000000000000000000000080040000080ABDB
:2B02B0000000000000000000000000000000000000000000000000000000000000000000000000000000000000A0C5BE
:2B02DB00000000000000000000000000000200000000000000000000000000000000020000020080000000000000C5AD
:2B030600000000000000000000000000000000000000000000000000000000000000000000010000000000000800E6DD
:2B033100000000000000000000000000000000000000000000000080000800010800400800000000000080000880A61A
:2B035C00000000000000000000000000000000000000000000000060000C40080C000004000008004008C00010008C06
:2B0387000000004004010000000000000004000000000000000000008070040011040200000101028488100400008B48
:2B03B200020000000000000000000000000000000000000000000000000000000000000000000000000000000008ED29
:2B03DD00000000000000000000000000000000000000000000000040000000000000000000000000000000000080A392
:2B040800000000000000000000000000000000000000000000000000000000000000000000000000000000000080E762
:2B0433000000004004010000000000000004000000000000000000008070040011040200400103028C8810040000E5F7
:2B045E00000000000000000000000000008000000000000000000000000000000000200000000000200000000080EF44
:2B0489000200000000000000000000000002000000000000000000000000000020800000000000800008040400888903
:2B04B400800008800008800008800008000008800008000000000020000220000000000220000200000000000200CD38
:2B04DF00800008800008800008800008800008800008000000000020000220000220000220000220000220000280E78F
:2B050A00000000800300000000000000000000000000000000000000004000400400020004010600000002000000D9D7
:2B053500000000E00300000000000000600A00000000000000000000800998800518800918800F9A820900801158A2B0
:2B056000020000800100000000000000000000000000000000000000000800800400000000000402000000000088DCF7
:2B058B00020000C011000000000000004008000000000000000000000009F0020510022F90020D10028900002F1082EE
:2B05B600020000001000000000000000000800000000000000000000000000820400012000000000000000002008A38E
:2B05E100020000800100000000000000000000000000000000000000000002800480000080012E80010000000008FC32
:2B060C00000000800100000000000000000100000000000000000000000000100444000040000040000600000000D98A
:2B063700000000800100000000000000801300000000000000000000000640000CE00404E2100464400600000C849288
:2B066200000000000000000000000000802000000000000000000000404060000000010600020420000440000600AACC
:2B068D00000000000000000000000000E001000000000000000000988009D88885188085188005F8A005588085009C0B
:2B06B8000200000000000000000000008003000000000000000000000008600000000206008004E0800448000608984C
:2B06E300000000000000000000000000C003000000000000000000700209704001940007140205F0000550000784BEB9
:2B070E00000000000000000000000000801100000000000000000000010060044000004600800460840448008680BAD0
:2B073900000000000000000000000000800100000000000000000000004060000080010680C00460800448000E00F778
:2B0764000000000000000000000000008001000000000000000000002000602000400006410004640004441006029A60
:2B078F000200000000000000000000008011000000000000000000400006600088E0100EE0040CE0080DC0000E08962F
:2B07BA00000000800300000000000000000100000000000000000000000460000420000620200000010400000600CEE9
:2B07E5000000006002000000000000006001000000000000000000188105F8880578C087F8802D18800598888780F1EA
:2B0810000000008001000000000000002001000000000000000000008004608004E00006E0000000820400000680E7FA
:2B083B00000000C011000000000000004001000000000000000000900205504005F00005F400079400059001055CD603
:2B086600020000801100000000000000200100000000000000000000800460840460044660080400810400008608AF6F
:2B089100020000800100000000000000200100000000000000000000A00460800460000660004480800400000E9096CE
:2B08BC00020000800100000000000000000100000000000000000060000464200C6000066200064000046400060CA56C
:2B08E7000200008001000000000000000081000000000000000000C0400CE0000460040660040662080C60000E0885AD
:2B091200000000000200000000000000800100000000000000000060000400000060000060400060200440000001E826
:2B093D00000000E00300000000000000E000010000000000000000588805988181388819B880093A800558800900CEC4
:2B0968000000008001000000000000008003000000000000000000609004800000E00008E00000E080044800080099D7
:2B099300000000C01100000000000000C003000000000000000000700005900001F40009F00089F0000550000900C813
:2B09BE00000000801100000000000000801100000000000000000060840400004060041060080060840448001088AB75
:2B09E900020000800100000000000000800100000000000000000060800460010060000E60000060800448000680CE4C
:2B0A14000200008001000000000000008001000000000000000000600804014004600000600006600084404080809B3D
:2B0A3F00020000800100000000000000801100000000000000000060000C40008860044C600406E00804C000040086F4
:2B0A6A00020000000000000000000000000000000000000000000060000400000400040800010400100440000600B4D8
:2B0A9500000000000000000000000000600400000000000000000078880518820598800598800518800558808708C927
:2B0AC000000000000000000000000000000800000000000000000060900400820400000000800400800448000680B9FA
:2B0AEB00000000000000000000000000400200000000000000000050000590000510010F140105100105500007848405
:2B0B1600000000000000000000000000000000000000000000000060840400880400400400880400800448008600A37B
:2B0B4100000000000000000000000000000600000000000000000060800480800400004480800480840448000EC8C568
:2B0B6C000200000000000000000000000001000000000000000000600084E0008440000641000441000C40084408D2D5
:2B0B97000200000000000000000000008021000000000000000000604004400004E00806E0080C60100440000E10BF35
:2B0BC200020000800300000000000000002000000000000000000000044060000460000060000460080440000088DCE7
:2B0BED00020000E003000000000000006002000000000000000000988009F8880578902178C00578800558808708C066
:2B0C18000000008001000000000000000004000000000000000000800008608004E00020E08004E0800448008080B000
:2B0C4300000000C011000000000000004002000000000000000000900009704005D00009D00005D0000550000980BF0A
:2B0C6E00000000801100000000000000000200000000000000000000010060840460048060880460840448000000D807
:2B0C99000000008001000000000000000000000000000000000000E0000060800460000860800460800448000004D897
:2B0CC400020000800100000000000000000100000000000000000080000640008460004660008460000441100008C32D
:2B0CEF00000000000000000000000000802300000000000000000040000660100560040C600404E0080CD0000000A040
:2B0D1A00000000800300000000000000804100000000000000000060000400040040000600200440000440000680830B
:2B0D4500000000E00300000000000000E003000000000000000000788805D8808158808758800558800558808100E786
:2B0D7000000000800100000000000000800300000000000000000060900400084048000680800448800448008000D161
:2B0D9B00020000C011000000000000004003000000000000000000700005700001500007740005500005500009088625
:2B0DC600000000801100000000000000801100000000000000000060840440000048004640800448800448000080E7EB
:2B0DF10000000080010000000000000080010000000000000000006080044008004C000640880448800448000084E70C
:2B0E1C00000000000000000000000000800100000000000000000040100C600000C0008460000C404004C1000000B6C3
:2B0E47000000008001000000000000008011000000000000000000E0000460200640000660200450000D40000048CC89
:2B0E7200020000000000000000000000000100000000000000000000000060000440000640000640000400000008DE38
:2B0E9D000200000000000000000000006001000000000000000000188881F8A00558800F5A800F5A8005188821108DFC
:2B0EC80002000000000000000000000020010000000000000000000004004080044800044A00044A800400042088D62A
:2B0EF300020000000000000000000000400100000000000000000010000554040550000D50000D50000510000988BCB3
:2B0F1E00000000000000000000000000200100000000000000000000104000840448000848001048800460001080EC5F
:2B0F49000000000000000000000000002001000000000000000000000000E0800448000648000648800400400800BC8C
:2B0F74000000000000000000000000000001000000000000000000600000000804C1000040100040400C00000680FAC8
:2B0F9F000A0000000000000000000000408100000000000000000000001040000C50000CC4004C40000500000C0295AC
:2B0FCA001A0000000000000000000000001000000000000000000000000000000000400000040000002000020080B834
:2B0FF500000000000000000000000000000200000000000000000000001800002880000000002000200800000080E463
:2B102000800008800008800008800008000008800008000000000020000020000000000200000000000000000200EFC2
:2B104B00800008800008800008800008800008800008000000000020000220000220000220000220000220000280E717
:2B1076000000000014000000000000000000580000000000000000080A08AC00521401401280501201298AA22800FB09
:2B10A100000000000000000000000000000000000000000000000000000000000000000000000000000000000080E7BD
:2B10CC00000000000000000000000000000000000000000000000000000000000000000000000000000000000080E792
:2B10F700000000000000000000000000000000000000000000000000000000000000000000002000000000000080E549
:2B11220000000000140000000000000000004800000000000000000802088C00521401401280701201298AA22800C2AD
:2B114D00000000000100000000000000002100000000000000000000000104400154000044000100010110400084E4BC
:2B117800000000000100000000000000000100000000000000000010040212000042000180000042000002200100E119
:2B11A300000000000000000000000000000000000000000000000000000090040000048480000400000000000081EE12
:2B11CE00000000400000000000000000400000000000000000000000000000000010000210000010000000000080D4F0
:2B11F900000000000000000000000000000000000000000000000000000000101000000201001021001000010008FF5F
:2B122400000000000000000000000000000000000000000000000000000000400020400000100000000000002081C787
:2B124F00000000000000000000000000000000000000000000000000200000080000000000088000100000000008D7D5
:2B127A0000000000000000000000000000000000000000000000000000002000000000E000000000080000000080C3FE
:2B12A500000000000000000000000000000000000000000000000000000000000000000100000000000000000080F6A7
:2B12D000000000000000000000000000000000000000000000000000000000000000000000000000000000000080E78C
:2B12FB00000000000000000000000000000000000000000000000000088400000080000010600200000000000022F236
:2B132600000000000000000000000000000000000000000000000000200180310000001002080000040000000200E8C2
:2B135100000000000000000000000000000000000000000000000000000040000000000000000000000000000080A30E
:2B137C00000000000000000000000000000000000000000000000000002000042000000801022081002001020080F3C0
:2B13A700000000000000000000000000000000000000000000000000000000000000000000000000000000000080E7B4
:2B13D200000000000000000000000000000000000000000000000000000000000000000000000000000000000080E789
:2B13FD00000000000000000000000000000000000000000000000000000000000000000000000000000000000080E75E
:2B142800000000000000000000000000000000000000000000000000000000000000000000000000000000000080E732
:2B145300000000000000000000000000000000000000000000000000000000000000000000000000000000000080E707
:2B147E00000000000000000000000000000000000000000000000000000000000000000000000000000000000080E7DC
:2B14A900000000000000000000000000000000000000000000000000000000000000000000000000000000000080E7B1
:2B14D400000000000000000000000000000000000000000000000000000000000000000000000000000000000080E786
:2B14FF00000000000000000000000000000000000000000000000000000000000000000000000000000000000080E75B
:2B152A00000000000000000000000000000000000000000000000000000000000000000000000000000000000080E72F
:2B155500000000000000000000000000000000000000000000000000000000000000000000000000000000000080E704
:2B158000000000000000000000000000000000000000000000000000000000000000000000000000000000000080E7D9
:2B15AB00000000000000000000000000000000000000000000000000000000000000000000000000000000000080E7AE
:2B15D600000000000000000000000000000000000000000000000000000000000000000000000000000000000080E783
:2B160100000000000000000000000000000000000000000000000000000000000000000000000000000000000080E757
:2B162C00020000000000000000000000000000000000000000000000000000000000000000000000000000000008ED9C
:2B165700000000000000000000000000000000000000000000000000000000000000000000000000000000000080E701
:2B168200000000000000000000000000000000000000000000000000000000000000000000000000000000000080E7D6
:2B16AD00000000000000000000000000000000000000000000000000000000000000000000000000000000000080E7AB
:2B16D800000000000000000000000000000000000000000000000000000000000000000000000000000000000080E780
:2B170300020000000000000000000000000000000000000000000000000000000000000000000000000000000008EDC4
:2B172E00800008800008800008800008800008800008000000000020000220000220000220000220000220000280E72D
:2B175900800008800008800008800008800008800008000000000020000220000220000220000220000220000280E702
:2B178400000000000000000000000000000000000000000000000000000000000000000000000000000000000080E7D3
:2B17AF00020000000000000000000000000000000000000000000000000000000000000000000000000000000008ED18
:2B17DA00000000000000000000000000000000000000000000000000000000000000000000000000000000000080E77D
:2B180500000000000000000000000000000000000000000000000000000000000000000000000000000000000080E751
:2B183000000000000000000000000000000000000000000000000000000000000000000000000000000000000080E726
:2B185B00000000000000000000000000000000000000000000000000000000000000000000000000000000000080E7FB
:2B188600020000000000000000000000000000000000000000000000000000000000000000000000000000000008ED40
:2B18B100000000000000000000000000000000000000000000000000000000000000000000000000000000000080E7A5
:2B18DC00000000000000000000000000000000000000000000000000000000000000000000000000000000000080E77A
:2B190700000000000000000000000000000000000000000000000000000000000000000000000000000000000080E74E
:2B193200020000000000000000000000000000000000000000000000000000000000000000000000000000000008ED93
:2B195D00000000000000000000000000000000000000000000000000000000000000000000000000000000000080E7F8
:2B198800000000000000000000000000000000000000000000000000000000000000000000000000000000000080E7CD
:2B19B300000000000000000000000000000000000000000000000000000000000000000000000000000000000080E7A2
:2B19DE00000000000000000000000000000000000000000000000000000000000000000000000000000000000080E777
:2B1A0900020000000000000000000000000000000000000000000000000000000000000000000000000000000008EDBB
:2B1A3400000000000000000000000000000000000000000000000000000000000000000000000000000000000080E720
:2B1A5F00000000000000000000000000000000000000000000000000000000000000000000000000000000000080E7F5
:2B1A8A00000000000000000000000000000000000000000000000000000000000000000000000000000000000080E7CA
:2B1AB500020000000000000000000000000000000000000000000000000000000000000000000000000000000008ED0F
:2B1AE000000000000000000000000000000000000000000000000000000000000000000000000000000000000080E774
:2B1B0B00000000000000000000000000000000000000000000000000000000000000000000000000000000000080E748
:2B1B3600000000000000000000000000000000000000000000000000000000000000000000000000000000000080E71D
:2B1B6100000000000000000000000000000000000000000000000000000000000000000000000000000000000080E7F2
:2B1B8C00020000000000000000000000000000000000000000000000000000000000000000000000000000000008ED37
:2B1BB700000000000000000000000000000000000000000000000000000000000000000000000000000000000080E79C
:2B1BE200000000000000000000000000000000000000000000000000000000000000000000000000000000000080E771
:2B1C0D00000000000000000000000000000000000000000000000000000000000000000000000000000000000080E745
:2B1C3800020000000000000000000000000000000000000000000000000000000000000000000000000000000008ED8A
:2B1C6300000000000000000000000000000000000000000000000000000000000000000000000000000000000080E7EF
:2B1C8E00000000000000000000000000000000000000000000000000000000000000000000000000000000000080E7C4
:2B1CB900000000000000000000000000000000000000000000000000000000000000000000000000000000000080E799
:2B1CE400000000000000000000000000000000000000000000000000000000000000000000000000000000000080E76E
:2B1D0F00020000000000000000000000000000000000000000000000000000000000000000000000000000000008EDB2
:2B1D3A00000000000000000000000000000000000000000000000000000000000000000000000000000000000080E717
:2B1D6500000000000000000000000000000000000000000000000000000000000000000000000000000000000080E7EC
:2B1D9000000000000000000000000000000000000000000000000000000000000000000000000000000000000080E7C1
:2B1DBB00020000000000000000000000000000000000000000000000000000000000000000000000000000000008ED06
:2B1DE600000000000000000000000000000000000000000000000000000000000000000000000000000000000080E76B
:2B1E1100000000000000000000000000000000000000000000000000000000000000000000000000000000000080E73F
:2B1E3C00000000000000000000000000000000000000000000000000000000000000000000000000000000000080E714
:2B1E6700000000000000000000000000000000000000000000000000000000000000000000000000000000000080E7E9
:2B1E9200020000000000000000000000000000000000000000000000000000000000000000000000000000000008ED2E
:2B1EBD00000000000000000000000000000000000000000000000000000000000000000000000000000000000080E793
:2B1EE800000000000000000000000000000000000000000000000000000000000000000000000000000000000080E768
:2B1F1300000000000000000000000000000000000000000000000000000000000000000000000000000000000080E73C
:2B1F3E00020000000000000000000000000000000000000000000000000000000000000000000000000000000008ED81
:2B1F6900000000000000000000000000000000000000000000000000000000000000000000000000000000000080E7E6
:2B1F9400000000000000000000000000000000000000000000000000000000000000000000000000000000000080E7BB
:2B1FBF00000000000000000000000000000000000000000000000000000000000000000000000000000000000080E790
:2B1FEA00000000000000000000000000000000000000000000000000000000000000000000000000000000000080E765
:2B201500020000000000000000000000000000000000000000000000000000000000000000000000000000000008EDA9
:2B204000000000000000000000000000000000000000000000000000000000000000000000000000000000000080E70E
:2B206B00000000000000000000000000000000000000000000000000000000000000000000000000000000000080E7E3
:2B209600000000000000000000000000000000000000000000000000000000000000000000000000000000000080E7B8
:2B20C100020000000000000000000000000000000000000000000000000000000000000000000000000000000008EDFD
:2B20EC0000000000001800000000000000000000000000000000000000006000000000000000000000000000000098B9
:2B21170000000000001E000000000000000000000000000000000000000078000000000000000000000000000080E1A6
:2B2142000000000000180000000000000000000000000000000000000000600000000000000000000000000000009862
:2B216D0000000000001C000000000000000000000000000000000000000070000000000000000000000000000000C9F2
:2B2198000200000000180000000000000000000000000000000000000000600000000000000000000000000000889288
:2B21C30000000000001800000000000000000000000000000000000000006000000000000000000000000000000098E1
:2B21EE0000000000001800000000000000000000000000000000000000006000000000000000000000000000000098B6
:2B221900000000000018000000000000000000000000000000000000000060000000000000000000000000000000988A
:2B224400000000000000000000000000000000000000000000000000000000000000000000000000000000000080E708
:2B226F00000000000000000000000000000000000000000000000000000000000000000000000000000000000080E7DD
:2B229A00800008800008800008800008800008800008000000000020000220000220000220000220000220000280E7B6
:2B22C500800008800008800008800008800008800008000000000020000220000220000220000220000220000280E78B
:2B22F000000000000004000000000000000000000000000000000000000010000000000000000000000000000080B679
:2B231B001000000000000000000000000000000000000000000000000000000000000000000000000000000000C0B314
:2B234600000000000000000000000000000000000000000000000000000000000000000000000000000000000080E705
:2B237100000000000000000000000000000000000000000000000000000000000000000000000000000000000080E7DA
:2B239C00000000000004000000000000000000000000000000000000000010000000000000000000000000000080B6CC
:2B23C700000000000000000000000000000000000000000000000000000000000000000000000000000000000080E784
:2B23F200020000000000000000000000000000000000000000000000000000000000000000000000000000000008EDC9
:2B241D001000000000000000000000000000000000000000000000000000000000000000000000000000000000C0B311
:2B244800000000000000000000000000000000000000000000000000000000000000000000000000000000000080E702
:2B247300000000000000000000000000000000000000000000000000000000000000000000000000000000000080E7D7
:2B249E00000000000000000000000000000000000000000000000000000000000000000000000000000000000080E7AC
:2B24C900000000000000000000000000000000000000000000000000000000000000000000000000000000000080E781
:2B24F400000000000000000000000000000000000000000000000000000000000000000000000000000000000080E756
:2B251F00000000000000000000000000000000000000000000000000000000000000000000000000000000000080E72A
:2B254A00000000000000000000000000000000000000000000000000000000000000000000000000000000000080E7FF
:2B257500000000000000000000000000000000000000000000000000000000000000000000000000000000000080E7D4
:2B25A000000000000000000000000000000000000000000000000000000000000000000000000000000000000080E7A9
:2B25CB00000000000000000000000000000000000000000000000000000000000000000000000000000000000080E77E
:2B25F600000000000000000000000000000000000000000000000000000000000000000000000000000000000080E753
:2B262100000000000000000000000000000000000000000000000000000000000000000000000000000000000080E727
:2B264C00000000000000000000000000000000000000000000000000000000000000000000000000000000000080E7FC
:2B267700000000000000000000000000000000000000000000000000000000000000000000000000000000000080E7D1
:2B26A200000000000000000000000000000000000000000000000000000000000000000000000000000000000080E7A6
:2B26CD00000000000000000000000000000000000000000000000000000000000000000000000000000000000080E77B
:2B26F800000000000000000000000000000000000000000000000000000000000000000000000000000000000080E750
:2B272300000000000000000000000000000000000000000000000000000000000000000000000000000000000080E724
:2B274E00000000000000000000000000000000000000000000000000000000000000000000000000000000000080E7F9
:2B277900000000000000000000000000000000000000000000000000000000000000000000000000000000000080E7CE
:2B27A400000000000000000000000000000000000000000000000000000000000000000000000000000000000080E7A3
:2B27CF00000000000000000000000000000000000000000000000000000000000000000000000000000000000080E778
:2B27FA00000000000000000000000000000000000000000000000000000000000000000000000000000000000080E74D
:2B282500000000000000000000000000000000000000000000000000000000000000000000000000000000000080E721
:2B285000000000000000000000000000000000000000000000000000000000000000000000000000000000000080E7F6
:2B287B00000000000000000000000000000000000000000000000000000000000000000000000000000000000080E7CB
:2B28A600020000000000000000000000000000000000000000000000000000000000000000000000000000000008ED10
:2B28D100000000000000000000000000000000000000000000000000000000000000000000000000000000000080E775
:2B28FC00000000000000000000000000000000000000000000000000000000000000000000000000000000000080E74A
:2B292700000000000000000000000000000000000000000000000000000000000000000000000000000000000080E71E
:2B295200000000000000000000000000000000000000000000000000000000000000000000000000000000000080E7F3
:2B297D00020000000000000000000000000000000000000000000000000000000000000000000000000000000008ED38
:2B29A800800008800008800008800008800008800008000000000020000220000220000220000220000220000280E7A1
:2B29D300800008800008800008800008800008800008000000000020000220000220000220000220000220000280E776
:2B29FE00000000000000000000000000000000000000000000000000000000000000000000000000000000000080E747
:2B2A2900020000000000000000000000000000000000000000000000000000000000000000000000000000000008ED8B
:2B2A5400000000000000000000000000000000000000000000000000000000000000000000000000000000000080E7F0
:2B2A7F00000000000000000000000000000000000000000000000000000000000000000000000000000000000080E7C5
:2B2AAA00000000000000000000000000000000000000000000000000000000000000000000000000000000000080E79A
:2B2AD500000000000000000000000000000000000000000000000000000000000000000000000000000000000080E76F
:2B2B0000020000000000000000000000000000000000000000000000000000000000000000000000000000000008EDB3
:2B2B2B00000000000000000000000000000000000000000000000000000000000000000000000000000000000080E718
:2B2B5600000000000000000000000000000000000000000000000000000000000000000000000000000000000080E7ED
:2B2B8100000000000000000000000000000000000000000000000000000000000000000000000000000000000080E7C2
:2B2BAC00020000000000000000000000000000000000000000000000000000000000000000000000000000000008ED07
:2B2BD700000000000000000000000000000000000000000000000000000000000000000000000000000000000080E76C
:2B2C0200000000000000000000000000000000000000000000000000000000000000000000000000000000000080E740
:2B2C2D00000000000000000000000000000000000000000000000000000000000000000000000000000000000080E715
:2B2C5800000000000000000000000000000000000000000000000000000000000000000000000000000000000080E7EA
:2B2C8300020000000000000000000000000000000000000000000000000000000000000000000000000000000008ED2F
:2B2CAE00000000000000000000000000000000000000000000000000000000000000000000000000000000000080E794
:2B2CD900000000000000000000000000000000000000000000000000000000000000000000000000000000000080E769
:2B2D0400000000000000000000000000000000000000000000000000000000000000000000000000000000000080E73D
:2B2D2F00020000000000000000000000000000000000000000000000000000000000000000000000000000000008ED82
:2B2D5A00000000000000000000000000000000000000000000000000000000000000000000000000000000000080E7E7
:2B2D8500000000000000000000000000000000000000000000000000000000000000000000000000000000000080E7BC
:2B2DB000000000000000000000000000000000000000000000000000000000000000000000000000000000000080E791
:2B2DDB00000000000000000000000000000000000000000000000000000000000000000000000000000000000080E766
:2B2E0600020000000000000000000000000000000000000000000000000000000000000000000000000000000008EDAA
:2B2E3100000000000000000000000000000000000000000000000000000000000000000000000000000000000080E70F
:2B2E5C00000000000000000000000000000000000000000000000000000000000000000000000000000000000080E7E4
:2B2E8700000000000000000000000000000000000000000000000000000000000000000000000000000000000080E7B9
:2B2EB200020000000000000000000000000000000000000000000000000000000000000000000000000000000008EDFE
:2B2EDD00000000000000000000000000000000000000000000000000000000000000000000000000000000000080E763
:2B2F0800000000000000000000000000000000000000000000000000000000000000000000000000000000000080E737
:2B2F3300000000000000000000000000000000000000000000000000000000000000000000000000000000000080E70C
:2B2F5E00000000000000000000000000000000000000000000000000000000000000000000000000000000000080E7E1
:2B2F8900020000000000000000000000000000000000000000000000000000000000000000000000000000000008ED26
:2B2FB400000000000000000000000000000000000000000000000000000000000000000000000000000000000080E78B
:2B2FDF00000000000000000000000000000000000000000000000000000000000000000000000000000000000080E760
:2B300A00000000000000000000000000000000000000000000000000000000000000000000000000000000000080E734
:2B303500020000000000000000000000000000000000000000000000000000000000000000000000000000000008ED79
:2B306000000000000000000000000000000000000000000000000000000000000000000000000000000000000080E7DE
:2B308B00000000000000000000000000000000000000000000000000000000000000000000000000000000000080E7B3
:2B30B600000000000000000000000000000000000000000000000000000000000000000000000000000000000080E788
:2B30E100000000000000000000000000000000000000000000000000000000000000000000000000000000000080E75D
:2B310C00020000000000000000000000000000000000000000000000000000000000000000000000000000000008EDA1
:2B313700000000000000000000000000000000000000000000000000000000000000000000000000000000000080E706
:2B316200000000000000000000000000000000000000000000000000000000000000000000000000000000000080E7DB
:2B318D00000000000000000000000000000000000000000000000000000000000000000000000000000000000080E7B0
:2B31B800020000000000000000000000000000000000000000000000000000000000000000000000000000000008EDF5
:2B31E300000000000000000000000000000000000000000000000000000000000000000000000000000000000080E75A
:2B320E00000000000000000000000000000000000000000000000000000000000000000000000000000000000080E72E
:2B323900000000000000000000000000000000000000000000000000000000000000000000000000000000000080E703
:2B326400000000000000000000000000000000000000000000000000000000000000000000000000000000000080E7D8
:2B328F00020000000000000000000000000000000000000000000000000000000000000000000000000000000008ED1D
:2B32BA00000000000000000000000000000000000000000000000000000000000000000000000000000000000080E782
:2B32E500000000000000000000000000000000000000000000000000000000000000000000000000000000000080E757
:2B331000000000000000000000000000000000000000000000000000000000000000000000000000000000000080E72B
:2B333B00020000000000000000000000000000000000000000000000000000000000000000000000000000000008ED70
:2B336600000000000000000000000000000000000000000000000000000000000000000000000000000000000080E7D5
:2B339100000000000000000000000000000000000000000000000000000000000000000000000000000000000080E7AA
:2B33BC00000000000000000000000000000000000000000000000000000000000000000000000000000000000080E77F
:2B33E700000000000000000000000000000000000000000000000000000000000000000000000000000000000080E754
:2B341200020000000000000000000000000000000000000000000000000000000000000000000000000000000008ED98
:2B343D00000000000000000000000000000000000000000000000000000000000000000000000000000000000080E7FD
:2B346800000000000000000000000000000000000000000000000000000000000000000000000000000000000080E7D2
:2B349300000000000000000000000000000000000000000000000000000000000000000000000000000000000080E7A7
:2B34BE00000000000000000000000000000000000000000000000000000000000000000000000000000000000080E77C
:2B34E900000000000000000000000000000000000000000000000000000000000000000000000000000000000080E751
:2B351400800008800008800008800008800008800008000000000020000220000220000220000220000220000280E729
:2B353F00800008800008800008800008800008800008000000000020000220000220000220000220000220000280E7FE
:2B356A00000000000000000000000000000000000000000000000000000000000000000000000000000000000080E7CF
:2B359500000000000000000000000000000000000000000000000000000000000000000000000000000000000080E7A4
:2B35C000000000000000000000000000000000000000000000000000000000000000000000000000000000000080E779
:2B35EB00000000000000000000000000000000000000000000000000000000000000000000000000000000000080E74E
:2B361600000000000000000000000000000000000000000000000000000000000000000000000000000000000080E722
:2B364100000000000000000000000000000000000000000000000000000000000000000000000000000000000080E7F7
:2B366C00000000000000000000000000000000000000000000000000000000000000000000000000000000000080E7CC
:2B369700000000000000000000000000000000000000000000000000000000000000000000000000000000000080E7A1
:2B36C200000000000000000000000000000000000000000000000000000000000000000000000000000000000080E776
:2B36ED00000000000000000000000000000000000000000000000000000000000000000000000000000000000080E74B
:2B371800000000000000000000000000000000000000000000000000000000000000000000000000000000000080E71F
:2B374300000000000000000000000000000000000000000000000000000000000000000000000000000000000080E7F4
:2B376E00000000000000000000000000000000000000000000000000000000000000000000000000000000000080E7C9
:2B379900000000000000000000000000000000000000000000000000000000000000000000000000000000000080E79E
:2B37C400000000000000000000000000000000000000000000000000000000000000000000000000000000000080E773
:2B37EF00000000000000000000000000000000000000000000000000000000000000000000000000000000000080E748
:2B381A00000000000000000000000000000000000000000000000000000000000000000000000000000000000080E71C
:2B384500000000000000000000000000000000000000000000000000000000000000000000000000000000000080E7F1
:2B387000000000000000000000000000000000000000000000000000000000000000000000000000000000000080E7C6
:2B389B00000000000000000000000000000000000000000000000008000000000000000000000000800000000080E713
:2B38C600000000000000000000000000000000000000000000000020010000000000000000000000800201000000FE35
:2B38F100000000000000000000000000000000000000000000000000000000000000000000000000000000000080E745
:2B391C00000000000000000000000000000000000000000000000010000000000000000000000000000100000080E708
:2B39470040100441100441100441100441100441100401000000002804411004411004411004A110844210044180E9F7
:2B39720060188661188661188661188661188661188601000000005886611886611886611886C11D866518866180BD50
:02399D00FFFF2A
:00000001FF
