:020000040000FA
:2B000000FFFF62FF3100FFFFFFFFFFFFFFFFFFFFFFFFFFFFFFFFFFFFFFFFFFFFFFFFFFFFFFFFFFFFFFFFFFFFFFFFFF6A
:2B002B00000CC0000CC0000CC0000CC0000CC0800CC0000000000080011880011880011880011880011880011840EBA1
:2B005600001220011220011220011220011220011520010000000040022440022440022440022440022440022480D096
:2B0081000000000000000000000000000000000000000000000000000000000000000000000000000000000000C0E3B1
:2B00AC000000000000000000000000000000000002000000000000000000000000000000000000000000000000C0C1A6
:2B00D700000000000000000000000000000000008500000000000000000000000000000000000000000000000080FAFF
:2B010200000000000000000000000000000000000400000000000000000000000000000000000000000000000080E36B
:2B012D00000000000000000000000000000000A00400000000000000000000000000000000000000000000000000CB38
:2B0158000000000000000000000000000000000041000000000000000000000000000000000000000000000000C0F685
:2B018300000000000000000000000000000000E00000000000000000000000000000000000000000000000000000CFA2
:2B01AE000000000000000000000000000000002001000000000000000000000000000000000000000000000000C0D273
:2B01D900000000000000000000000000000000800000000000000000000000000000000000000000000000000040EB50
:2B020400000000000000000000000000000000600100000000000000000000000000000000000000000000000080D618
:2B022F00000000000000000000000000000000800000000000000000000000000000000000000000000000000040EBF9
:2B025A000000000000000000000000000000000001000000000000000000000000000000000000000000000000C0F2C6
:2B028500000000000000000000000000000000A008010000000000000000000000000000000000000000000000C0DB0A
:2B02B0000000000000000000000000000000000001000000000000000000000000000000000000000000000000C0F270
:2B02DB00000000000000000000000000000000E00000000000000000000000000000000000000000000000000000CF49
:2B0306000800000000000000000000000000002001000000000000000000000000000000000000000000000000D0CB08
:2B033100000000000000000000000000000000800000000000000000000000000000000000000000000000000040EBF6
:2B035C00000000000000000000000000000000600100000000000000000000000000000000000000000000000080D6BF
:2B0387000400000000000000000000000000008000000000000000000000000000000000000000000000000000C8E718
:2B03B2000000000000000000000000000000000001000000000000000000000000000000000000000000000000C0F26D
:2B03DD00100000000000000000000000000000A04000000000000000000000000000000000000000000000000040DFE6
:2B0408000000000000000000000000000000000001000000000000000000000000000000000000000000000000C0F216
:2B043300000000000000000000000000000000E00000000000000000000000000000000000000000000000000000CFEF
:2B045E000C0000000000000000000000000000200100000000000000000000000000000000000000000000000048D628
:2B0489000400000000000000000000000000008000000000000000000000000000000000000000000000000000D8F6F6
:2B04B400180000000000000000000000000000600100000000000000000000000000000000000000000000000080CE56
:2B04DF00080000000000000000000000000000800000000000000000000000000000000000000000000000000050F228
:2B050A000000000000000000000000000000000001000000000000000000000000000000000000000000000000C0F213
:2B053500000000000000000000000000000000A018000000000000000000000000000000000000000000000000C0CA59
:2B0560000000000000000000000000000000000001000000000000000000000000000000000000000000000000C0F2BD
:2B058B00000000000000000000000000000000E00000000000000000000000000000000000000000000000000000CF96
:2B05B6000800000000000000000000000000002001000000000000000000000000000000000000000000000000D0CB56
:2B05E100000000000000000000000000000000800000000000000000000000000000000000000000000000000040EB44
:2B060C00000000000000000000000000000000600100000000000000000000000000000000000000000000000080D60C
:2B0637000400000000000000000000000000008000000000000000000000000000000000000000000000000000C8E765
:2B0662000000000000000000000000000000000001000000000000000000000000000000000000000000000000C0F2BA
:2B068D00100000000000000000000000000000A018000000000000000000000000000000000000000000000000C0DAE0
:2B06B8000000000000000000000000000000000001000000000000000000000000000000000000000000000000C0F264
:2B06E300000000000000000000000000000000E00000000000000000000000000000000000000000000000000000CF3D
:2B070E000C00000000000000000000000000002001000000000000000000000000000000000000000000000000D0CFF4
:2B073900040000000000000000000000000000800000000000000000000000000000000000000000000000000040EFE2
:2B076400100000000000000000000000000000600100000000000000000000000000000000000000000000000080C6B3
:2B078F000800000000000000000000000000008000000000000000000000000000000000000000000000000000C8EB04
:2B07BA000000000000000000000000000000000001000000000000000000000000000000000000000000000000C0F261
:2B07E500100000000000000000000000000000A00400000000000000000000000000000000000000000000000000DB5A
:2B0810000000000000000000000000000000000041000000000000000000000000000000000000000000000000C0F6C6
:2B083B00000000000000000000000000000000E00000000000000000000000000000000000000000000000000000CFE3
:2B0866000C00000000000000000000000000002001000000000000000000000000000000000000000000000000D0CF9B
:2B089100040000000000000000000000000000800000000000000000000000000000000000000000000000000040EF89
:2B08BC00100000000000000000000000000000600100000000000000000000000000000000000000000000000080C65A
:2B08E7000800000000000000000000000000008000000000000000000000000000000000000000000000000000C8EBAB
:2B0912000000000000000000000000000000000001000000000000000000000000000000000000000000000000C0F207
:2B093D00000000000000200000000000000000A04000000000000000000000000000000000000000000000000060CD62
:2B0968000000000000000000000000000000000001000000000000000000000000000000000000000000000000C0F2B1
:2B099300000000000000000000000000000000E00000000000000000000000000000000000000000000000000000CF8A
:2B09BE00080000000000000201000000000000200100000000000000000000000000000000000000000000000058F199
:2B09E9000000000000000002000000000000008000000000000000000000000000000000000000000000000000C8C1D8
:2B0A14000000000000006040000000000000006001000000000000000000000000000000000000000000000000E0D402
:2B0A3F00040000000000000000000000000000800000000000000000000000000000000000000000000000000050FEBA
:2B0A6A00000000000000801100000000000000000100000000000000000000000000000000000000000000000040EAA5
:2B0A9500000000000000000000000000000000A008010000000000000000000000000000000000000000000000C0DBF2
:2B0AC0000000000000000000000000000000000001000000000000000000000000000000000000000000000000C0F258
:2B0AEB00000000000000000000000000000000E00000000000000000000000000000000000000000000000000000CF31
:2B0B16000400000000000000000000000000002001000000000000000000000000000000000000000000000000D0C7F8
:2B0B41000C0000000000000000000000000000800000000000000000000000000000000000000000000000000040E7D6
:2B0B6C00000000000000000000000000000000600100000000000000000000000000000000000000000000000080D6A7
:2B0B97000800000000000000000000000000008000000000000000000000000000000000000000000000000000C8EBF8
:2B0BC2000000000000000000000000000000000001000000000000000000000000000000000000000000000000C0F255
:2B0BED001000000000000000000000000000000000000000000000000000000000000000000000000000000000C0F31A
:2B0C18002000022000022000022000022000022000020000000000044000044000044000044000044000044000C0E3AA
:2B0C43000000000000000000000000000000000000000000000000000000000000000000000000000000000000C0E3E3
:2B0C6E002C0002200002200002200002200002200002000000000004400004400004400004400004400004400048E7BC
:2B0C9900040000000000000000000000000000000000000000000000000000000000000000000000000000000058FED6
:2B0CC4003000022000022000022000022000020000020000000000044000044000044000044000044000044000C0D31E
:2B0CEF000800000000000000000000000000000040000000000000000000000000000000000000000000000000D0FEC4
:2B0D1A002000022000022000022000022000022002020000000000044000044000044000044000044000044000C0C1C7
:2B0D45000000000000000000000000000000000000000000000000000000000000000000000000000000000000C0E3E0
:2B0D70000000000000000000000000000000000000000000000000000000000000000000000000000000000000C0E3B5
:2B0D9B000000000000000000000000000000000000000000000000000000000000000000000000000000000000C0E38A
:2B0DC6000000000000000000000000000000000000000000000000000000000000000000000000000000000000C0E35F
:2B0DF1000000000000000000000000000000000000000000000000000000000000000000000000000000000000C0E334
:2B0E1C000000000000000000000000000000000000000000000000000000000000000000000000000000000000C0E308
:2B0E47000000000000000000000000000000000000000000000000000000000000000000000000000000000000C0E3DD
:2B0E72000800000000000000000000000000000000000000000000000000000000000000000000000000000000C0EBA2
:2B0E9D000000000000000000000000000000000000000000000000000000000000000000000000000000000000C0E387
:2B0EC8000200000000000000000000000000000000000000000000000000000000000000000000000000000000C0E15C
:2B0EF3000000000000000000000000000000000000000000000000000000000000000000000000000000000000C0E331
:2B0F1E000800000000000000000000000000000000000000000000000000000000000000000000000000000000C0EBF5
:2B0F49000000000000000000000000000000000000000000000000000000000000000000000000000000000000C0E3DA
:2B0F74000000000000000000000000000000000000000000000000000000000000000000000000000000000000C0E3AF
:2B0F9F000000000000000000000000000000000028800200000000000000000000000000000000000000000000C0E3DA
:2B0FCA000000000000000000000000000000008000800500000000000000000000000000000000000000000000C0EE49
:2B0FF5000A0000000000000000000000000000800000040000000000000000000000000000000000000000000014F03F
:2B1020000000000000000000000000000000000000000000000000000000000000000000000000000000000000C0E302
:2B104B000000000000000000000000000000000000000000000000000000000000000000000000000000000000C0E3D7
:2B1076000000000000000001000000000000000000000000000000000000000000000000000000000000000000C0F29C
:2B10A1000000000000002000010000000000000001000000000000000000000000000000000000000000000000C0C280
:2B10CC000000000000000000000000000000000080000000000000000000000000000000000000000000000000C0EBCE
:2B10F7000200000000000000000000000000000000000400000000000000000000000000000000000000000000C0E523
:2B1122000000000000000000000000000000000000000000000000000000000000000000000000000000000000C0E3FF
:2B114D00000000000000000000000000000000002800080000000000000000000000000000000000000000000050F8FF
:2B1178001000000000000000000500000000008000800300000000000000000000000000000000000000000000D0EC78
:2B11A300000000000000000000040000000000800000000000000000000000000000000000000000000000000040EF6E
:2B11CE000000000000000000000000000000000000000400000000000000000000000000000000000000000000C0E74B
:2B11F900000000000000000000000000000000400000000000000000000000000000000000000000000000000080E724
:2B1224000800000000000000000000000000000000000000000000000000000000000000000000000000000000D0FACD
:2B124F000000000000000000000000000000000000000000000000000000000000000000000000000000000000C0E3D1
:2B127A000000000000000000000000000000000000000000000000000000000000000000000000000000000000C0E3A6
:2B12A500040000000000000000000000000000000000000000000000000000000000000000000000000000000084E3B3
:2B12D0000000000000000000000000000000000000000000000000000000000000000000000000000000000000D0F231
:2B12FB000000000000000000000000000000002000000000000000000000000000000000000000000000000000C0C325
:2B1326001000000000000000000000000000000000000000000000000000000000000000000000000000000000C0F3D9
:2B135100000000000000000000000000000000800000000000000000000000000000000000000000000000000040EBC6
:2B137C000000000000000000000000000000000000000000000000000000000000000000000000000000000000C0E3A3
:2B13A7000000000000000000000000000000000000000000000000000000000000000000000000000000000000C0E378
:2B13D2000000000000000000000000000000000000000000000000000000000000000000000000000000000000C0E34D
:2B13FD000000000000000000000000000000000000000000000000000000000000000000000000000000000000C0E322
:2B1428000000000000000000000000000000000000000000000000000000000000000000000000000000000000C0E3F6
:2B1453000000000000000000000000000000000000000000000000000000000000000000000000000000000000C0E3CB
:2B147E000000000000000000000000000000000000000000000000000000000000000000000000000000000000C0E3A0
:2B14A9000000000000000000000000000000000000000000000000000000000000000000000000000000000000C0E375
:2B14D4000000000000000000000000000000000000000000000000000000000000000000000000000000000000C0E34A
:2B14FF000000000000000000000000000000000000000000000000000000000000000000000000000000000000C0E31F
:2B152A000000000000000000000000000000000000000000000000000000000000000000000000000000000000C0E3F3
:2B1555000000000000000000000000000000000000000000000000000000000000000000000000000000000000E0C1CA
:2B1580000000000000000000000000000000000000000000000000000000000000000000000000000000000000C0E39D
:2B15AB000000000000000000000000000000000000000000000000000000000000000000000000000000000000C0E372
:2B15D600080000000000000000000000000000000000000000000000000000000000000000000000000000000058F298
:2B160100000000000000000000000000000000000000000000000000000000000000000000000000000000000048EB8B
:2B162C000000000000000000000000000000000000000000000000000000000000000000000000000000000000F0D0D3
:2B1657000400000000000000000000000000000000000000000000000000000000000000000000000000000000D0F69E
:2B1682000000000000000000000000000000000000000000000000000000000000000000000000000000000000C0E39A
:2B16AD000000000000000000000000000000000000000000000000000000000000000000000000000000000000C0E36F
:2B16D8000000000000000000000000000000000000000000000000000000000000000000000000000000000000C0E344
:2B1703000000000000000000000000000000000000000000000000000000000000000000000000000000000000C0E318
:2B172E000800000000000000000000000000000000000000000000000000000000000000000000000000000000D0FABE
:2B1759000000000000000000000000000000000000000000000000000000000000000000000000000000000000C0E3C2
:2B1784000000000000000000000000000000000000000000000000000000000000000000000000000000000000C0E397
:2B17AF00040000000000000000000000000000000000000000000000000000000000000000000000000000000048EFD4
:2B17DA000000000000000000000000000000000000000000000000000000000000000000000000000000000000C0E341
:2B1805000000000000000000000000000000000000000000000000000000000000000000000000000000000000C0E315
:2B1830000000000000000000000000000000000000000000000000000000000000000000000000000000000000C0E3EA
:2B185B000000000000000000000000000000000000000000000000000000000000000000000000000000000000C0E3BF
:2B1886000800000000000000000000000000000000000000000000000000000000000000000000000000000000D0FA65
:2B18B1000000000000000000000000000000000000000000000000000000000000000000000000000000000000C0E369
:2B18DC000000000000000000000000000000000000000000000000000000000000000000000000000000000000C0E33E
:2B190700040000000000000000000000000000000000000000000000000000000000000000000000000000000048EF7A
:2B1932000000000000000000000000000000000000000000000000000000000000000000000000000000000000C0E3E7
:2B195D000000000000000000000000000000000000000000000000000000000000000000000000000000000000C0E3BC
:2B1988000000000000000000000000000000000000000000000000000000000000000000000000000000000000C0E391
:2B19B3000000000000000000000000000000000000000000000000000000000000000000000000000000000000C0E366
:2B19DE000800000000000000000000000000000000000000000000000000000000000000000000000000000000D0FA0C
:2B1A09000000000000000000000000000000000000000000000000000000000000000000000000000000000000C0E30F
:2B1A34000000000000000000000000000000000000000000000000000000000000000000000000000000000000C0E3E4
:2B1A5F00040000000000000000000000000000000000000000000000000000000000000000000000000000000048EF21
:2B1A8A000000000000000000000000000000000000000000000000000000000000000000000000000000000000C0E38E
:2B1AB5000000000000000000000000000000000000000000000000000000000000000000000000000000000000C0E363
:2B1AE0000000000000000000000000000000000000000000000000000000000000000000000000000000000000C0E338
:2B1B0B000000000000000000000000000000000000000000000000000000000000000000000000000000000000C0E30C
:2B1B36000800000000000000000000000000000000000000000000000000000000000000000000000000000000D0FAB2
:2B1B61000000000000000000000000000000000000000000000000000000000000000000000000000000000000C0E3B6
:2B1B8C000000000000000000000000000000000000000000000000000000000000000000000000000000000000C0E38B
:2B1BB700040000000000000000000000000000000000000000000000000000000000000000000000000000000048EFC8
:2B1BE2000000000000000000000000000000000000000000000000000000000000000000000000000000000000C0E335
:2B1C0D000000000000000000000000000000000000000000000000000000000000000000000000000000000000C0E309
:2B1C38000000000000000000000000000000000000000000000000000000000000000000000000000000000000C0E3DE
:2B1C63000000000000000000000000000000000000000000000000000000000000000000000000000000000000C0E3B3
:2B1C8E000800000000000000000000000000000000000000000000000000000000000000000000000000000000D0FA59
:2B1CB9000000000000000000000000000000000000000000000000000000000000000000000000000000000000C0E35D
:2B1CE4000000000000000000000000000000000000000000000000000000000000000000000000000000000000C0E332
:2B1D0F00040000000000000000000000000000000000000000000000000000000000000000000000000000000048EF6E
:2B1D3A000000000000000000000000000000000000000000000000000000000000000000000000000000000000C0E3DB
:2B1D65000000000000000000000000000000000000000000000000000000000000000000000000000000000000C0E3B0
:2B1D90000000000000000000000000000000000000000000000000000000000000000000000000000000000000C0E385
:2B1DBB000000000000000000000000000000000000000000000000000000000000000000000000000000000000C0E35A
:2B1DE6000800000000000000000000000000000000000000000000000000000000000000000000000000000000D0FA00
:2B1E11000000000000000000000000000000000000000000000000000000000000000000000000000000000000C0E303
:2B1E3C000000000000000000000000000000000000000000000000000000000000000000000000000000000000C0E3D8
:2B1E6700040000000000000000000000000000000000000000000000000000000000000000000000000000000048EF15
:2B1E92000000000000000000000000000000000000000000000000000000000000000000000000000000000000C0E382
:2B1EBD000000000000000000000000000000000000000000000000000000000000000000000000000000000000C0E357
:2B1EE8002000022000022000022000022000022000020000000000044000044000044000044000044000044000C0E3C8
:2B1F13000000000000000000000000000000000000000000000000000000000000000000000000000000000000C0E300
:2B1F3E002800022000022000022000022000022000020000000000044000044000044000044000044000044000D0FA42
:2B1F69000000000000000000000000000000000000000000000000000000000000000000000000000000000000C0E3AA
:2B1F94002000022000022000022000022000022000020000000000044000044000044000044000044000044000C0E31B
:2B1FBF00040000000000000000000000000000000000000000000000000000000000000000000000000000000048EFBC
:2B1FEA002000022000022000022000022000022000020000000000044000044000044000044000044000044000C0E3C5
:2B2015000000000000000000000000000000000000000000000000000000000000000000000000000000000000C0E3FD
:2B2040000000000000000000000000000000000000000000000000000000000000000000000000000000000000C0E3D2
:2B206B000000000000000000000000000000000000000000000000000000000000000000000000000000000000C0E3A7
:2B2096000000000000000000000000000000000000000000000000000000000000000000000000000000000000C0E37C
:2B20C1000000000000000000000000000000000000000000000000000000000000000000000000000000000000C0E351
:2B20EC000000000000000000000000000000000000000000000000000000000000000000000000000000000000C0E326
:2B2117000000000000000000000000000000000000000000000000000000000000000000000000000000000000C0E3FA
:2B2142000000000000000000000000000000000000000000000000000000000000000000000000000000000000C0E3CF
:2B216D000000000000000000000000000000000000000000000000000000000000000000000000000000000000C0E3A4
:2B2198000000000000000000000000000000000000000000000000000000000000000000000000000000000000C0E379
:2B21C3000000000000000000000000000000000000000000000000000000000000000000000000000000000000C0E34E
:2B21EE000000000000000000000000000000000000000000000000000000000000000000000000000000000000C0E323
:2B2219000000000000000000000000000000000000000000000000000000000000000000000000000000000000C0E3F7
:2B2244000000000000000000000000000000000080000000000000000000000000000000000000000000000000C0EB44
:2B226F000000000000000000000000000000000000010000000000000000000000000000000000000000000000C0F390
:2B229A000000000000000000000000000000000000000000000000000000000000000000000000000000000000C0E376
:2B22C5000000000000000000000000000000000000000000000000000000000000000000000000000000000000C0E34B
:2B22F0000000000000000000000000000000000000000000000000000000000000000000000000000000000000C0E320
:2B231B000000000000000000000000000000000000000000000000000000000000000000000000000000000000C0E3F4
:2B2346000000000000000000000000000000000000000000000000000000000000000000000000000000000000C0E3C9
:2B2371000000000000000000000000000000000000000000000000000000000000000000000000000000000000E0C1A0
:2B239C000000000000000000000000000000000000000000000000000000000000000000000000000000000000C0E373
:2B23C7000000000000000000000000000000000000000000000000000000000000000000000000000000000000C0E348
:2B23F2000000000000000000000000000000000000000000000000000000000000000000000000000000000000C0E31D
:2B241D000000000000000000000000000000000000000000000000000000000000000000000000000000000000C0E3F1
:2B2448000000000000000000000000000000000000000000000000000000000000000000000000000000000000C0E3C6
:2B2473000000000000000000000000000000000000000000000000000000000000000000000000000000000000C0E39B
:2B249E000000000000000000000000000000000000000000000000000000000000000000000000000000000000C0E370
:2B24C9000000000000000000000000000000000000000000000000000000000000000000000000000000000000C0E345
:2B24F4000000000000000000000000000000000000000000000000000000000000000000000000000000000000C0E31A
:2B251F000000000000000000000000000000000000000000000000000000000000000000000000000000000000C0E3EE
:2B254A000000000000000000000000000000000000000000000000000000000000000000000000000000000000C0E3C3
:2B2575000000000000000000000000000000000000000000000000000000000000000000000000000000000000C0E398
:2B25A0000000000000000000000000000000000000000000000000000000000000000000000000000000000000C0E36D
:2B25CB000000000000000000000000000000000000000000000000000000000000000000000000000000000000C0E342
:2B25F6000000000000000000000000000000000000000000000000000000000000000000000000000000000000C0E317
:2B2621000000000000000000000000000000000000000000000000000000000000000000000000000000000000C0E3EB
:2B264C000000000000000000000000000000000000000000000000000000000000000000000000000000000000C0E3C0
:2B2677000000000000000000000000000000000000000000000000000000000000000000000000000000000000C0E395
:2B26A2000000000000000000000000000000000000000000000000000000000000000000000000000000000000C0E36A
:2B26CD000000000000000000000000000000000000000000000000000000000000000000000000000000000000C0E33F
:2B26F8000000000000000000000000000000000000000000000000000000000000000000000000000000000000C0E314
:2B2723000000000000000000000000000000000000000000000000000000000000000000000000000000000000C0E3E8
:2B274E000000000000000000000000000000000000000000000000000000000000000000000000000000000000C0E3BD
:2B2779000000000000000000000000000000000000000000000000000000000000000000000000000000000000C0E392
:2B27A4000000000000000000000000000000000000000000000000000000000000000000000000000000000000C0E367
:2B27CF000000000000000000000000000000000000000000000000000000000000000000000000000000000000C0E33C
:2B27FA000000000000000000000000000000000000000000000000000000000000000000000000000000000000C0E311
:2B2825000000000000000000000000000000000000000000000000000000000000000000000000000000000000C0E3E5
:2B2850000000000000000000000000000000000000000000000000000000000000000000000000000000000000C0E3BA
:2B287B000000000000000000000000000000000000000000000000000000000000000000000000000000000000C0E38F
:2B28A6000800000000000000000000000000000000000000000000000000000000000000000000000000000000D0FA35
:2B28D1000000000000000000000000000000000000000000000000000000000000000000000000000000000000C0E339
:2B28FC000000000000000000000000000000000000000000000000000000000000000000000000000000000000C0E30E
:2B292700040000000000000000000000000000000000000000000000000000000000000000000000000000000048EF4A
:2B2952000000000000000000000000000000000000000000000000000000000000000000000000000000000000C0E3B7
:2B297D000000000000000000000000000000000000000000000000000000000000000000000000000000000000C0E38C
:2B29A8000000000000000000000000000000000000000000000000000000000000000000000000000000000000C0E361
:2B29D3000000000000000000000000000000000000000000000000000000000000000000000000000000000000C0E336
:2B29FE000800000000000000000000000000000000000000000000000000000000000000000000000000000000D0FADC
:2B2A29000000000000000000000000000000000000000000000000000000000000000000000000000000000000C0E3DF
:2B2A54000000000000000000000000000000000000000000000000000000000000000000000000000000000000C0E3B4
:2B2A7F00040000000000000000000000000000000000000000000000000000000000000000000000000000000048EFF1
:2B2AAA000000000000000000000000000000000000000000000000000000000000000000000000000000000000C0E35E
:2B2AD5000000000000000000000000000000000000000000000000000000000000000000000000000000000000C0E333
:2B2B00000000000000000000000000000000000000000000000000000000000000000000000000000000000000C0E307
:2B2B2B000000000000000000000000000000000000000000000000000000000000000000000000000000000000C0E3DC
:2B2B56000800000000000000000000000000000000000000000000000000000000000000000000000000000000D0FA82
:2B2B81000000000000000000000000000000000000000000000000000000000000000000000000000000000000C0E386
:2B2BAC000000000000000000000000000000000000000000000000000000000000000000000000000000000000C0E35B
:2B2BD700040000000000000000000000000000000000000000000000000000000000000000000000000000000048EF98
:2B2C02000000000000000000000000000000000000000000000000000000000000000000000000000000000000C0E304
:2B2C2D000000000000000000000000000000000000000000000000000000000000000000000000000000000000C0E3D9
:2B2C58000000000000000000000000000000000000000000000000000000000000000000000000000000000000C0E3AE
:2B2C83000000000000000000000000000000000000000000000000000000000000000000000000000000000000C0E383
:2B2CAE000800000000000000000000000000000000000000000000000000000000000000000000000000000000D0FA29
:2B2CD9000000000000000000000000000000000000000000000000000000000000000000000000000000000000C0E32D
:2B2D04000000000000000000000000000000000000000000000000000000000000000000000000000000000000C0E301
:2B2D2F00040000000000000000000000000000000000000000000000000000000000000000000000000000000048EF3E
:2B2D5A000000000000000000000000000000000000000000000000000000000000000000000000000000000000C0E3AB
:2B2D85000000000000000000000000000000000000000000000000000000000000000000000000000000000000C0E380
:2B2DB0000000000000000000000000000000000000000000000000000000000000000000000000000000000000C0E355
:2B2DDB000000000000000000000000000000000000000000000000000000000000000000000000000000000000C0E32A
:2B2E06000800000000000000000000000000000000000000000000000000000000000000000000000000000000D0FACF
:2B2E31000000000000000000000000000000000000000000000000000000000000000000000000000000000000C0E3D3
:2B2E5C000000000000000000000000000000000000000000000000000000000000000000000000000000000000C0E3A8
:2B2E8700040000000000000000000000000000000000000000000000000000000000000000000000000000000048EFE5
:2B2EB2000000000000000000000000000000000000000000000000000000000000000000000000000000000000C0E352
:2B2EDD000000000000000000000000000000000000000000000000000000000000000000000000000000000000C0E327
:2B2F08000000000000000000000000000000000000000000000000000000000000000000000000000000000000C0E3FB
:2B2F33000000000000000000000000000000000000000000000000000000000000000000000000000000000000C0E3D0
:2B2F5E000800000000000000000000000000000000000000000000000000000000000000000000000000000000D0FA76
:2B2F89000000000000000000000000000000000000000000000000000000000000000000000000000000000000C0E37A
:2B2FB4000000000000000000000000000000000000000000000000000000000000000000000000000000000000C0E34F
:2B2FDF00040000000000000000000000000000000000000000000000000000000000000000000000000000000048EF8C
:2B300A000000000000000000000000000000000000000000000000000000000000000000000000000000000000C0E3F8
:2B3035000000000000000000000000000000000000000000000000000000000000000000000000000000000000C0E3CD
:2B3060000000000000000000000000000000000000000000000000000000000000000000000000000000000000C0E3A2
:2B308B000000000000000000000000000000000000000000000000000000000000000000000000000000000000C0E377
:2B30B6000800000000000000000000000000000000000000000000000000000000000000000000000000000000D0FA1D
:2B30E1000000000000000000000000000000000000000000000000000000000000000000000000000000000000C0E321
:2B310C000000000000000000000000000000000000000000000000000000000000000000000000000000000000C0E3F5
:2B313700040000000000000000000000000000000000000000000000000000000000000000000000000000000048EF32
:2B3162000000000000000000000000000000000000000000000000000000000000000000000000000000000000C0E39F
:2B318D000000000000000000000000000000000000000000000000000000000000000000000000000000000000C0E374
:2B31B8002000022000022000022000022000022000020000000000044000044000044000044000044000044000C0E3E5
:2B31E3000000000000000000000000000000000000000000000000000000000000000000000000000000000000C0E31E
:2B320E002800022000022000022000022000022000020000000000044000044000044000044000044000044000D0FA5F
:2B3239000000000000000000000000000000000000000000000000000000000000000000000000000000000000C0E3C7
:2B3264002000022000022000022000022000022000020000000000044000044000044000044000044000044000C0E338
:2B328F00040000000000000000000000000000000000000000000000000000000000000000000000000000000048EFD9
:2B32BA002000022000022000022000022000022000020000000000044000044000044000044000044000044000C0E3E2
:2B32E5000000000000000000000000000000000000000000000000000000000000000000000000000000000000C0E31B
:2B3310000000000000000000000000000000000000000000000000000000000000000000000000000000000000C0E3EF
:2B333B000000000000000000000000000000000000000000000000000000000000000000000000000000000000C0E3C4
:2B3366000000000000000000000000000000000000000000000000000000000000000000000000000000000000C0E399
:2B3391000000000000000000000000000000000000000000000000000000000000000000000000000000000000C0E36E
:2B33BC000000000000000000000000000000000000000000000000000000000000000000000000000000000000C0E343
:2B33E7000000000000000000000000000000000000000000000000000000000000000000000000000000000000C0E318
:2B3412000000000000000000000000000000000000000000000000000000000000000000000000000000000000C0E3EC
:2B343D000000000000000000000000000000000000000000000000000000000000000000000000000000000000C0E3C1
:2B3468000000000000000000000000000000000000000000000000000000000000000000000000000000000000C0E396
:2B3493000000000000000000000000000000000000000000000000000000000000000000000000000000000000C0E36B
:2B34BE000000000000000000000000000000000000000000000000000000000000000000000000000000000000C0E340
:2B34E9000000000000000000000000000000000000000000000000000000000000000000000000000000000000C0E315
:2B3514000000000000000000000000000000000000000000000000000000000000000000000000000000000000C0E3E9
:2B353F000000000000000000000000000000000000000000000000000000000000000000000000000000000000C0E3BE
:2B356A000000000000000000000000000000000000000000000000000000000000000000000000000000000000C0E393
:2B3595000000000000000000000000000000000000000000000000000000000000000000000000000000000000C0E368
:2B35C0000000000000000000000000000000000000000000000000000000000000000000000000000000000000C0E33D
:2B35EB000000000000000000000000000000000000000000000000000000000000000000000000000000000000C0E312
:2B3616000000000000000000000000000000000000000000000000000000000000000000000000000000000000C0E3E6
:2B3641000000000000000000000000000000000000000000000000000000000000000000000000000000000000C0E3BB
:2B366C000000000000000000000000000000000000000000000000000000000000000000000000000000000000C0E390
:2B3697000000000000000000000000000000000000000000000000000000000000000000000000000000000000C0E365
:2B36C2000000000000000000000000000000000000000000000000000000000000000000000000000000000000C0E33A
:2B36ED000000000000000000000000000000000000000000000000000000000000000000000000000000000000C0E30F
:2B3718000000000000000000000000000000000000000000000000000000000000000000000000000000000000C0E3E3
:2B3743000000000000000000000000000000000000000000000000000000000000000000000000000000000000C0E3B8
:2B376E000000000000000000000000000000000000000000000000000000000000000000000000000000000000C0E38D
:2B3799000000000000000000000000000000000000000000000000000000000000000000000000000000000000C0E362
:2B37C4000000000000000000000000000000000000000000000000000000000000000000000000000000000000C0E337
:2B37EF000000000000000000000000000000000000000000000000000000000000000000000000000000000000C0E30C
:2B381A000000000000000000000000000000000000000000000000000000000000000000000000000000000000C0E3E0
:2B3845000000000000000000000000000000000000000000000000000000000000000000000000000000000000C0E3B5
:2B3870000000000000000000000000000000000000000000000000000000000000000000000000000000000000C0E38A
:2B389B000000000000000000000000000000000000000000000000000000000000000000000000000000000000C0E35F
:2B38C6000000000000000000000000000000000000000000000000000000000000000000000000000000000000C0E334
:2B38F1000000000000000000000000000000000000000000000000000000000000000000000000000000000000C0E309
:2B391C000000000000000000000000000000000000000000000000000000000000000000000000000000000000C0E3DD
:2B3947000000000000000000000000000000000000000000000000000000000000000000000000000000000000C0E3B2
:2B3972000000000000000000000000000000000000000000000000000000000000000000000000000000000000C0E387
:2B399D00000000000000000000000000000000000080080000000000000000000000000000000000000000000040EB4C
:2B39C800000000000000000000000000000000000080020000000000000000000000000000000000000000000040E131
:2B39F3000000000000000000000000000000000000000100000000000000000000000000000000000000000000C0E206
:2B3A1E000000000000000000000000000000000000000000000000000000000000000000000000000000000000C0E3DA
:2B3A49000012200112200112200112200112200112A0020000000040022440022440022440022440022440022440E01B
:2B3A7400000CC0000CC0000CC0000CC0000CC0000CC00400000000800118800118800118800118800118800118C0E71E
:023A9F00FFFF27
:00000001FF
