:020000040000FA
:2B000000FFFF62FF2500FFFFFFFFFFFFFFFFFFFFFFFFFFFFFFFFFFFFFFFFFFFFFFFFFFFFFFFFFFFFFFFFFFFFFFFFFF76
:2B002B00601886611886C11D86C11D06777087611886010000000018866118866118866118866118866118866180E796
:2B005600401004411004A11004A11084422804411004010000000010044110044110044110044110044110044180E7C3
:2B008100000000000000000000000000000000000000000000000000000000000000000000000000000000000080E7ED
:2B00AC00000000000000000000000000000000000000000000000000000000000000000000000000000000000080E7C2
:2B00D700000000000000000000000000000000000000000000000000000000000000000000000000000000000080E797
:2B010200000000000000000000000000000000000000000000000000000000000000000000000000000000000080E76B
:2B012D00000000000000000000000000000000000000000000000000000000000000000000000000000000000080E740
:2B015800000000000000000000000000000000000000000000000000000000000000000000000000000000000008EF85
:2B0183000000000000000000000000000000000000000000000000000000000000000000000000000000000000A0C5EC
:2B01AE00000000000000000000000000000000000000000000000000000000000000000000000000000000000080E7BF
:2B01D900000000000000000000000000000000000000000000000000000000000000000000000000000000000080E794
:2B020400020000000000000000000000000000000000000000000000000000000000000000000000000000000080E568
:2B022F00000000000000000000000000000000000000000000000000000000000000000000000000000000000080E73D
:2B025A00000000000000000000000000000000000000000000000000000000000000000000000000000000000080E712
:2B028500000000000000000000000000000000000000000000000000000000000000000000000000000000000080E7E7
:2B02B000020000000000000000000000000000000000000000000000000000000000000000000000000000000008ED2C
:2B02DB00000000000000000000000000000000000000000000000000000000000000000000000000000000000080E791
:2B030600000000000000000000000000000000000000000000000000000000000000000000000000000000000080E765
:2B033100000020000000000000000000000000000000000000000000000000000000000000000000000000000080C53C
:2B035C00000000000000000000000000000000000000000000000000000000000000000000000000000400000080A34F
:2B038700000000000000000000000000000000000000000000000000000000000000000000000000800000000000EFDC
:2B03B200020000000000000000000000000000000000400000000100000000000000000000000000000000000008BC19
:2B03DD00000000000000000000000000000000000000400000000100000000000000000000000000000000000080B67E
:2B040800000000000000000000000000000000000000000000000000000000000000000000000000000000000080E762
:2B043300000000000000000000000000000000000000000000000000000000000000000000000000800000000000EF2F
:2B045E00000000000000000000000000000000000000000000000000000000000000000000000000000000000080E70C
:2B048900020000000000000000000000000000000000000000000000000000000000000000000000000000000008ED51
:2B04B400800008800008800008800008800008800008000000000020000220000220000220000220000220000280E7BA
:2B04DF00800008800008800008800008800008800008000000000020000220000220000220000220000220000280E78F
:2B050A00000000000000000000000000000000000000000000000000000000000000000000000000000000000080E75F
:2B053500020000000000000000000000000000000000000000000000000000000000000000000000000000000008EDA4
:2B056000000000000000000000000000000000000000000000000000000000000000000000000000000000000008EF79
:2B058B00000000000000000000000000000000000000000000000000000000000000000000000000000000000090F6BF
:2B05B600000000000000000000000000000000000000000000000000000000000000000000000000000000000008EF23
:2B05E100000000000000000000000000000000000000000000000000000000000000000000000000000000000008EFF8
:2B060C00020000000000000000000000000000000000000000000000000000000000000000000000000000000008EDCC
:2B063700000000000000000000000000000000000000000000000000000000000000000000000000000000000080E731
:2B066200000000000000000000000000000000000000000000000000000000000000000000000000000000000080E706
:2B068D00000000000000000000000000000000000000000000000000000000000000000000000000000000000080E7DB
:2B06B800020000000000000000000000000000000000000000000000000000000000000000000000000000000008ED20
:2B06E300000000000000000000000000000000000000000000000000000000000000000000000000000000000080E785
:2B070E00000000000000000000000000000000000000000000000000000000000000000000000000000000000080E759
:2B073900000000000000000000000000000000000000000000000000000000000000000000000000000000000080E72E
:2B076400000000000000000000000000000000000000000000000000000000000000000000000000000000000080E703
:2B078F00020000000000000000000000000000000000000000000000000000000000000000000000000000000008ED48
:2B07BA00000000000000000000000000000000000000000000000000000000000000000000000000000000000080E7AD
:2B07E500000000000000000000000000000000000000000000000000000000000000000000000000000000000080E782
:2B081000000000000000000000000000000000000000000000000000000000000000000000000000000000000080E756
:2B083B00020000000000000000000000000000000000000000000000000000000000000000000000000000000008ED9B
:2B086600020000000000000000000000000000000000000000000000000000000000000000000000000000000008ED70
:2B089100040000000000000000000000000000000000000000000000000000000000000000000000000000000090F2B6
:2B08BC00020000000000000000000000000000000000000000000000000000000000000000000000000000000008ED1A
:2B08E700020000000000000000000000000000000000000000000000000000000000000000000000000000000008EDEF
:2B091200020000000000000000000000000000000000000000000000000000000000000000000000004000000008E987
:2B093D00000000000000000000000000000000000000000000000000000000000000000000000000800100000000FE10
:2B096800000000000000000000000000000000000000000000000000000000000000000000000000000000000080E7FD
:2B099300000000000000000000000000000000000000000000000000000000000000000000000000000100000080F6C2
:2B09BE000200000000000000000000000000000000000000000000000000000000000000000000000006000000088B73
:2B09E90000000000000000000000000000000000000000000000000000000000000000000000000000060000008081DC
:2B0A140000000000000000000000000000000000000000000000000000000000000000000000000000060000008081B0
:2B0A3F000000000000000000000000000000000000000000000000000000000000000000000000000006000000808185
:2B0A6A00000000000000000000000000000000000000000000000000000000000000000000000000000000000080E7FA
:2B0A9500020000000000000000000000000000000000000000000000000000000000000000000000000000000008ED3F
:2B0AC000000000000000000000000000000000000000000000000000000000000000000000000000000000000080E7A4
:2B0AEB00000000000000000000000000000000000000000000000000000000000000000000000000000000000080E779
:2B0B1600000000000000000000000000000000000000000000000000000000000000000000000000000000000080E74D
:2B0B4100020000000000000000000000000000000000000000000000000000000000000000000000000000000008ED92
:2B0B6C00020000000000000000000000000000000000000000000000000000000000000000000000000000000008ED67
:2B0B9700040000000000000000000000000000000000000000000000000000000000000000000000000000000090F2AD
:2B0BC200020000000000000000000000000000000000000000000000000000000000000000000000000000000008ED11
:2B0BED000200060200000000000000000000000000000000000000000000000000000000000000000000000000088F3C
:2B0C1800020000000000000000000000000000000000000000000000000000000000000000000000000000000008EDBA
:2B0C4300000004000000000000000000000000000000000000000000000000000000000000000000000000000080A75B
:2B0C6E00000018000000000000000000000000000000000000000000000000000000000000000000000000000000FE45
:2B0C9900000018000000000000000000000000000000000000000000000000000000000000000000000000000000FE1A
:2B0CC400020018000000000000000000000000000000000000000000000000000000000000000000000000000088F46F
:2B0CEF00000018000000000000000000000000000000000000000000000000000000000000000000000000000000FEC4
:2B0D1A00000000000000000000000000000000000000000000000000000000000000000000000000000000000080E747
:2B0D4500000000000000000000000000000000000000000000000000000000000000000000000000000000000080E71C
:2B0D7000000000000000000000000000000000000000000000000000000000000000000000000000000000000080E7F1
:2B0D9B00020000000000000000000000000000000000000000000000000000000000000000000000000000000008ED36
:2B0DC600000000000000000000000000000000000000000000000000000000000000000000000000000000000080E79B
:2B0DF100000000000000000000000000000000000000000000000000000000000000000000000000000000000080E770
:2B0E1C00000000000000000000000000000000000000000000000000000000000000000000000000000000000080E744
:2B0E4700020000000000000000000000000000000000000000000000000000000000000000000000000000000008ED89
:2B0E7200000000000000000000000000000000000000000000000000000000000000000000000000000000000080E7EE
:2B0E9D00000000000000000000000000000000000000000000000000000000000000000000000000000000000080E7C3
:2B0EC800000000000000000000000000000000000000000000000000000000000000000000000000000000000080E798
:2B0EF300000000000000000000000000000000000000000000000000000000000000000000000000000000000080E76D
:2B0F1E00020000000000000000000000000000000000000000000000000000000000000000000000000000000008EDB1
:2B0F4900000000000000000000000000000000000000000000000000000000000000000000000000000000000080E716
:2B0F7400000000000000000000000000000000000000000000000000000000000000000000000000000000000080E7EB
:2B0F9F00000000000000000000000000000000000000000000000000000000000000000000000000000000000080E7C0
:2B0FCA00000000000000000000000000000000000000000000000000000000000000000000000000000000000080E795
:2B0FF500000000000000000000000000000000000000000000000000000000000000000000000000000000000080E76A
:2B102000800008800008800008800008800008800008000000000020000220000220000220000220000220000280E742
:2B104B00800008800008800008800008800008800008000000000020000220000220000220000220000220000280E717
:2B107600000080000000000000000000000000000000000000000000000000000000000000000000000000000000E7E8
:2B10A100000000000000000000000000000000000000000000000000000000000000000000000000000000000080E7BD
:2B10CC00000000000000000000000000000000000000000000000000000000000000000000000000000000000080E792
:2B10F700000000000000000000000000000000000000001000000000000000000000000000000000000000000080E658
:2B112200000080000000000000000000000000000000001000000000000000000000000000000000000000000000E62C
:2B114D00000000000000000000000000000000000000000000000000000000000000000000000000000000000080E710
:2B117800000000000000000000000000000000000000000000000000000000000000000000000000000000000080E7E5
:2B11A300000000000000000000000000000000000000000000000000000000000000000000000000000000000080E7BA
:2B11CE00000000000000000000000000000000000000000000000000000000000000000000000000000000000080E78F
:2B11F900080000000000000000000000000000000000000000000000000000000000000000000000000000000080EF54
:2B122400000000000000000000000000000000000000000000000000000000000000000000000000000000000080E738
:2B124F00000000000000000000000000000000000000000000000000000000000000000000000000000000000080E70D
:2B127A00000000000000000000000000000000000000000000000000000000000000000000000000000000000080E7E2
:2B12A500000000000000000000000000000000000000000000000000000000000000000000000000000000000080E7B7
:2B12D000000000000000000000000000000000000000000000000000000000000000000000000000000000000080E78C
:2B12FB00000000000000000000000000000000000000000000000000000000000000000000000000000000000080E761
:2B132600000000000000000000000000000000000000000000000000000000000000000000000000000000000080E735
:2B135100080000000000000000000000000000000000000000000000000000000000000000000000000000000080EFFA
:2B137C000000000000000000000000000000000000000000000000000000000000000000000000000000000000A0C5E1
:2B13A700080000000000000000000000000000000000000000000000000000000000000000000000000000000080EFA4
:2B13D200020200000000000000000000000000000000000000000000000000000000000000000000000000000080C7A5
:2B13FD00000280000800000000000000000088000800000000000000000000000000000000000000000000000000CDDE
:2B1428000004000000000000000000000000000002000000000000000000000000000000000000000000000000808192
:2B145300000000000000000000000000000000000000000000000000000000000000000000000000000000000080E707
:2B147E00000000000000000000000000000000000000000000000000000000000000000000000000000000000080E7DC
:2B14A900000000000000000000000000000000000000000000000000000000000000000000000000000000000080E7B1
:2B14D400000000000000000000000000000000000000000000000000000000000000000000000000000000000080E786
:2B14FF00000010000001000000000000000000000000000000000000000000000000000000000000000000000080E64B
:2B152A00020101000000000000000000000000000000000000000000000000000000000000000000000000000080E42E
:2B155500000000000000000000000000000000000000000000000000000000000000000000000000000000000090F6E5
:2B158000000000000000000000000000000000000000000000000000000000000000000000000000000000000080E7D9
:2B15AB00000000000000000000000000000000000000000000000000000000000000000000000000000000000080E7AE
:2B15D600000000000000000000000000000000000000000000000000000000000000000000000000000000000080E783
:2B160100008220000080200000200080000802000000000000000000000000000000000000000000000000000000CF03
:2B162C00020000000000200000200000000000000000000000000000000000000000000000000000000000000080E5EC
:2B165700000000000000000000000000000000000000000000000000000000000000000000000000000000000008EF71
:2B168200000000000000000000000080000800000000000000000000000000000000000000000000000000000008EFBE
:2B16AD00008230000080020000000000000002000000000000000000000000000000000000000000000000000088D480
:2B16D800000000000000000000000000000000000000000000000000000000000000000000000000000000000008EFF0
:2B170300020008800000000000000000000008800000000000000000000000000000000000000000000000000080E544
:2B172E00800000000008800008800008800000000008000000000020000220000220000220000220000220000280E73D
:2B175900800008800008800008800008800008800008000000000020000220000220000220000220000220000280E702
:2B178400000010000100000000000000000010000100000000000000000000000000000000000000000000000080E7B1
:2B17AF006220166001000000000000000000166001000000000000000000000000000000000000000000000000088F08
:2B17DA00A21112200100000000000000000012200100000000000000000000000000000000000000000000000000DDEE
:2B180500C40114400100000000000000000014400100000000000000000000000000000000000000000000000000BA8F
:2B183000A20112200100000000000000000012200100000000000000000000000000000000000000000000000000DCA8
:2B185B00A20112200100000000000000000012200100000000000000000000000000000000000000000000000000DC7D
:2B188600020010000100000000000000000010000100000000000000000000000000000000000000000000000008ED1E
:2B18B100000014418300000000000000000014448300000000000000000000000000000000000000000000000080E2F7
:2B18DC00000020000200000000000000000020000200000000000000000000000000000000000000000000000080E736
:2B1907006020266002000000000000000000266002000000000000000000000000000000000000000000000000808520
:2B193200021098800900000000000000000098800900000000000000000000000000000000000000000000000080E4D2
:2B195D0040003CC0030000000000000000003CC00300000000000000000000000000000000000000000000000008AF6A
:2B198800000000000000000000000000000000088000000000000000000000000000000000000000000000000008EFB5
:2B19B300000018900101000000000000000038800300000000000000000000000000000000000000000000000008EFAD
:2B19DE00800100000000000000000000000000000000000000000000000000000000000000000000000000000088F6DF
:2B1A0900820118800100000000000000000018800100000000000000000000000000000000000000000000000000FC01
:2B1A3400804000000000000000000000000040000000000000000000000000000000000000000000000000000000AFD8
:2B1A5F00E0019E60080000000000000000001EE0090000000000000000000000000000000000000000000000000087E7
:2B1A8A00000020000000000000000000000020000200000000000000000000000000000000000000000000000080C5AA
:2B1AB500428024C00B00000000000000000024400200000000000000000000000000000000000000000000000008BC2B
:2B1AE000820000880300000000000000000000002000000000000000000000000000000000000000000000000080DC52
:2B1B0B00040039000000000000000000000038810100000000000000000000000000000000000000000000000000EBCD
:2B1B3600020019800100000000000000000018800100000000000000000000000000000000000000000000000080F5DA
:2B1B6100020018800100000000000000000018800100000000000000000000000000000000000000000000000080E5C0
:2B1B8C00022000000400000000000000000080000000000000000000000000000000000000000000000000000088AB55
:2B1BB700600206E40100000000000000000006604000000000000000000000000000000000000000000000000000BC54
:2B1BE200A0015B000200000000000000000000A00500000000000000000000000000000000000000000000000000EC49
:2B1C0D00C0031C4002000000000000000000BCC001000000000000000000000000000000000000000000000000008589
:2B1C3800220002082000000000000000000038202000000000000000000000000000000000000000000000000000F6C7
:2B1C6300A00B3A800300000000000000000000A00100000000000000000000000000000000000000000000000088EDD8
:2B1C8E00800100800100000000000000000018000000000000000000000000000000000000000000000000000088F693
:2B1CB900000018800100000000000000000018800100000000000000000000000000000000000000000000000008EFD7
:2B1CE400000000000000000000000000000000040000000000000000000000000000000000000000000000000008EBDE
:2B1D0F00E2019F604000000000000000000026E00900000000000000000000000000000000000000000000000000AACE
:2B1D3A00008002A0010000000000000000001A200000000000000000000000000000000000000000000000000080EFB2
:2B1D6500C00104C4050000000000000000005C404000000000000000000000000000000000000000000000000000BE2B
:2B1D9000000202202000000000000000000002200000000000000000000000000000000000000000000000000080C77B
:2B1DBB0002005AA0030000000000000000003AA10500000000000000000000000000000000000000000000000008EC2A
:2B1DE600820118000000000000000000000000800100000000000000000000000000000000000000000000000000FCBA
:2B1E1100840118800100000000000000000018800100000000000000000000000000000000000000000000000000FAF5
:2B1E3C00021000000400000000000000000040000000000000000000000000000000000000000000000000000080E4C1
:2B1E6700E2031EE4010000000000000000001EE04100000000000000000000000000000000000000000000000000BE6B
:2B1E9200020042200000000000000000000002240400000000000000000000000000000000000000000000000008E9A6
:2B1EBD0040001D404000000000000000000024C001000000000000000000000000000000000000000000000000809127
:2B1EE800002042200400000000000000000042200000000000000000000000000000000000000000000000000080A1C6
:2B1F1300800122A0030000000000000000003A200600000000000000000000000000000000000000000000000000BA43
:2B1F3E00820118800100000000000000000018800100000000000000000000000000000000000000000000000000FCC7
:2B1F6900800118800100000000000000000018800100000000000000000000000000000000000000000000000088F61C
:2B1F9400002000000000000000000000000000040800000000000000000000000000000000000000000000000088E985
:2B1FBF00600206E4410000000000000000003E6000000000000000000000000000000000000000000000000000088F35
:2B1FEA00A00102200000000000000000000002000000000000000000000000000000000000000000000000000088F689
:2B201500C20B44C0050000000000000000005CC00B00000000000000000000000000000000000000000000000080E142
:2B204000A00102200000000000000000000002800300000000000000000000000000000000000000000000000080C5E8
:2B206B00A00102200600000000000000000062000000000000000000000000000000000000000000000000000000FE21
:2B209600000018800100000000000000000018800100000000000000000000000000000000000000000000000080E786
:2B20C100020018800100000000000000000018800100000000000000000000000000000000000000000000000080E55B
:2B20EC00022080000000000000000000000000040000000000000000000000000000000000000000000000000088EBB0
:2B211700E403066040000000000000000000266040000000000000000000000000000000000000000000000000889230
:2B214200220001200400000000000000000042200000000000000000000000000000000000000000000000000008FDC4
:2B216D00C203BC400200000000000000000024400400000000000000000000000000000000000000000000000088E9AB
:2B219800220038200000000000000000000002200000000000000000000000000000000000000000000000000000DEA2
:2B21C300A00301200000000000000000000002200000000000000000000000000000000000000000000000000000CC3F
:2B21EE00000118800100000000000000000018800100000000000000000000000000000000000000000000000080F61D
:2B221900800A188001000000000000000000188001000000000000000000000000000000000000000000000000C08995
:2B224400000000000000000000000000000000000000000000000000000000000000000000000000000000000058BA5D
:2B226F00800020044200000000000000000020044200000000000000000000000000000000000000000000000000EF09
:2B229A00000000000008800008800008800000000008000000000020000220000220000220000220000220000200EFBE
:2B22C500800008800008800008800008800008800008000000000020000220000220000220000220000220000280E78B
:2B22F000008A32000000000000000000000000000080020000000000000000000000000000000000000000000080DC29
:2B231B00000000000000000000000000000000000000000000000000000000000000000000000000000000000080E730
:2B234600200000200000200000000000000000000000000000000000000000000000000000000000000000000080C7C5
:2B237100000000000000000000000000000000000000411000000100000000000000000000000000000000000080B6B9
:2B239C00208A22200000200000000000000000000080411000000100000000000000000000000000000000000080BEFA
:2B23C700002001000000000000000000000000000000000000000000000000000000000000000000000000000080F555
:2B23F200000004400000000000000000000004400000000000000000000000000000000000000000000000000080E7D1
:2B241D00000000104000000000000000000000000000000000000000000000000000000000000000000000000080F3D1
:2B244800000000000000000000000000000000040000000000000000000000000000000000000000000000000080E302
:2B2473000A8004400000000000000000000004414000000000000000000000000000000000000000000000000080E08B
:2B249E00000000000400000000000000000000000000000000000000000000000000000000000000000000000080A3EC
:2B24C900000000000000000000000000000000000000000000000000000000000000000000000000000000000080E781
:2B24F400002000000000000000000000000000000000000000000000000000000000000000000000000000000080E538
:2B251F00400000000000000000000000000000000000000000000000000000000000000000000000000000000080A72A
:2B254A00081000000000000000000000000000004000000000000000000000000000000000000000000000000080EAA4
:2B257500000000011000000000000000000000001000000000000000000000000000000000000000000000000080E6B4
:2B25A000008000040000000000000000000080000000000000000000000000000000000000000000000000000000EB21
:2B25CB00020000000000000000000000000000000000000000000000000000000000000000000000000000000080E57E
:2B25F600800000000000000000000000000000000000000000000000000000000000000000000000000000000000EF4B
:2B2621000000000000000002000000000000000000000000000000000000000000000000000000000000000000A0E705
:2B264C00000000000000000000000000000000000000000000000000000000000000000000000000000000000080E7FC
:2B267700000000000000000000000000000000000000000000000000000000000000000000000000000000000080E7D1
:2B26A200100000000000000000000000000000000000000000000000000000000000000000000000000000000080F786
:2B26CD00000000000000000000000000000000000000000000000000000000000000000000000000000000000080E77B
:2B26F800000000000000000000000000000000000000000000000000000000000000000000000000000000000080E750
:2B272300000000000000000000000000000000000000000000000000000000000000000000000000000000000080E724
:2B274E00000000000000000000000000000000000000000000000000000000000000000000000000000000000080E7F9
:2B277900000000000000000000000000000000000000000000000000000000000000000000000000000000000080E7CE
:2B27A4000000000000000000000000000000000000000000000000000000000000000000000000000000000000A0C5A5
:2B27CF00000000000000000000000000000000000000000000000000000000000000000000000000000000000080E778
:2B27FA00000000000000000000000000000000000000000000000000000000000000000000000000000000000080E74D
:2B282500000000000000000000000000000000000000000200000000000000000000000000000000000000000080C541
:2B285000000000000020000000000000000000000000000300000000000000000000000000000000000000000080F6C4
:2B287B00000000000000080000000000000000000000000000001000000000000000000000000000000000000080EEAC
:2B28A600020000000000000000000000000000000000000000000000000000000000000000000000000000000008ED10
:2B28D100020000000000000000000000000000000000000000000800000000000000000000000000000000000000E5ED
:2B28FC00040000000000000000000000000000000000000000200000000000000000000000000000000000000080C34A
:2B292700020000000000080000000000000000000000000000202002000000000000000000000000000000000080EFCA
:2B295200020000000000000000000000000000000000000000200000000000000000000000000000000000000080C5F3
:2B297D000200000000000000000000000000000000000000002000040000000000000000000000000000000000088D74
:2B29A800800008800008800008800008800008800008000000200020000220000220000220000220000220000280C7A1
:2B29D300800008800008800008800008800008800008000000200020000220000220000220000220000220000280C776
:2B29FE00000000000000020000000000000000000000000000200002000000000000000000000000000000000080E525
:2B2A29000200000000060000000000000000000000000000002000020000000000000000000000000000000000088DC3
:2B2A5400000000000000000000000000000000000000000000200000000000000000000000000000000000000008CF60
:2B2A7F0000000000000400000000000000000000000000000020000000000000000000000000000000000000009096E2
:2B2AAA00000000000018000000000000000000000000000000200000000000000000000000000000000000000088D66B
:2B2AD500000000000018000000000000000000000000000000200000000000000000000000000000000000000088D640
:2B2B0000020000000018000000000000000000000000000000200000000000000000000000000000000000000088D414
:2B2B2B00000000000018000000000000000000000000000000200000000000000000000000000000000000000000DE69
:2B2B5600000000000000000000000000000000000000000000200000000000000000000000000000000000000080C7ED
:2B2B8100000000000000000000000000000000000000000000204000000000000000000000000000000000000080C386
:2B2BAC0002000000000000000000000000000000000000000020A000000000000000000000000000000000000008C76D
:2B2BD70000000000000000000000000000000000000000000020A000000000000000000000000000000000000080CDC6
:2B2C0200000000000000000000000000000000000000000000200000000000000000000000000000000000000080C740
:2B2C2D00000000000000000000000000000000000000000000200000000000000000000000000000000000000080C715
:2B2C5800000000000000000000000000000000000000000000200000000000000000000000000000000000000080C7EA
:2B2C8300020000000000000000000000000000000000000000200000000000000000000000000000000000000008CD2F
:2B2CAE00000000000000000000000000000000000000000000200000000000000000000000000000000000000080C794
:2B2CD900000000000000000000000000000000000000000000200000000000000000000000000000000000000080C769
:2B2D0400000000000000000000000000000000000000000000201000000000000000000000000000000000000080C62E
:2B2D2F00000000000000000000000000000000000000000000000100000000000000000000000000000000000080F602
:2B2D5A00020000000000000000000000000000000000000000000100000000000000000000000000000000000008FC47
:2B2D8500020000000000000000000000000000000000000000201000000000000000000000000000000000000008CC1D
:2B2DB000020000000000000000000000000000000000000000200100000000000000000000000000000000000008DCF1
:2B2DDB00020000000000000000000000000000000000000000200100000000000000000000000000000000000008DCC6
:2B2E0600000000000000000000000000000000000000000000800100000000000000000000000000000000000000FE22
:2B2E3100000000000000000000000000000000000000000000A00000000000000000000000000000000000000000CF07
:2B2E5C00000000000000000000000000000000000000000000004000000000000000000000000000000000000080E3A8
:2B2E8700000000000000000000000000000000000000000000000000000000000000000000000000000000000080E7B9
:2B2EB200000000000000000000000000000000000000000000000000000000000000000000000000000000000008EFFE
:2B2EDD00020000000000000000000000000000000000000000008000000000000000000000000000000000000080EDDB
:2B2F0800020000000000000000000000000000000000000000002000000000000000000000000000000000000080E715
:2B2F3300020000000000000000000000000000000000000000000000000000000000000000000000000000000080E50C
:2B2F5E00020000000000000000000000000000000000000000008000000000000000000000000000000000000080ED59
:2B2F890000000000001E04000000000000000000000000000000000000000000000000000000000000000000008892E1
:2B2FB400000000000000100000000000000000000000000000000000000000000000000000000000000000000080F76B
:2B2FDF0000000000003C000000000000000000000000000000000002000000000000000000000000000000000000BCCD
:2B300A00000000000020000000000000000000000000000000000000000000000000000000000000000000000080C536
:2B303500000000000000000000000000000000000000000000000000000000000000000000000000000000000008EF79
:2B306000020000000018000000000000000000000000000000000000000000000000000000000000000000000088F4AF
:2B308B00020000000018000000000000000000000000000000000000000000000000000000000000000000000010ED03
:2B30B600020000000040000000000000000000000000000000000000000000000000000000000000000000000008A9FC
:2B30E100020000000026000000000000000000000000000000000000000000000000000000000000000000000008AFE5
:2B310C00000000000040000000000000000000000000000000000000000000000000000000000000000000000008ABA5
:2B31370000000000001C000000000000000000000000000000000000000000000000000000000000000000000000BE93
:2B316200000000000018020000000000000000000000000000000000000000000000000000000000000000000000FC2C
:2B318D00000000000000000000000000000000000000000000000000000000000000000000000000000000000080E7B0
:2B31B800020000000018000000000000000000000000000000000000000000000000000000000000000000000088F456
:2B31E300000000000018000000000000000000000000000000000000000000000000000000000000000000000000FEAB
:2B320E00000000000000000000000000000000000000000000000000000000000000000000000000000000000080E72E
:2B32390000000000001E0400000000000000000000000000000000000000000000000000000000000000000000009AAE
:2B326400000000000000000000000000000000000000000000000000000000000000000000000000000000000080E7D8
:2B328F0002000000001C010000000000000000000000000000000000000000000000000000000000000000000088B5B8
:2B32BA00000000000000010000000000000000000000000000002000000000000000000000000000000000000080E464
:2B32E500000000000020000000000000000000000000000000000000000000000000000000000000000000000080C559
:2B331000000000000018000000000000000000000000000000000000000000000000000000000000000000000000FE7C
:2B333B00020000000018000000000000000000000000000000000000000000000000000000000000000000000000FC51
:2B336600020000000000000000000000000000000000000000000000000000000000000000000000000000000008ED45
:2B339100040000000006E42100000000000000000000000000000000000000000000000000000000000000000088F486
:2B33BC00020000000000000000000000000000000000000000000000000000000000000000000000000000000008EDEF
:2B33E700020000000004400001000000000000000000000000000000000000000000000000000000000000000008FD6F
:2B341200020000000018000200000000000000000000000000000000000000000000000000000000000000000000DE95
:2B343D00000000000018800300000000000000000000000000000000000000000000000000000000000000000080C584
:2B346800000000000018800100000000000000000000000000000000000000000000000000000000000000000080E739
:2B349300020000000018800100000000000000000000000000000000000000000000000000000000000000000008ED7E
:2B34BE00180000000000000000000000000000000000000000000000000000000000000000000000000000000008F7CC
:2B34E900000000000000000000000000000000000000000000000000000000000000000000000000000000000080E751
:2B351400800008800008800008800008800008800008000000000020000220000220000220000220000220000280E729
:2B353F00800008800008800008800008800008800008000000000020000220000220000220000220000220000280E7FE
:2B356A00000000000002010000000000000000000000000000000000000000000000000000000000000000000080C6ED
:2B359500000000000000000000000000000000000000000000000000000000000000000000000000000000000080E7A4
:2B35C000000000000000000000000000000000000000200800800000000000000000000000000000000000000080CFE9
:2B35EB00000000000000000000000000000000000000000000000000000000000000000000000000000000000080E74E
:2B361600000000000002810000000000000000000000000000000000000000000000000000000000000000000000CE38
:2B364100000000000010010001000000000000000000400000000000000000000000000000000000000000000080A7E5
:2B366C00000000000008000000000000000000000000000000000000000000000000000000000000000000000000EF3C
:2B369700000000000000000000000000000000000000000000000000000000000000000000000000000000000080E7A1
:2B36C200000000000000480000000000000000000000000000000000000000000000000000000000000000000080AF66
:2B36ED000000000000000000000000000000000000000000000000000000000000000000000000000000000000A0C54D
:2B371800000000000000000000000000000000000000000000000000000000000000000000000000000000000080E71F
:2B374300000000000000000000000000000000000000000000000000000000000000000000000000000000000080E7F4
:2B376E00000000000000000000000000000000000000000000000000000000000000000000000000000000000080E7C9
:2B379900020000000004000000000000000000000000000000000000000000000000000000000000000000000080A5DA
:2B37C400000000000000000000000000000000000000000000000000000000000000000000000000000000000080E773
:2B37EF00000000000000000000000000000000000000000000000000000000000000000000000000000000000080E748
:2B381A000000000000000000000000000000000000000000000000000000000000000000000000000000000000A0C51E
:2B384500000000000000000000000000000000000000002000000000000000000000000000000000000000000080E5D3
:2B387000000000000000000000000000000000000000000000000000000000000000000000000000000000000080E7C6
:2B389B00000000000000000000000000000000000000000000000000000000000000000000000000000000000080E79B
:2B38C600000000000000000000000000000000000000000000000000000000000000000000000000000000000080E770
:2B38F100000000000000000000000000000000000000000000000000000000000000000000000000000000000080E745
:2B391C00000000000000000000000000000000000000000000000000000000000000000000000000000000000080E719
:2B394700A01004A11004411004411004411004411084020000000010044110044110044110044110044110044100E434
:2B397200C01D86C11D86611886611886611886611806170000000018866118866118866118866118866118866100F1E5
:02399D00FFFF2A
:00000001FF
