:020000040000FA
:2B000000FFFF62FF3100FFFFFFFFFFFFFFFFFFFFFFFFFFFFFFFFFFFFFFFFFFFFFFFFFFFFFFFFFFFFFFFFFFFFFFFFFF6A
:2B002B00000CC0000CC0000CC0000CC0000CC0000CC00000000000800118800118800118800118800118800118C0E3A9
:2B0056000012200112200112200112200112200112200100000000400224400224400224400224400224400224C0E346
:2B0081000000000000000000000000000000000000000000000000000000000000000000000000000000000000C0E3B1
:2B00AC000000000000000000000000000000000000000000000000000000000000000000000000000000000000C0E386
:2B00D7000000000000000000000000000000000000000000000000000000000000000000000000000000000000C0E35B
:2B0102000000000000000000000000000000000000000000000000000000000000000000000000000000000000C0E32F
:2B012D00000000A0010000000000001A0000000000000000000000000000000000000000000000000000000000C0E349
:2B0158000000000000000000000000000000000000000000000000000000000000000000000000000000000000C0E3D9
:2B0183000000006000000000000000060000000000000000000000000000000000000000000000000000000000C0E348
:2B01AE00000000202200000000000082020000000000000000000000000000000000000000000000000000000040C15F
:2B01D900000000002800000000000000020000000000000000000000000000000000000000000000000000000040E3AE
:2B020400000000E0010000000000001E0000000000000000000000000000000000000000000000000000000000C0E32D
:2B022F000000008001000000000000180000000000000000000000000000000000000000000000000000000000C0E368
:2B025A000000008049000000000000980400000000000000000000000000000000000000000000000000000000C0E371
:2B028500000000A00100000000000002000000000000000000000000000000000000000000000000000000000040FA71
:2B02B0000000000000000000000000000000000000000000000000000000000000000000000000000000000000C0E380
:2B02DB0000000060200000000000001E000000000000000000000000000000000000000000000000000000000040F822
:2B030600080000200800000000000002100000000000000000000000000000000000000000000000000000000050EA50
:2B033100000000002200000000000038000000000000000000000000000000000000000000000000000000000040F80F
:2B035C00000000E0010000000000001E0200000000000000000000000000000000000000000000000000000000C0E1D4
:2B0387000400008001000000000000000000000000000000000000000000000000000000000000000000000000C8F608
:2B03B2000000008049000000000000980400000000000000000000000000000000000000000000000000000000C0E318
:2B03DD00100000A0010000000000001A0000000000000000000000000000000000000000000000000000000000C0F377
:2B0408000000000000000000000000000000000000000000000000000000000000000000000000000000000000C0E326
:2B0433000000006000000000000000060200000000000000000000000000000000000000000000000000000000C0E195
:2B045E000C0000202800000000000022000000000000000000000000000000000000000000000000000000000050DECF
:2B048900040000000000000000000080000000000000000000000000000000000000000000000000000000000040E79D
:2B04B400000000E0210000000000001E0200000000000000000000000000000000000000000000000000000000C0E359
:2B04DF000C0000800100000000000018000000000000000000000000000000000000000000000000000000000048E71E
:2B050A000000008049000000000000980400000000000000000000000000000000000000000000000000000000C0E3BE
:2B05350000000020000000000000001A000000000002000000000000000000000000000000000000000000000040DA45
:2B0560000000000000000000000000000000000000000000000000000000000000000000000000000000000000C0E3CD
:2B058B000000006000000000000000060200000000000000000000000000000000000000000000000000000000C0E13C
:2B05B600080000200000000000000082000000000000000000000000000000000000000000000000000000000050FA26
:2B05E100000000000400000000000000000000000020100000000000000000000000000000000000000000000080D16A
:2B060C0000000060400000000000001E020000000006000000000000000000000000000000000000000000000000D825
:2B0637000400008001000000000000180000000000180400000000000000000000000000000000000000000000C8F225
:2B066200000000802300000000000098040000000098000000000000000000000000000000000000000000000040DE78
:2B068D00000000A00100000000000002000000000000000000000000000000000000000000000000000000000040FA65
:2B06B8000000000000000000000000000000000000000000000000000000000000000000000000000000000000C0E374
:2B06E3000000006020000000000000060000000000000000000000000000000000000000000000000000000000C0E1C5
:2B070E00080000200400000000000002000000000000000000000000000000000000000000000000000000000090FA08
:2B073900000000000800000000000040000000000000000000000000000000000000000000000000000000000000E36A
:2B076400000000E02100000000000006040000000000000000000000000000000000000000000000000000000040FC23
:2B078F00040000800100000000000018000000000000000000000000000000000000000000000000000000000048EF6B
:2B07BA000000008049000000000000980200000000000000000000000000000000000000000000000000000000C0E50C
:2B07E50010000020000000000000001A000000000000000000000000000000000000000000000000000000000040EA75
:2B0810000000000000000000000000000000000000000000000000000000000000000000000000000000000000C0E31A
:2B083B00000000E00100000000000006020000000000000000000000000000000000000000000000000000000040F871
:2B0866000C00002010000000000000020000000000000000000000000000000000000000000000000000000000D0FF5A
:2B0891000400008009000000000000200000000000000000000000000000000000000000000000000000000000C0DCF3
:2B08BC00000000E0210000000000001E0200000000000000000000000000000000000000000000000000000000C0E34D
:2B08E7000C00000000000000000000180000000000000000000000000000000000000000000000000000000000C8FEFC
:2B0912000000008049000000000000980400000000000000000000000000000000000000000000000000000000C0E3B2
:2B093D000000002000000000000000020000000000000000000000000000000000000000000000000000000000C0E3CA
:2B0968000000000000000000000000000000000000000000000000000000000000000000000000000000000000C0E3C1
:2B099300000000E00100000000000006000000000000000000000000000000000000000000000000000000000040FA18
:2B09BE000800002042000000000000020000000000000000000000000000000000000000000000000000000000D0DCF6
:2B09E900000000800100000000000040000000000000000000000000000000000000000000000000000000000000FA28
:2B0A1400000000E02100000000000006040000000000000000000000000000000000000000000000000000000040FC70
:2B0A3F000400000000000000000000180200000000000000000000000000000000000000000000000000000000C8F4B2
:2B0A6A00000000804900000000000038000000000000000000000000000000000000000000000000000000000040C55B
:2B0A95001000002000000000000000020000000000000000000000000000000000000000000000000000000000C0F351
:2B0AC0000000000000000000000000000000000000000000000000000000000000000000000000000000000000C0E368
:2B0AEB0000000060000000000000001E000000000000000000000000000000000000000000000000000000000040FA28
:2B0B16000C00002000000000000000020100000000000000000000000000000000000000000000000000000000D0FFB6
:2B0B4100040000000400000000000018000000000000000000000000000000000000000000000000000000000000FE6B
:2B0B6C0000000060400000000000001E020000000000000000000000000000000000000000000000000000000040FC62
:2B0B97000C00008021000000000000000000000000000000000000000000000000000000000000000000000000C8FCC2
:2B0BC2000000008009000000000000980400000000000000000000000000000000000000000000000000000000C0E73C
:2B0BED001000000000000000000000000000000000000000000000000000000000000000000000000000000000C0F31A
:2B0C18002000022000022000022000022000022000020000000000044000044000044000044000044000044000C0E3AA
:2B0C43000000000000000000000000000000000000000000000000000000000000000000000000000000000000C0E3E3
:2B0C6E002C0002200002200002200002200002200002000000000004400004400004400004400004400004400048E7BC
:2B0C9900040000000000000000000000000000000000000000000000000000000000000000000000000000000058FED6
:2B0CC4002000020000022000022000002000022000020000000000044000044000044000044000044000044000C0E320
:2B0CEF000C00000000000000000000000000000000000000000000000000000000000000000000000000000000D0FE00
:2B0D1A002000022040022000022000223000022000020000000000044000044000044000044000044000044000C0D545
:2B0D45000000000000000000000000000000000000000000000000000000000000000000000000000000000000C0E3E0
:2B0D70000000000000000000000000000000000000000000000000000000000000000000000000000000000000C0E3B5
:2B0D9B000000000002000000000000000000000000000000000000000000000000000000000000000000000000C0C1AA
:2B0DC6000000000000000000000000000000000000000000000000000000000000000000000000000000000000C0E35F
:2B0DF1000000000000000000000000000000000000000000000000000000000000000000000000000000000000C0E334
:2B0E1C000000000000000000000000000000000000000000000000000000000000000000000000000000000000C0E308
:2B0E47000800000000000000000000000000000000000000000000000000000000000000000000000000000000C0EBCD
:2B0E72000000000000000000000000000000000000000000000000000000000000000000000000000000000000C0E3B2
:2B0E9D000000000000000000000000001000000000000000000000000000000000000000000000000000000000C0F367
:2B0EC8000000000000000000000000000000000000000000000000000000000000000000000000000000000000C0E35C
:2B0EF3000000000000000000000000000000000000000000000000000000000000000000000000000000000000C0E331
:2B0F1E000000000000000000000000000000000000000000000000000000000000000000000000000000000000C0E305
:2B0F49000000000000000000000000000000000000000000000000000000000000000000000000000000000000C0E3DA
:2B0F74000000000000000000000000000000000000000000000000000000000000000000000000000000000000C0E3AF
:2B0F9F000000000000000000000000000000000000000000000000000000000000000000000000000000000000C0E384
:2B0FCA000000000000000000000000000400008002080000000000000000000000000000000000000000000000C0C5E9
:2B0FF5000000000000000000000000000400008000080000000000000000000000000000000000000000000000C0E79E
:2B1020000000000000000000000000000000000000000000000000000000000000000000000000000000000000C0E302
:2B104B000000000001000000000000100000000000000000000000000000000000000000000000000000000000C0E3C6
:2B107600000000000100000000000000000000000008000000000000000000000000000000000000000000000040FA0C
:2B10A1000000002000000000000000000000000000001000000000000000000000000000000000000000000000C0D361
:2B10CC000000000000000000000000000800000000000000000000000000000000000000000000000000000000C0EB46
:2B10F700000000800000000000000000000000000000000000000000000000000000000000000000000000000040EB23
:2B1122000400000000000400000000000000000000000000000000000000000000000000000000000000000000C0E3F7
:2B114D00000000400000100000000000000000000000000000000000000000000000000000000000000000000080F7B0
:2B1178000600000000800000000000080000000000000000000000000000000000000000000000000000000000C0ED11
:2B11A300000000000000000000000008000000000000000000000000000000000000000000000000000000000040EBEE
:2B11CE000000000000000000000000000000000000000000000000000000000000000000000000000000000000C0E353
:2B11F9000000000000000000000000000000000000000000000000000000000000000000000000000000000000C0E328
:2B1224000000000000000000000000000000000000000000000000000000000000000000000000000000000000C0E3FC
:2B124F000000000000000000000000000000000000000000000000000000000000000000000000000000000000C0E3D1
:2B127A000000000000000000000000000000000000000000000000000000000000000000000000000000000000C0E3A6
:2B12A500000000000000000000000000000000000000000000000000000000000000000000000000000000000084E7B3
:2B12D0001000000000000000000000000000000000000000000000000000000000000000000000000000000000C0F330
:2B12FB000000000000000000000000020000000000000000000000000000000000000000000000000000000000C0C343
:2B1326000000000000000000000000000000000000000000000000000000000000000000000000000000000000C0E3F9
:2B1351000000000000000000000000000000000000000000000000000000000000000000000000000000000000C0E3CE
:2B137C000000000000000000000000000000000000000000000000000000000000000000000000000000000000C0E3A3
:2B13A7000200000000000000000000000000000000000000000000000000000000000000000000000000000000C0E178
:2B13D2000000000000000000000000000000000000000000000000000000000000000000000000000000000000C0E34D
:2B13FD000000000000000000000000000000000000000000000000000000000000000000000000000000000000C0E322
:2B1428000000000000000000000000000000000000000000000000000000000000000000000000000000000000C0E3F6
:2B1453000000000000000000000000000000000000000000000000000000000000000000000000000000000000C0E3CB
:2B147E000000000000000000000000000000000000000000000000000000000000000000000000000000000000C0E3A0
:2B14A9000000000000000000000000000000000000000000000000000000000000000000000000000000000000C0E375
:2B14D4000000000000000000000000000000000000000000000000000000000000000000000000000000000000C0E34A
:2B14FF000000000000000000000000000000000000000000000000000000000000000000000000000000000000C0E31F
:2B152A000000000000000000000000000000000000000000000000000000000000000000000000000000000000C0E3F3
:2B1555000000000000000000000000000000000000000000000000000000000000000000000000000000000000C0E3C8
:2B1580000000000000000000000000000000000000000000000000000000000000000000000000000000000000C0E39D
:2B15AB000000000000000000000000000000000000000000000000000000000000000000000000000000000000C0E372
:2B15D6000800000000000000000000000000000000000000000000000000000000000000000000000000000000D0FA18
:2B1601000000000000000000000000000000000000000000000000000000000000000000000000000000000000C0E31B
:2B162C000000000000000000000000000000000000000000000000000000000000000000000000000000000000C0E3F0
:2B165700040000000000000000000000000000000000000000000000000000000000000000000000000000000048EF2D
:2B1682000000000000000000000000000000000000000000000000000000000000000000000000000000000000C0E39A
:2B16AD000000000000000000000000000000000000000000000000000000000000000000000000000000000000C0E36F
:2B16D8000000000000000000000000000000000000000000000000000000000000000000000000000000000000C0E344
:2B1703000000000000000000000000000000000000000000000000000000000000000000000000000000000000C0E318
:2B172E000800000000000000000000000000000000000000000000000000000000000000000000000000000000D0FABE
:2B1759000000000000000000000000000000000000000000000000000000000000000000000000000000000000C0E3C2
:2B1784000000000000000000000000000000000000000000000000000000000000000000000000000000000000C0E397
:2B17AF00040000000000000000000000000000000000000000000000000000000000000000000000000000000048EFD4
:2B17DA000000000000000000000000000000000000000000000000000000000000000000000000000000000000C0E341
:2B1805000000000000000000000000000000000000000000000000000000000000000000000000000000000000C0E315
:2B1830000000000000000000000000000000000000000000000000000000000000000000000000000000000000C0E3EA
:2B185B000000000000000000000000000000000000000000000000000000000000000000000000000000000000C0E3BF
:2B1886000800000000000000000000000000000000000000000000000000000000000000000000000000000000D0FA65
:2B18B1000000000000000000000000000000000000000000000000000000000000000000000000000000000000C0E369
:2B18DC000000000000000000000000000000000000000000000000000000000000000000000000000000000000C0E33E
:2B190700040000000000000000000000000000000000000000000000000000000000000000000000000000000048EF7A
:2B1932000000000000000000000000000000000000000000000000000000000000000000000000000000000000C0E3E7
:2B195D000000000000000000000000000000000000000000000000000000000000000000000000000000000000C0E3BC
:2B1988000000000000000000000000000000000000000000000000000000000000000000000000000000000000C0E391
:2B19B3000000000000000000000000000000000000000000000000000000000000000000000000000000000000C0E366
:2B19DE000800000000000000000000000000000000000000000000000000000000000000000000000000000000D0FA0C
:2B1A09000000000000000000000000000000000000000000000000000000000000000000000000000000000000C0E30F
:2B1A34000000000000000000000000000000000000000000000000000000000000000000000000000000000000C0E3E4
:2B1A5F00040000000000000000000000000000000000000000000000000000000000000000000000000000000048EF21
:2B1A8A000000000000000000000000000000000000000000000000000000000000000000000000000000000000C0E38E
:2B1AB5000000000000000000000000000000000000000000000000000000000000000000000000000000000000C0E363
:2B1AE0000000000000000000000000000000000000000000000000000000000000000000000000000000000000C0E338
:2B1B0B000000000000000000000000000000000000000000000000000000000000000000000000000000000000C0E30C
:2B1B36000800000000000000000000000000000000000000000000000000000000000000000000000000000000D0FAB2
:2B1B61000000000000000000000000000000000000000000000000000000000000000000000000000000000000C0E3B6
:2B1B8C000000000000000000000000000000000000000000000000000000000000000000000000000000000000C0E38B
:2B1BB700040000000000000000000000000000000000000000000000000000000000000000000000000000000048EFC8
:2B1BE2000000000000000000000000000000000000000000000000000000000000000000000000000000000000C0E335
:2B1C0D000000000000000000000000000000000000000000000000000000000000000000000000000000000000C0E309
:2B1C38000000000000000000000000000000000000000000000000000000000000000000000000000000000000C0E3DE
:2B1C63000000000000000000000000000000000000000000000000000000000000000000000000000000000000C0E3B3
:2B1C8E000800000000000000000000000000000000000000000000000000000000000000000000000000000000D0FA59
:2B1CB9000000000000000000000000000000000000000000000000000000000000000000000000000000000000C0E35D
:2B1CE4000000000000000000000000000000000000000000000000000000000000000000000000000000000000C0E332
:2B1D0F00040000000000000000000000000000000000000000000000000000000000000000000000000000000048EF6E
:2B1D3A000000000000000000000000000000000000000000000000000000000000000000000000000000000000C0E3DB
:2B1D65000000000000000000000000000000000000000000000000000000000000000000000000000000000000C0E3B0
:2B1D90000000000000000000000000000000000000000000000000000000000000000000000000000000000000C0E385
:2B1DBB000000000000000000000000000000000000000000000000000000000000000000000000000000000000C0E35A
:2B1DE6000800000000000000000000000000000000000000000000000000000000000000000000000000000000D0FA00
:2B1E11000000000000000000000000000000000000000000000000000000000000000000000000000000000000C0E303
:2B1E3C000000000000000000000000000000000000000000000000000000000000000000000000000000000000C0E3D8
:2B1E6700040000000000000000000000000000000000000000000000000000000000000000000000000000000048EF15
:2B1E92000000000000000000000000000000000000000000000000000000000000000000000000000000000000C0E382
:2B1EBD000000000000000000000000000000000000000000000000000000000000000000000000000000000000C0E357
:2B1EE8002000022000022000022000022000022000020000000000044000044000044000044000044000044000C0E3C8
:2B1F13000000000000000000000000000000000000000000000000000000000000000000000000000000000000C0E300
:2B1F3E002800022000022000022000022000022000020000000000044000044000044000044000044000044000D0FA42
:2B1F69000000000000000000000000000000000000000000000000000000000000000000000000000000000000C0E3AA
:2B1F94002000022000022000022000022000022000020000000000044000044000044000044000044000044000C0E31B
:2B1FBF00040000000000000000000000000000000000000000000000000000000000000000000000000000000048EFBC
:2B1FEA002000022000022000022000022000022000020000000000044000044000044000044000044000044000C0E3C5
:2B2015000000000000000000000000000000000000000000000000000000000000000000000000000000000000C0E3FD
:2B2040000000000000000000000000000000000000000000000000000000000000000000000000000000000000C0E3D2
:2B206B000000000000000000000000000000000000000000000000000000000000000000000000000000000000C0E3A7
:2B2096000000000000000000000000000000000000000000000000000000000000000000000000000000000000C0E37C
:2B20C1000000000000000000000000000000000000000000000000000000000000000000000000000000000000C0E351
:2B20EC000000000000000000000000000000000000000000000000000000000000000000000000000000000000C0E326
:2B2117000000000000000000000000000000000000000000000000000000000000000000000000000000000000C0E3FA
:2B2142000000000000000000000000000000000000000000000000000000000000000000000000000000000000C0E3CF
:2B216D000000000000000000000000000000000000000000000000000000000000000000000000000000000000C0E3A4
:2B2198000000000000000000000000000000000000000000000000000000000000000000000000000000000000C0E379
:2B21C3000000000000000000000000000000000000000000000000000000000000000000000000000000000000C0E34E
:2B21EE000000000000000000000000000000000000000000000000000000000000000000000000000000000000C0E323
:2B2219000000000000000000000000000000000000000000000000000000000000000000000000000000000000C0E3F7
:2B2244000000000000000000000000000000000000000000000000000000000000000000000000000000000000C0E3CC
:2B226F000000000000000000000000000000000000000000000000000000000000000000000000000000000000C0E3A1
:2B229A000000000000000000000000000000000000000000000000000000000000000000000000000000000000C0E376
:2B22C5000000000000000000000000000000000000000000000000000000000000000000000000000000000000C0E34B
:2B22F0000000000000000000000000000000000000000000000000000000000000000000000000000000000000C0E320
:2B231B000000000000000000000000000000000000000000000000000000000000000000000000000000000000C0E3F4
:2B2346000000000000000000000000000000000000000000000000000000000000000000000000000000000000C0E3C9
:2B2371000000000000000000000000000000000000000000000000000000000000000000000000000000000000C0E39E
:2B239C000000000000000000000000000000000000000000000000000000000000000000000000000000000000C0E373
:2B23C7000000000000000000000000000000000000000000000000000000000000000000000000000000000000C0E348
:2B23F2000000000000000000000000000000000000000000000000000000000000000000000000000000000000C0E31D
:2B241D000000000000000000000000000000000000000000000000000000000000000000000000000000000000C0E3F1
:2B2448000000000000000000000000000000000000000000000000000000000000000000000000000000000000C0E3C6
:2B2473000000000000000000000000000000000000000000000000000000000000000000000000000000000000C0E39B
:2B249E000000000000000000000000000000000000000000000000000000000000000000000000000000000000C0E370
:2B24C9000000000000000000000000000000000000000000000000000000000000000000000000000000000000C0E345
:2B24F4000000000000000000000000000000000000000000000000000000000000000000000000000000000000C0E31A
:2B251F000000000000000000000000000000000000000000000000000000000000000000000000000000000000C0E3EE
:2B254A000000000000000000000000000000000000000000000000000000000000000000000000000000000000C0E3C3
:2B2575000000000000000000000000000000000000000000000000000000000000000000000000000000000000C0E398
:2B25A0000000000000000000000000000000000000000000000000000000000000000000000000000000000000C0E36D
:2B25CB000000000000000000000000000000000000000000000000000000000000000000000000000000000000C0E342
:2B25F6000000000000000000000000000000000000000000000000000000000000000000000000000000000000C0E317
:2B2621000000000000000000000000000000000000000000000000000000000000000000000000000000000000C0E3EB
:2B264C000000000000000000000000000000000000000000000000000000000000000000000000000000000000C0E3C0
:2B2677000000000000000000000000000000000000000000000000000000000000000000000000000000000000C0E395
:2B26A2000000000000000000000000000000000000000000000000000000000000000000000000000000000000C0E36A
:2B26CD000000000000000000000000000000000000000000000000000000000000000000000000000000000000C0E33F
:2B26F8000000000000000000000000000000000000000000000000000000000000000000000000000000000000C0E314
:2B2723000000000000000000000000000000000000000000000000000000000000000000000000000000000000C0E3E8
:2B274E000000000000000000000000000000000000000000000000000000000000000000000000000000000000C0E3BD
:2B2779000000000000000000000000000000000000000000000000000000000000000000000000000000000000C0E392
:2B27A4000000000000000000000000000000000000000000000000000000000000000000000000000000000000C0E367
:2B27CF000000000000000000000000000000000000000000000000000000000000000000000000000000000000C0E33C
:2B27FA000000000000000000000000000000000000000000000000000000000000000000000000000000000000C0E311
:2B2825000000000000000000000000000000000000000000000000000000000000000000000000000000000000C0E3E5
:2B2850000000000000000000000000000000000000000000000000000000000000000000000000000000000000C0E3BA
:2B287B000000000000000000000000000000000000000000000000000000000000000000000000000000000000C0E38F
:2B28A6000800000000000000000000000000000000000000000000000000000000000000000000000000000000D0FA35
:2B28D1000000000000000000000000000000000000000000000000000000000000000000000000000000000000C0E339
:2B28FC000000000000000000000000000000000000000000000000000000000000000000000000000000000000C0E30E
:2B292700040000000000000000000000000000000000000000000000000000000000000000000000000000000048EF4A
:2B2952000000000000000000000000000000000000000000000000000000000000000000000000000000000000C0E3B7
:2B297D000000000000000000000000000000000000000000000000000000000000000000000000000000000000C0E38C
:2B29A8000000000000000000000000000000000000000000000000000000000000000000000000000000000000C0E361
:2B29D3000000000000000000000000000000000000000000000000000000000000000000000000000000000000C0E336
:2B29FE000800000000000000000000000000000000000000000000000000000000000000000000000000000000D0FADC
:2B2A29000000000000000000000000000000000000000000000000000000000000000000000000000000000000C0E3DF
:2B2A54000000000000000000000000000000000000000000000000000000000000000000000000000000000000C0E3B4
:2B2A7F00040000000000000000000000000000000000000000000000000000000000000000000000000000000048EFF1
:2B2AAA000000000000000000000000000000000000000000000000000000000000000000000000000000000000C0E35E
:2B2AD5000000000000000000000000000000000000000000000000000000000000000000000000000000000000C0E333
:2B2B00000000000000000000000000000000000000000000000000000000000000000000000000000000000000C0E307
:2B2B2B000000000000000000000000000000000000000000000000000000000000000000000000000000000000C0E3DC
:2B2B56000800000000000000000000000000000000000000000000000000000000000000000000000000000000D0FA82
:2B2B81000000000000000000000000000000000000000000000000000000000000000000000000000000000000C0E386
:2B2BAC000000000000000000000000000000000000000000000000000000000000000000000000000000000000C0E35B
:2B2BD700040000000000000000000000000000000000000000000000000000000000000000000000000000000048EF98
:2B2C02000000000000000000000000000000000000000000000000000000000000000000000000000000000000C0E304
:2B2C2D000000000000000000000000000000000000000000000000000000000000000000000000000000000000C0E3D9
:2B2C58000000000000000000000000000000000000000000000000000000000000000000000000000000000000C0E3AE
:2B2C83000000000000000000000000000000000000000000000000000000000000000000000000000000000000C0E383
:2B2CAE000800000000000000000000000000000000000000000000000000000000000000000000000000000000D0FA29
:2B2CD9000000000000000000000000000000000000000000000000000000000000000000000000000000000000C0E32D
:2B2D04000000000000000000000000000000000000000000000000000000000000000000000000000000000000C0E301
:2B2D2F00040000000000000000000000000000000000000000000000000000000000000000000000000000000048EF3E
:2B2D5A000000000000000000000000000000000000000000000000000000000000000000000000000000000000C0E3AB
:2B2D85000000000000000000000000000000000000000000000000000000000000000000000000000000000000C0E380
:2B2DB0000000000000000000000000000000000000000000000000000000000000000000000000000000000000C0E355
:2B2DDB000000000000000000000000000000000000000000000000000000000000000000000000000000000000C0E32A
:2B2E06000800000000000000000000000000000000000000000000000000000000000000000000000000000000D0FACF
:2B2E31000000000000000000000000000000000000000000000000000000000000000000000000000000000000C0E3D3
:2B2E5C000000000000000000000000000000000000000000000000000000000000000000000000000000000000C0E3A8
:2B2E8700040000000000000000000000000000000000000000000000000000000000000000000000000000000048EFE5
:2B2EB2000000000000000000000000000000000000000000000000000000000000000000000000000000000000C0E352
:2B2EDD000000000000000000000000000000000000000000000000000000000000000000000000000000000000C0E327
:2B2F08000000000000000000000000000000000000000000000000000000000000000000000000000000000000C0E3FB
:2B2F33000000000000000000000000000000000000000000000000000000000000000000000000000000000000C0E3D0
:2B2F5E000800000000000000000000000000000000000000000000000000000000000000000000000000000000D0FA76
:2B2F89000000000000000000000000000000000000000000000000000000000000000000000000000000000000C0E37A
:2B2FB4000000000000000000000000000000000000000000000000000000000000000000000000000000000000C0E34F
:2B2FDF00040000000000000000000000000000000000000000000000000000000000000000000000000000000048EF8C
:2B300A000000000000000000000000000000000000000000000000000000000000000000000000000000000000C0E3F8
:2B3035000000000000000000000000000000000000000000000000000000000000000000000000000000000000C0E3CD
:2B3060000000000000000000000000000000000000000000000000000000000000000000000000000000000000C0E3A2
:2B308B000000000000000000000000000000000000000000000000000000000000000000000000000000000000C0E377
:2B30B6000800000000000000000000000000000000000000000000000000000000000000000000000000000000D0FA1D
:2B30E1000000000000000000000000000000000000000000000000000000000000000000000000000000000000C0E321
:2B310C000000000000000000000000000000000000000000000000000000000000000000000000000000000000C0E3F5
:2B313700040000000000000000000000000000000000000000000000000000000000000000000000000000000048EF32
:2B3162000000000000000000000000000000000000000000000000000000000000000000000000000000000000C0E39F
:2B318D000000000000000000000000000000000000000000000000000000000000000000000000000000000000C0E374
:2B31B8002000022000022000022000022000022000020000000000044000044000044000044000044000044000C0E3E5
:2B31E3000000000000000000000000000000000000000000000000000000000000000000000000000000000000C0E31E
:2B320E002800022000022000022000022000022000020000000000044000044000044000044000044000044000D0FA5F
:2B3239000000000000000000000000000000000000000000000000000000000000000000000000000000000000C0E3C7
:2B3264002000022000022000022000022000022000020000000000044000044000044000044000044000044000C0E338
:2B328F00040000000000000000000000000000000000000000000000000000000000000000000000000000000048EFD9
:2B32BA002000022000022000022000022000022000020000000000044000044000044000044000044000044000C0E3E2
:2B32E5000000000000000000000000000000000000000000000000000000000000000000000000000000000000C0E31B
:2B3310000000000000000000000000000000000000000000000000000000000000000000000000000000000000C0E3EF
:2B333B000000000000000000000000000000000000000000000000000000000000000000000000000000000000C0E3C4
:2B3366000000000000000000000000000000000000000000000000000000000000000000000000000000000000C0E399
:2B3391000000000000000000000000000000000000000000000000000000000000000000000000000000000000C0E36E
:2B33BC000000000000000000000000000000000000000000000000000000000000000000000000000000000000C0E343
:2B33E7000000000000000000000000000000000000000000000000000000000000000000000000000000000000C0E318
:2B3412000000000000000000000000000000000000000000000000000000000000000000000000000000000000C0E3EC
:2B343D000000000000000000000000000000000000000000000000000000000000000000000000000000000000C0E3C1
:2B3468000000000000000000000000000000000000000000000000000000000000000000000000000000000000C0E396
:2B3493000000000000000000000000000000000000000000000000000000000000000000000000000000000000C0E36B
:2B34BE000000000000000000000000000000000000000000000000000000000000000000000000000000000000C0E340
:2B34E9000000000000000000000000000000000000000000000000000000000000000000000000000000000000C0E315
:2B3514000000000000000000000000000000000000000000000000000000000000000000000000000000000000C0E3E9
:2B353F000000000000000000000000000000000000000000000000000000000000000000000000000000000000C0E3BE
:2B356A000000000000000000000000000000000000000000000000000000000000000000000000000000000000C0E393
:2B3595000000000000000000000000000000000000000000000000000000000000000000000000000000000000C0E368
:2B35C0000000000000000000000000000000000000000000000000000000000000000000000000000000000000C0E33D
:2B35EB000000000000000000000000000000000000000000000000000000000000000000000000000000000000C0E312
:2B3616000000000000000000000000000000000000000000000000000000000000000000000000000000000000C0E3E6
:2B3641000000000000000000000000000000000000000000000000000000000000000000000000000000000000C0E3BB
:2B366C000000000000000000000000000000000000000000000000000000000000000000000000000000000000C0E390
:2B3697000000000000000000000000000000000000000000000000000000000000000000000000000000000000C0E365
:2B36C2000000000000000000000000000000000000000000000000000000000000000000000000000000000000C0E33A
:2B36ED000000000000000000000000000000000000000000000000000000000000000000000000000000000000C0E30F
:2B3718000000000000000000000000000000000000000000000000000000000000000000000000000000000000C0E3E3
:2B3743000000000000000000000000000000000000000000000000000000000000000000000000000000000000C0E3B8
:2B376E000000000000000000000000000000000000000000000000000000000000000000000000000000000000C0E38D
:2B3799000000000000000000000000000000000000000000000000000000000000000000000000000000000000C0E362
:2B37C4000000000000000000000000000000000000000000000000000000000000000000000000000000000000C0E337
:2B37EF000000000000000000000000000000000000000000000000000000000000000000000000000000000000C0E30C
:2B381A000000000000000000000000000000000000000000000000000000000000000000000000000000000000C0E3E0
:2B3845000000000000000000000000000000000000000000000000000000000000000000000000000000000000C0E3B5
:2B3870000000000000000000000000000000000000000000000000000000000000000000000000000000000000C0E38A
:2B389B000000000000000000000000000000000000000000000000000000000000000000000000000000000000C0E35F
:2B38C6000000000000000000000000000000000000000000000000000000000000000000000000000000000000C0E334
:2B38F1000000000000000000000000000000000000000000000000000000000000000000000000000000000000C0E309
:2B391C000000000000000000000000000000000000000000000000000000000000000000000000000000000000C0E3DD
:2B3947000000000000000000000000000000000000000000000000000000000000000000000000000000000000C0E3B2
:2B3972000000000000000000000000000000000000000000000000000000000000000000000000000000000000C0E387
:2B399D000000000000000000000000000000000000000000000000000000000000000000000000000000000000C0E35C
:2B39C8000000000000000000000000000000000000000000000000000000000000000000000000000000000000C0E331
:2B39F3000000000000000000000000000000000000000000000000000000000000000000000000000000000000C0E306
:2B3A1E000000000000000000000000000000000000000000000000000000000000000000000000000000000000C0E3DA
:2B3A49000012200112200112200112200112200112200100000000400224400224400224400224400224400224C0E319
:2B3A7400000CC0000CC0000CC0000CC0000CC0000CC00000000000800118800118800118800118800118800118C0E326
:023A9F00FFFF27
:00000001FF
